{
  "contractName": "lands",
  "abi": [
    {
      "anonymous": false,
      "inputs": [
        {
          "indexed": false,
          "internalType": "string",
          "name": "success",
          "type": "string"
        }
      ],
      "name": "registerevent",
      "type": "event"
    },
    {
      "anonymous": false,
      "inputs": [
        {
          "indexed": false,
          "internalType": "string",
          "name": "success",
          "type": "string"
        }
      ],
      "name": "registrarUpdated",
      "type": "event"
    },
    {
      "anonymous": false,
      "inputs": [
        {
          "indexed": false,
          "internalType": "string",
          "name": "success",
          "type": "string"
        }
      ],
      "name": "transferevent",
      "type": "event"
    },
    {
      "stateMutability": "payable",
      "type": "fallback",
      "payable": true
    },
    {
      "stateMutability": "payable",
      "type": "receive",
      "payable": true
    },
    {
      "inputs": [],
      "name": "getBalance",
      "outputs": [
        {
          "internalType": "uint256",
          "name": "",
          "type": "uint256"
        }
      ],
      "stateMutability": "view",
      "type": "function",
      "constant": true
    },
    {
      "inputs": [
        {
          "internalType": "string",
          "name": "name",
          "type": "string"
        },
        {
          "internalType": "string",
          "name": "id",
          "type": "string"
        },
        {
          "internalType": "uint256",
          "name": "sd",
          "type": "uint256"
        },
        {
          "internalType": "uint256",
          "name": "td",
          "type": "uint256"
        },
        {
          "internalType": "uint256",
          "name": "rf",
          "type": "uint256"
        },
        {
          "internalType": "string",
          "name": "coord",
          "type": "string"
        },
        {
          "internalType": "address",
          "name": "metamask",
          "type": "address"
        }
      ],
      "name": "addRegistrar",
      "outputs": [],
      "stateMutability": "nonpayable",
      "type": "function"
    },
    {
      "inputs": [
        {
          "internalType": "string",
          "name": "id",
          "type": "string"
        },
        {
          "internalType": "uint256",
          "name": "sd",
          "type": "uint256"
        },
        {
          "internalType": "uint256",
          "name": "td",
          "type": "uint256"
        },
        {
          "internalType": "uint256",
          "name": "rf",
          "type": "uint256"
        }
      ],
      "name": "updateRegistrar",
      "outputs": [],
      "stateMutability": "nonpayable",
      "type": "function"
    },
    {
      "inputs": [
        {
          "internalType": "string",
          "name": "id",
          "type": "string"
        }
      ],
      "name": "getRegistrar",
      "outputs": [
        {
          "components": [
            {
              "internalType": "string",
              "name": "name",
              "type": "string"
            },
            {
              "internalType": "string",
              "name": "userid",
              "type": "string"
            },
            {
              "internalType": "uint256",
              "name": "sd",
              "type": "uint256"
            },
            {
              "internalType": "uint256",
              "name": "td",
              "type": "uint256"
            },
            {
              "internalType": "uint256",
              "name": "rf",
              "type": "uint256"
            },
            {
              "internalType": "string",
              "name": "coordinates",
              "type": "string"
            },
            {
              "internalType": "address",
              "name": "metamaskaddress",
              "type": "address"
            }
          ],
          "internalType": "struct lands.Registrar",
          "name": "",
          "type": "tuple"
        }
      ],
      "stateMutability": "view",
      "type": "function",
      "constant": true
    },
    {
      "inputs": [],
      "name": "retrieve",
      "outputs": [
        {
          "components": [
            {
              "internalType": "string",
              "name": "name",
              "type": "string"
            },
            {
              "internalType": "string",
              "name": "userid",
              "type": "string"
            },
            {
              "internalType": "uint256",
              "name": "sd",
              "type": "uint256"
            },
            {
              "internalType": "uint256",
              "name": "td",
              "type": "uint256"
            },
            {
              "internalType": "uint256",
              "name": "rf",
              "type": "uint256"
            },
            {
              "internalType": "string",
              "name": "coordinates",
              "type": "string"
            },
            {
              "internalType": "address",
              "name": "metamaskaddress",
              "type": "address"
            }
          ],
          "internalType": "struct lands.Registrar[]",
          "name": "",
          "type": "tuple[]"
        }
      ],
      "stateMutability": "view",
      "type": "function",
      "constant": true
    },
    {
      "inputs": [
        {
          "internalType": "string",
          "name": "rd",
          "type": "string"
        },
        {
          "internalType": "string[]",
          "name": "ids",
          "type": "string[]"
        },
        {
          "internalType": "string[]",
          "name": "fullnames",
          "type": "string[]"
        },
        {
          "internalType": "string[]",
          "name": "addresses",
          "type": "string[]"
        },
        {
          "internalType": "address[]",
          "name": "metamask",
          "type": "address[]"
        },
        {
          "internalType": "string",
          "name": "det",
          "type": "string"
        },
        {
          "internalType": "string",
          "name": "coord",
          "type": "string"
        },
        {
          "internalType": "string",
          "name": "deed",
          "type": "string"
        }
      ],
      "name": "registerLand",
      "outputs": [],
      "stateMutability": "nonpayable",
      "type": "function"
    },
    {
      "inputs": [
        {
          "internalType": "string",
          "name": "id",
          "type": "string"
        }
      ],
      "name": "getOwnedLands",
      "outputs": [
        {
          "components": [
            {
              "internalType": "string",
              "name": "RDN",
              "type": "string"
            },
            {
              "internalType": "string[]",
              "name": "userids",
              "type": "string[]"
            },
            {
              "internalType": "string[]",
              "name": "names",
              "type": "string[]"
            },
            {
              "internalType": "string[]",
              "name": "home",
              "type": "string[]"
            },
            {
              "internalType": "address[]",
              "name": "metamaskaddress",
              "type": "address[]"
            },
            {
              "internalType": "string",
              "name": "details",
              "type": "string"
            },
            {
              "internalType": "string",
              "name": "coordinates",
              "type": "string"
            },
            {
              "internalType": "string",
              "name": "saledeed",
              "type": "string"
            },
            {
              "internalType": "string",
              "name": "verified",
              "type": "string"
            },
            {
              "internalType": "bool",
              "name": "pendingTransfer",
              "type": "bool"
            },
            {
              "internalType": "string[]",
              "name": "new_userids",
              "type": "string[]"
            },
            {
              "internalType": "string[]",
              "name": "new_names",
              "type": "string[]"
            },
            {
              "internalType": "string[]",
              "name": "new_home",
              "type": "string[]"
            },
            {
              "internalType": "address[]",
              "name": "new_metamaskaddress",
              "type": "address[]"
            },
            {
              "internalType": "string",
              "name": "new_saledeed",
              "type": "string"
            },
            {
              "internalType": "uint256",
              "name": "fee",
              "type": "uint256"
            }
          ],
          "internalType": "struct lands.Land[]",
          "name": "",
          "type": "tuple[]"
        }
      ],
      "stateMutability": "nonpayable",
      "type": "function"
    },
    {
      "inputs": [
        {
          "internalType": "string",
          "name": "rd",
          "type": "string"
        },
        {
          "internalType": "string[]",
          "name": "ids",
          "type": "string[]"
        },
        {
          "internalType": "string[]",
          "name": "fullnames",
          "type": "string[]"
        },
        {
          "internalType": "string[]",
          "name": "addresses",
          "type": "string[]"
        },
        {
          "internalType": "address[]",
          "name": "metamask",
          "type": "address[]"
        },
        {
          "internalType": "string",
          "name": "deed",
          "type": "string"
        },
        {
          "internalType": "uint256",
          "name": "f",
          "type": "uint256"
        }
      ],
      "name": "transferLand",
      "outputs": [],
      "stateMutability": "payable",
      "type": "function",
      "payable": true
    },
    {
      "inputs": [],
      "name": "retrieveCoordinates",
      "outputs": [
        {
          "internalType": "string[]",
          "name": "",
          "type": "string[]"
        }
      ],
      "stateMutability": "view",
      "type": "function",
      "constant": true
    },
    {
      "inputs": [],
      "name": "unverifiedLands",
      "outputs": [
        {
          "components": [
            {
              "internalType": "string",
              "name": "RDN",
              "type": "string"
            },
            {
              "internalType": "string[]",
              "name": "userids",
              "type": "string[]"
            },
            {
              "internalType": "string[]",
              "name": "names",
              "type": "string[]"
            },
            {
              "internalType": "string[]",
              "name": "home",
              "type": "string[]"
            },
            {
              "internalType": "address[]",
              "name": "metamaskaddress",
              "type": "address[]"
            },
            {
              "internalType": "string",
              "name": "details",
              "type": "string"
            },
            {
              "internalType": "string",
              "name": "coordinates",
              "type": "string"
            },
            {
              "internalType": "string",
              "name": "saledeed",
              "type": "string"
            },
            {
              "internalType": "string",
              "name": "verified",
              "type": "string"
            },
            {
              "internalType": "bool",
              "name": "pendingTransfer",
              "type": "bool"
            },
            {
              "internalType": "string[]",
              "name": "new_userids",
              "type": "string[]"
            },
            {
              "internalType": "string[]",
              "name": "new_names",
              "type": "string[]"
            },
            {
              "internalType": "string[]",
              "name": "new_home",
              "type": "string[]"
            },
            {
              "internalType": "address[]",
              "name": "new_metamaskaddress",
              "type": "address[]"
            },
            {
              "internalType": "string",
              "name": "new_saledeed",
              "type": "string"
            },
            {
              "internalType": "uint256",
              "name": "fee",
              "type": "uint256"
            }
          ],
          "internalType": "struct lands.Land[]",
          "name": "",
          "type": "tuple[]"
        }
      ],
      "stateMutability": "nonpayable",
      "type": "function"
    },
    {
      "inputs": [
        {
          "internalType": "string",
          "name": "rd",
          "type": "string"
        },
        {
          "internalType": "string",
          "name": "status",
          "type": "string"
        }
      ],
      "name": "verifyRegistration",
      "outputs": [],
      "stateMutability": "nonpayable",
      "type": "function"
    },
    {
      "inputs": [
        {
          "internalType": "string",
          "name": "rd",
          "type": "string"
        },
        {
          "internalType": "string",
          "name": "status",
          "type": "string"
        }
      ],
      "name": "verifyTransfer",
      "outputs": [],
      "stateMutability": "nonpayable",
      "type": "function"
    }
  ],
  "bytecode": "0x608060405234801561001057600080fd5b50615a5e80620000216000396000f3fe6080604052600436106100ab5760003560e01c80639d0e5774116100645780639d0e5774146101c4578063beadf0f6146101ed578063c22fbe4114610216578063c857535e14610253578063e1ba3fcd1461027e578063f83aea4b146102a7576100b2565b806312065fe0146100b4578063285c5afa146100df5780632e64cec1146101085780634af7dc69146101335780636b0d70a31461015c578063979c365e14610199576100b2565b366100b257005b005b3480156100c057600080fd5b506100c96102c3565b6040516100d691906154f0565b60405180910390f35b3480156100eb57600080fd5b5061010660048036038101906101019190614b0e565b6102cb565b005b34801561011457600080fd5b5061011d610540565b60405161012a919061544c565b60405180910390f35b34801561013f57600080fd5b5061015a600480360381019061015591906147b6565b6107c9565b005b34801561016857600080fd5b50610183600480360381019061017e919061476d565b610d69565b604051610190919061542a565b60405180910390f35b3480156101a557600080fd5b506101ae611af5565b6040516101bb9190615408565b60405180910390f35b3480156101d057600080fd5b506101eb60048036038101906101e69190614a96565b611bce565b005b3480156101f957600080fd5b50610214600480360381019061020f9190614c04565b6122f2565b005b34801561022257600080fd5b5061023d6004803603810190610238919061476d565b6124c7565b60405161024a91906154ce565b60405180910390f35b34801561025f57600080fd5b50610268612821565b604051610275919061542a565b60405180910390f35b34801561028a57600080fd5b506102a560048036038101906102a09190614a96565b6135eb565b005b6102c160048036038101906102bc919061494c565b6139f2565b005b600047905090565b86600160000190805190602001906102e4929190613e4f565b50856001800190805190602001906102fd929190613e4f565b508460016002018190555083600160030181905550826001600401819055508160016005019080519060200190610335929190613e4f565b5080600160060160006101000a81548173ffffffffffffffffffffffffffffffffffffffff021916908373ffffffffffffffffffffffffffffffffffffffff16021790555060006001908060018154018082558091505060019003906000526020600020906007020160009091909190915060008201816000019080546103bb906157ea565b6103c6929190613ed5565b5060018201816001019080546103db906157ea565b6103e6929190613ed5565b506002820154816002015560038201548160030155600482015481600401556005820181600501908054610419906157ea565b610424929190613ed5565b506006820160009054906101000a900473ffffffffffffffffffffffffffffffffffffffff168160060160006101000a81548173ffffffffffffffffffffffffffffffffffffffff021916908373ffffffffffffffffffffffffffffffffffffffff16021790555050506001600080820160006104a19190613f62565b6001820160006104b19190613f62565b6002820160009055600382016000905560048201600090556005820160006104d99190613f62565b6006820160006101000a81549073ffffffffffffffffffffffffffffffffffffffff021916905550507fd87b720c92a3aefe44e84061ca20642f974182725a657bcfedba3bdc8c63dada60405161052f9061548e565b60405180910390a150505050505050565b60606000805480602002602001604051908101604052809291908181526020016000905b828210156107c057838290600052602060002090600702016040518060e0016040529081600082018054610597906157ea565b80601f01602080910402602001604051908101604052809291908181526020018280546105c3906157ea565b80156106105780601f106105e557610100808354040283529160200191610610565b820191906000526020600020905b8154815290600101906020018083116105f357829003601f168201915b50505050508152602001600182018054610629906157ea565b80601f0160208091040260200160405190810160405280929190818152602001828054610655906157ea565b80156106a25780601f10610677576101008083540402835291602001916106a2565b820191906000526020600020905b81548152906001019060200180831161068557829003601f168201915b505050505081526020016002820154815260200160038201548152602001600482015481526020016005820180546106d9906157ea565b80601f0160208091040260200160405190810160405280929190818152602001828054610705906157ea565b80156107525780601f1061072757610100808354040283529160200191610752565b820191906000526020600020905b81548152906001019060200180831161073557829003601f168201915b505050505081526020016006820160009054906101000a900473ffffffffffffffffffffffffffffffffffffffff1673ffffffffffffffffffffffffffffffffffffffff1673ffffffffffffffffffffffffffffffffffffffff168152505081526020019060010190610564565b50505050905090565b6107d1613fa2565b60006001905060005b600a805490508110156108b857610897600a82815481106107fe576107fd6158f4565b5b906000526020600020018054610813906157ea565b80601f016020809104026020016040519081016040528092919081815260200182805461083f906157ea565b801561088c5780601f106108615761010080835404028352916020019161088c565b820191906000526020600020905b81548152906001019060200180831161086f57829003601f168201915b50505050508c613df6565b156108a557600091506108b8565b80806108b09061584d565b9150506107da565b506000600a80549050146108cb57600190505b8061090c577f551aadabbd6f1d308f07f6b256f00bb0f05fc8d2c686cb21092bd1b25718fae26040516108fd9061546e565b60405180910390a15050610d5f565b898260000181905250888260200181905250878260400181905250868260600181905250858260800181905250838260c00181905250600b8490806001815401808255809150506001900390600052602060002001600090919091909150908051906020019061097d929190613e4f565b50848260a00181905250828260e001819052506040518060400160405280600381526020017f59455400000000000000000000000000000000000000000000000000000000008152508261010001819052508160088b6040516109e091906153c5565b90815260200160405180910390206000820151816000019080519060200190610a0a929190613e4f565b506020820151816001019080519060200190610a27929190614021565b506040820151816002019080519060200190610a44929190614021565b506060820151816003019080519060200190610a61929190614021565b506080820151816004019080519060200190610a7e929190614081565b5060a0820151816005019080519060200190610a9b929190613e4f565b5060c0820151816006019080519060200190610ab8929190613e4f565b5060e0820151816007019080519060200190610ad5929190613e4f565b50610100820151816008019080519060200190610af3929190613e4f565b506101208201518160090160006101000a81548160ff02191690831515021790555061014082015181600a019080519060200190610b32929190614021565b5061016082015181600b019080519060200190610b50929190614021565b5061018082015181600c019080519060200190610b6e929190614021565b506101a082015181600d019080519060200190610b8c929190614081565b506101c082015181600e019080519060200190610baa929190613e4f565b506101e082015181600f0155905050600a8a908060018154018082558091505060019003906000526020600020016000909190919091509080519060200190610bf4929190613e4f565b5060005b8951811015610d2657600060098b8381518110610c1857610c176158f4565b5b6020026020010151604051610c2d91906153c5565b9081526020016040518091039020805490501415610ca05760405180602001604052808c81525060098b8381518110610c6957610c686158f4565b5b6020026020010151604051610c7e91906153c5565b9081526020016040518091039020906001610c9a92919061410b565b50610d13565b60098a8281518110610cb557610cb46158f4565b5b6020026020010151604051610cca91906153c5565b90815260200160405180910390208b908060018154018082558091505060019003906000526020600020016000909190919091509080519060200190610d11929190613e4f565b505b8080610d1e9061584d565b915050610bf8565b507f551aadabbd6f1d308f07f6b256f00bb0f05fc8d2c686cb21092bd1b25718fae2604051610d549061548e565b60405180910390a150505b5050505050505050565b6060600c6000610d79919061416b565b60005b600983604051610d8c91906153c5565b9081526020016040518091039020805490508110156110d157610e80600984604051610db891906153c5565b90815260200160405180910390208281548110610dd857610dd76158f4565b5b906000526020600020018054610ded906157ea565b80601f0160208091040260200160405190810160405280929190818152602001828054610e19906157ea565b8015610e665780601f10610e3b57610100808354040283529160200191610e66565b820191906000526020600020905b815481529060010190602001808311610e4957829003601f168201915b505050505060405180602001604052806000815250613df6565b15610e8a576110be565b600c6008600985604051610e9e91906153c5565b90815260200160405180910390208381548110610ebe57610ebd6158f4565b5b90600052602060002001604051610ed591906153dc565b908152602001604051809103902090806001815401808255809150506001900390600052602060002090601002016000909190919091506000820181600001908054610f20906157ea565b610f2b929190613ed5565b506001820181600101908054610f4292919061418f565b506002820181600201908054610f5992919061418f565b506003820181600301908054610f7092919061418f565b506004820181600401908054610f879291906141f7565b506005820181600501908054610f9c906157ea565b610fa7929190613ed5565b506006820181600601908054610fbc906157ea565b610fc7929190613ed5565b506007820181600701908054610fdc906157ea565b610fe7929190613ed5565b506008820181600801908054610ffc906157ea565b611007929190613ed5565b506009820160009054906101000a900460ff168160090160006101000a81548160ff021916908315150217905550600a820181600a0190805461104b92919061418f565b50600b820181600b0190805461106292919061418f565b50600c820181600c0190805461107992919061418f565b50600d820181600d019080546110909291906141f7565b50600e820181600e019080546110a5906157ea565b6110b0929190613ed5565b50600f82015481600f015550505b80806110c99061584d565b915050610d7c565b50600c805480602002602001604051908101604052809291908181526020016000905b82821015611aea578382906000526020600020906010020160405180610200016040529081600082018054611128906157ea565b80601f0160208091040260200160405190810160405280929190818152602001828054611154906157ea565b80156111a15780601f10611176576101008083540402835291602001916111a1565b820191906000526020600020905b81548152906001019060200180831161118457829003601f168201915b5050505050815260200160018201805480602002602001604051908101604052809291908181526020016000905b8282101561127b5783829060005260206000200180546111ee906157ea565b80601f016020809104026020016040519081016040528092919081815260200182805461121a906157ea565b80156112675780601f1061123c57610100808354040283529160200191611267565b820191906000526020600020905b81548152906001019060200180831161124a57829003601f168201915b5050505050815260200190600101906111cf565b50505050815260200160028201805480602002602001604051908101604052809291908181526020016000905b828210156113545783829060005260206000200180546112c7906157ea565b80601f01602080910402602001604051908101604052809291908181526020018280546112f3906157ea565b80156113405780601f1061131557610100808354040283529160200191611340565b820191906000526020600020905b81548152906001019060200180831161132357829003601f168201915b5050505050815260200190600101906112a8565b50505050815260200160038201805480602002602001604051908101604052809291908181526020016000905b8282101561142d5783829060005260206000200180546113a0906157ea565b80601f01602080910402602001604051908101604052809291908181526020018280546113cc906157ea565b80156114195780601f106113ee57610100808354040283529160200191611419565b820191906000526020600020905b8154815290600101906020018083116113fc57829003601f168201915b505050505081526020019060010190611381565b505050508152602001600482018054806020026020016040519081016040528092919081815260200182805480156114ba57602002820191906000526020600020905b8160009054906101000a900473ffffffffffffffffffffffffffffffffffffffff1673ffffffffffffffffffffffffffffffffffffffff1681526020019060010190808311611470575b505050505081526020016005820180546114d3906157ea565b80601f01602080910402602001604051908101604052809291908181526020018280546114ff906157ea565b801561154c5780601f106115215761010080835404028352916020019161154c565b820191906000526020600020905b81548152906001019060200180831161152f57829003601f168201915b50505050508152602001600682018054611565906157ea565b80601f0160208091040260200160405190810160405280929190818152602001828054611591906157ea565b80156115de5780601f106115b3576101008083540402835291602001916115de565b820191906000526020600020905b8154815290600101906020018083116115c157829003601f168201915b505050505081526020016007820180546115f7906157ea565b80601f0160208091040260200160405190810160405280929190818152602001828054611623906157ea565b80156116705780601f1061164557610100808354040283529160200191611670565b820191906000526020600020905b81548152906001019060200180831161165357829003601f168201915b50505050508152602001600882018054611689906157ea565b80601f01602080910402602001604051908101604052809291908181526020018280546116b5906157ea565b80156117025780601f106116d757610100808354040283529160200191611702565b820191906000526020600020905b8154815290600101906020018083116116e557829003601f168201915b505050505081526020016009820160009054906101000a900460ff16151515158152602001600a8201805480602002602001604051908101604052809291908181526020016000905b828210156117f757838290600052602060002001805461176a906157ea565b80601f0160208091040260200160405190810160405280929190818152602001828054611796906157ea565b80156117e35780601f106117b8576101008083540402835291602001916117e3565b820191906000526020600020905b8154815290600101906020018083116117c657829003601f168201915b50505050508152602001906001019061174b565b505050508152602001600b8201805480602002602001604051908101604052809291908181526020016000905b828210156118d0578382906000526020600020018054611843906157ea565b80601f016020809104026020016040519081016040528092919081815260200182805461186f906157ea565b80156118bc5780601f10611891576101008083540402835291602001916118bc565b820191906000526020600020905b81548152906001019060200180831161189f57829003601f168201915b505050505081526020019060010190611824565b505050508152602001600c8201805480602002602001604051908101604052809291908181526020016000905b828210156119a957838290600052602060002001805461191c906157ea565b80601f0160208091040260200160405190810160405280929190818152602001828054611948906157ea565b80156119955780601f1061196a57610100808354040283529160200191611995565b820191906000526020600020905b81548152906001019060200180831161197857829003601f168201915b5050505050815260200190600101906118fd565b505050508152602001600d8201805480602002602001604051908101604052809291908181526020018280548015611a3657602002820191906000526020600020905b8160009054906101000a900473ffffffffffffffffffffffffffffffffffffffff1673ffffffffffffffffffffffffffffffffffffffff16815260200190600101908083116119ec575b50505050508152602001600e82018054611a4f906157ea565b80601f0160208091040260200160405190810160405280929190818152602001828054611a7b906157ea565b8015611ac85780601f10611a9d57610100808354040283529160200191611ac8565b820191906000526020600020905b815481529060010190602001808311611aab57829003601f168201915b50505050508152602001600f82015481525050815260200190600101906110f4565b505050509050919050565b6060600b805480602002602001604051908101604052809291908181526020016000905b82821015611bc5578382906000526020600020018054611b38906157ea565b80601f0160208091040260200160405190810160405280929190818152602001828054611b64906157ea565b8015611bb15780601f10611b8657610100808354040283529160200191611bb1565b820191906000526020600020905b815481529060010190602001808311611b9457829003601f168201915b505050505081526020019060010190611b19565b50505050905090565b6000600883604051611be091906153c5565b908152602001604051809103902060090160006101000a81548160ff021916908315150217905550611c47816040518060400160405280600381526020017f5945530000000000000000000000000000000000000000000000000000000000815250613df6565b156122ee5760003373ffffffffffffffffffffffffffffffffffffffff16670de0b6b3a7640000600885604051611c7e91906153c5565b9081526020016040518091039020600f0154611c9a9190615706565b604051611ca6906153f3565b60006040518083038185875af1925050503d8060008114611ce3576040519150601f19603f3d011682016040523d82523d6000602084013e611ce8565b606091505b5050905080611d2c576040517f08c379a0000000000000000000000000000000000000000000000000000000008152600401611d23906154ae565b60405180910390fd5b60005b600884604051611d3f91906153c5565b9081526020016040518091039020600a0180549050811015611ee65760006009600886604051611d6f91906153c5565b9081526020016040518091039020600a018381548110611d9257611d916158f4565b5b90600052602060002001604051611da991906153dc565b9081526020016040518091039020805490501415611e3e576040518060200160405280858152506009600886604051611de291906153c5565b9081526020016040518091039020600a018381548110611e0557611e046158f4565b5b90600052602060002001604051611e1c91906153dc565b9081526020016040518091039020906001611e3892919061410b565b50611ed3565b6009600885604051611e5091906153c5565b9081526020016040518091039020600a018281548110611e7357611e726158f4565b5b90600052602060002001604051611e8a91906153dc565b908152602001604051809103902084908060018154018082558091505060019003906000526020600020016000909190919091509080519060200190611ed1929190613e4f565b505b8080611ede9061584d565b915050611d2f565b5060005b600884604051611efa91906153c5565b90815260200160405180910390206001018054905081101561214d5760005b6009600886604051611f2b91906153c5565b90815260200160405180910390206001018381548110611f4e57611f4d6158f4565b5b90600052602060002001604051611f6591906153dc565b908152602001604051809103902080549050811015612139576120866009600887604051611f9391906153c5565b90815260200160405180910390206001018481548110611fb657611fb56158f4565b5b90600052602060002001604051611fcd91906153dc565b90815260200160405180910390208281548110611fed57611fec6158f4565b5b906000526020600020018054612002906157ea565b80601f016020809104026020016040519081016040528092919081815260200182805461202e906157ea565b801561207b5780601f106120505761010080835404028352916020019161207b565b820191906000526020600020905b81548152906001019060200180831161205e57829003601f168201915b505050505086613df6565b15612126576040518060200160405280600081525060096008876040516120ad91906153c5565b908152602001604051809103902060010184815481106120d0576120cf6158f4565b5b906000526020600020016040516120e791906153dc565b90815260200160405180910390208281548110612107576121066158f4565b5b906000526020600020019080519060200190612124929190613e4f565b505b80806121319061584d565b915050611f19565b5080806121459061584d565b915050611eea565b5060088360405161215e91906153c5565b9081526020016040518091039020600a0160088460405161217f91906153c5565b908152602001604051809103902060010190805461219e929190614249565b506008836040516121af91906153c5565b9081526020016040518091039020600b016008846040516121d091906153c5565b90815260200160405180910390206002019080546121ef929190614249565b5060088360405161220091906153c5565b9081526020016040518091039020600c0160088460405161222191906153c5565b9081526020016040518091039020600301908054612240929190614249565b5060088360405161225191906153c5565b9081526020016040518091039020600d0160088460405161227291906153c5565b90815260200160405180910390206004019080546122919291906142b1565b506008836040516122a291906153c5565b9081526020016040518091039020600e016008846040516122c391906153c5565b90815260200160405180910390206007019080546122e0906157ea565b6122eb929190614303565b50505b5050565b60005b60008054905081101561248a576123b960008281548110612319576123186158f4565b5b90600052602060002090600702016001018054612335906157ea565b80601f0160208091040260200160405190810160405280929190818152602001828054612361906157ea565b80156123ae5780601f10612383576101008083540402835291602001916123ae565b820191906000526020600020905b81548152906001019060200180831161239157829003601f168201915b505050505086613df6565b156124775783600082815481106123d3576123d26158f4565b5b90600052602060002090600702016002018190555082600082815481106123fd576123fc6158f4565b5b9060005260206000209060070201600301819055508160008281548110612427576124266158f4565b5b9060005260206000209060070201600401819055507fd87b720c92a3aefe44e84061ca20642f974182725a657bcfedba3bdc8c63dada6040516124699061548e565b60405180910390a1506124c1565b80806124829061584d565b9150506122f5565b507fd87b720c92a3aefe44e84061ca20642f974182725a657bcfedba3bdc8c63dada6040516124b89061546e565b60405180910390a15b50505050565b6124cf614390565b6124d7614390565b60005b6000805490508110156128165761259e600082815481106124fe576124fd6158f4565b5b9060005260206000209060070201600101805461251a906157ea565b80601f0160208091040260200160405190810160405280929190818152602001828054612546906157ea565b80156125935780601f1061256857610100808354040283529160200191612593565b820191906000526020600020905b81548152906001019060200180831161257657829003601f168201915b505050505085613df6565b1561280357600081815481106125b7576125b66158f4565b5b90600052602060002090600702016040518060e00160405290816000820180546125e0906157ea565b80601f016020809104026020016040519081016040528092919081815260200182805461260c906157ea565b80156126595780601f1061262e57610100808354040283529160200191612659565b820191906000526020600020905b81548152906001019060200180831161263c57829003601f168201915b50505050508152602001600182018054612672906157ea565b80601f016020809104026020016040519081016040528092919081815260200182805461269e906157ea565b80156126eb5780601f106126c0576101008083540402835291602001916126eb565b820191906000526020600020905b8154815290600101906020018083116126ce57829003601f168201915b50505050508152602001600282015481526020016003820154815260200160048201548152602001600582018054612722906157ea565b80601f016020809104026020016040519081016040528092919081815260200182805461274e906157ea565b801561279b5780601f106127705761010080835404028352916020019161279b565b820191906000526020600020905b81548152906001019060200180831161277e57829003601f168201915b505050505081526020016006820160009054906101000a900473ffffffffffffffffffffffffffffffffffffffff1673ffffffffffffffffffffffffffffffffffffffff1673ffffffffffffffffffffffffffffffffffffffff16815250509250505061281c565b808061280e9061584d565b9150506124da565b50809150505b919050565b6060600d6000612831919061416b565b60005b600a80549050811015612bc9576129466008600a838154811061285a576128596158f4565b5b9060005260206000200160405161287191906153dc565b9081526020016040518091039020600801805461288d906157ea565b80601f01602080910402602001604051908101604052809291908181526020018280546128b9906157ea565b80156129065780601f106128db57610100808354040283529160200191612906565b820191906000526020600020905b8154815290600101906020018083116128e957829003601f168201915b50505050506040518060400160405280600381526020017f5945540000000000000000000000000000000000000000000000000000000000815250613df6565b8061299957506008600a8281548110612962576129616158f4565b5b9060005260206000200160405161297991906153dc565b908152602001604051809103902060090160009054906101000a900460ff165b15612bb657600d6008600a83815481106129b6576129b56158f4565b5b906000526020600020016040516129cd91906153dc565b908152602001604051809103902090806001815401808255809150506001900390600052602060002090601002016000909190919091506000820181600001908054612a18906157ea565b612a23929190613ed5565b506001820181600101908054612a3a92919061418f565b506002820181600201908054612a5192919061418f565b506003820181600301908054612a6892919061418f565b506004820181600401908054612a7f9291906141f7565b506005820181600501908054612a94906157ea565b612a9f929190613ed5565b506006820181600601908054612ab4906157ea565b612abf929190613ed5565b506007820181600701908054612ad4906157ea565b612adf929190613ed5565b506008820181600801908054612af4906157ea565b612aff929190613ed5565b506009820160009054906101000a900460ff168160090160006101000a81548160ff021916908315150217905550600a820181600a01908054612b4392919061418f565b50600b820181600b01908054612b5a92919061418f565b50600c820181600c01908054612b7192919061418f565b50600d820181600d01908054612b889291906141f7565b50600e820181600e01908054612b9d906157ea565b612ba8929190613ed5565b50600f82015481600f015550505b8080612bc19061584d565b915050612834565b50600d805480602002602001604051908101604052809291908181526020016000905b828210156135e2578382906000526020600020906010020160405180610200016040529081600082018054612c20906157ea565b80601f0160208091040260200160405190810160405280929190818152602001828054612c4c906157ea565b8015612c995780601f10612c6e57610100808354040283529160200191612c99565b820191906000526020600020905b815481529060010190602001808311612c7c57829003601f168201915b5050505050815260200160018201805480602002602001604051908101604052809291908181526020016000905b82821015612d73578382906000526020600020018054612ce6906157ea565b80601f0160208091040260200160405190810160405280929190818152602001828054612d12906157ea565b8015612d5f5780601f10612d3457610100808354040283529160200191612d5f565b820191906000526020600020905b815481529060010190602001808311612d4257829003601f168201915b505050505081526020019060010190612cc7565b50505050815260200160028201805480602002602001604051908101604052809291908181526020016000905b82821015612e4c578382906000526020600020018054612dbf906157ea565b80601f0160208091040260200160405190810160405280929190818152602001828054612deb906157ea565b8015612e385780601f10612e0d57610100808354040283529160200191612e38565b820191906000526020600020905b815481529060010190602001808311612e1b57829003601f168201915b505050505081526020019060010190612da0565b50505050815260200160038201805480602002602001604051908101604052809291908181526020016000905b82821015612f25578382906000526020600020018054612e98906157ea565b80601f0160208091040260200160405190810160405280929190818152602001828054612ec4906157ea565b8015612f115780601f10612ee657610100808354040283529160200191612f11565b820191906000526020600020905b815481529060010190602001808311612ef457829003601f168201915b505050505081526020019060010190612e79565b50505050815260200160048201805480602002602001604051908101604052809291908181526020018280548015612fb257602002820191906000526020600020905b8160009054906101000a900473ffffffffffffffffffffffffffffffffffffffff1673ffffffffffffffffffffffffffffffffffffffff1681526020019060010190808311612f68575b50505050508152602001600582018054612fcb906157ea565b80601f0160208091040260200160405190810160405280929190818152602001828054612ff7906157ea565b80156130445780601f1061301957610100808354040283529160200191613044565b820191906000526020600020905b81548152906001019060200180831161302757829003601f168201915b5050505050815260200160068201805461305d906157ea565b80601f0160208091040260200160405190810160405280929190818152602001828054613089906157ea565b80156130d65780601f106130ab576101008083540402835291602001916130d6565b820191906000526020600020905b8154815290600101906020018083116130b957829003601f168201915b505050505081526020016007820180546130ef906157ea565b80601f016020809104026020016040519081016040528092919081815260200182805461311b906157ea565b80156131685780601f1061313d57610100808354040283529160200191613168565b820191906000526020600020905b81548152906001019060200180831161314b57829003601f168201915b50505050508152602001600882018054613181906157ea565b80601f01602080910402602001604051908101604052809291908181526020018280546131ad906157ea565b80156131fa5780601f106131cf576101008083540402835291602001916131fa565b820191906000526020600020905b8154815290600101906020018083116131dd57829003601f168201915b505050505081526020016009820160009054906101000a900460ff16151515158152602001600a8201805480602002602001604051908101604052809291908181526020016000905b828210156132ef578382906000526020600020018054613262906157ea565b80601f016020809104026020016040519081016040528092919081815260200182805461328e906157ea565b80156132db5780601f106132b0576101008083540402835291602001916132db565b820191906000526020600020905b8154815290600101906020018083116132be57829003601f168201915b505050505081526020019060010190613243565b505050508152602001600b8201805480602002602001604051908101604052809291908181526020016000905b828210156133c857838290600052602060002001805461333b906157ea565b80601f0160208091040260200160405190810160405280929190818152602001828054613367906157ea565b80156133b45780601f10613389576101008083540402835291602001916133b4565b820191906000526020600020905b81548152906001019060200180831161339757829003601f168201915b50505050508152602001906001019061331c565b505050508152602001600c8201805480602002602001604051908101604052809291908181526020016000905b828210156134a1578382906000526020600020018054613414906157ea565b80601f0160208091040260200160405190810160405280929190818152602001828054613440906157ea565b801561348d5780601f106134625761010080835404028352916020019161348d565b820191906000526020600020905b81548152906001019060200180831161347057829003601f168201915b5050505050815260200190600101906133f5565b505050508152602001600d820180548060200260200160405190810160405280929190818152602001828054801561352e57602002820191906000526020600020905b8160009054906101000a900473ffffffffffffffffffffffffffffffffffffffff1673ffffffffffffffffffffffffffffffffffffffff16815260200190600101908083116134e4575b50505050508152602001600e82018054613547906157ea565b80601f0160208091040260200160405190810160405280929190818152602001828054613573906157ea565b80156135c05780601f10613595576101008083540402835291602001916135c0565b820191906000526020600020905b8154815290600101906020018083116135a357829003601f168201915b50505050508152602001600f8201548152505081526020019060010190612bec565b50505050905090565b806008836040516135fc91906153c5565b90815260200160405180910390206008019080519060200190613620929190613e4f565b50613660816040518060400160405280600481526020017f4e4f504500000000000000000000000000000000000000000000000000000000815250613df6565b156139ee5760005b60088360405161367891906153c5565b9081526020016040518091039020600101805490508110156138cf5760005b60096008856040516136a991906153c5565b908152602001604051809103902060010183815481106136cc576136cb6158f4565b5b906000526020600020016040516136e391906153dc565b9081526020016040518091039020805490508110156138bb57613804600960088660405161371191906153c5565b90815260200160405180910390206001018481548110613734576137336158f4565b5b9060005260206000200160405161374b91906153dc565b9081526020016040518091039020828154811061376b5761376a6158f4565b5b906000526020600020018054613780906157ea565b80601f01602080910402602001604051908101604052809291908181526020018280546137ac906157ea565b80156137f95780601f106137ce576101008083540402835291602001916137f9565b820191906000526020600020905b8154815290600101906020018083116137dc57829003601f168201915b505050505085613df6565b156138a85760405180602001604052806000815250600960088660405161382b91906153c5565b9081526020016040518091039020600101848154811061384e5761384d6158f4565b5b9060005260206000200160405161386591906153dc565b90815260200160405180910390208281548110613885576138846158f4565b5b9060005260206000200190805190602001906138a2929190613e4f565b506138bb565b80806138b39061584d565b915050613697565b5080806138c79061584d565b915050613668565b506008826040516138e091906153c5565b9081526020016040518091039020600080820160006138ff9190613f62565b60018201600061390f91906143e3565b60028201600061391f91906143e3565b60038201600061392f91906143e3565b60048201600061393f9190614404565b60058201600061394f9190613f62565b60068201600061395f9190613f62565b60078201600061396f9190613f62565b60088201600061397f9190613f62565b6009820160006101000a81549060ff0219169055600a820160006139a391906143e3565b600b820160006139b391906143e3565b600c820160006139c391906143e3565b600d820160006139d39190614404565b600e820160006139e39190613f62565b600f82016000905550505b5050565b600080600a805490501480613aeb5750613aea600889604051613a1591906153c5565b90815260200160405180910390206008018054613a31906157ea565b80601f0160208091040260200160405190810160405280929190818152602001828054613a5d906157ea565b8015613aaa5780601f10613a7f57610100808354040283529160200191613aaa565b820191906000526020600020905b815481529060010190602001808311613a8d57829003601f168201915b50505050506040518060400160405280600381526020017f5945540000000000000000000000000000000000000000000000000000000000815250613df6565b5b15613b2b577f68c24ae8ffa9d745cad1cd140e26a56afa52a8b5b00337abc5c47287013b5e82604051613b1d9061546e565b60405180910390a150613ded565b60005b600889604051613b3e91906153c5565b908152602001604051809103902060040180549050811015613c07573373ffffffffffffffffffffffffffffffffffffffff1660088a604051613b8191906153c5565b90815260200160405180910390206004018281548110613ba457613ba36158f4565b5b9060005260206000200160009054906101000a900473ffffffffffffffffffffffffffffffffffffffff1673ffffffffffffffffffffffffffffffffffffffff161415613bf45760019150613c07565b8080613bff9061584d565b915050613b2e565b5080613c48577f68c24ae8ffa9d745cad1cd140e26a56afa52a8b5b00337abc5c47287013b5e82604051613c3a9061546e565b60405180910390a150613ded565b6001600889604051613c5a91906153c5565b908152602001604051809103902060090160006101000a81548160ff02191690831515021790555086600889604051613c9391906153c5565b9081526020016040518091039020600a019080519060200190613cb7929190614021565b5085600889604051613cc991906153c5565b9081526020016040518091039020600b019080519060200190613ced929190614021565b5084600889604051613cff91906153c5565b9081526020016040518091039020600c019080519060200190613d23929190614021565b5083600889604051613d3591906153c5565b9081526020016040518091039020600d019080519060200190613d59929190614081565b5082600889604051613d6b91906153c5565b9081526020016040518091039020600e019080519060200190613d8f929190613e4f565b5081600889604051613da191906153c5565b9081526020016040518091039020600f01819055507f68c24ae8ffa9d745cad1cd140e26a56afa52a8b5b00337abc5c47287013b5e82604051613de39061548e565b60405180910390a1505b50505050505050565b600081604051602001613e0991906153c5565b6040516020818303038152906040528051906020012083604051602001613e3091906153c5565b6040516020818303038152906040528051906020012014905092915050565b828054613e5b906157ea565b90600052602060002090601f016020900481019282613e7d5760008555613ec4565b82601f10613e9657805160ff1916838001178555613ec4565b82800160010185558215613ec4579182015b82811115613ec3578251825591602001919060010190613ea8565b5b509050613ed19190614425565b5090565b828054613ee1906157ea565b90600052602060002090601f016020900481019282613f035760008555613f51565b82601f10613f145780548555613f51565b82800160010185558215613f5157600052602060002091601f016020900482015b82811115613f50578254825591600101919060010190613f35565b5b509050613f5e9190614425565b5090565b508054613f6e906157ea565b6000825580601f10613f805750613f9f565b601f016020900490600052602060002090810190613f9e9190614425565b5b50565b6040518061020001604052806060815260200160608152602001606081526020016060815260200160608152602001606081526020016060815260200160608152602001606081526020016000151581526020016060815260200160608152602001606081526020016060815260200160608152602001600081525090565b828054828255906000526020600020908101928215614070579160200282015b8281111561406f57825182908051906020019061405f929190613e4f565b5091602001919060010190614041565b5b50905061407d9190614442565b5090565b8280548282559060005260206000209081019282156140fa579160200282015b828111156140f95782518260006101000a81548173ffffffffffffffffffffffffffffffffffffffff021916908373ffffffffffffffffffffffffffffffffffffffff160217905550916020019190600101906140a1565b5b5090506141079190614425565b5090565b82805482825590600052602060002090810192821561415a579160200282015b82811115614159578251829080519060200190614149929190613e4f565b509160200191906001019061412b565b5b5090506141679190614442565b5090565b508054600082556010029060005260206000209081019061418c9190614466565b50565b8280548282559060005260206000209081019282156141e65760005260206000209182015b828111156141e55782829080546141ca906157ea565b6141d5929190613ed5565b50916001019190600101906141b4565b5b5090506141f39190614442565b5090565b8280548282559060005260206000209081019282156142385760005260206000209182015b8281111561423757825482559160010191906001019061421c565b5b5090506142459190614425565b5090565b8280548282559060005260206000209081019282156142a05760005260206000209182015b8281111561429f578282908054614284906157ea565b61428f929190613ed5565b509160010191906001019061426e565b5b5090506142ad9190614442565b5090565b8280548282559060005260206000209081019282156142f25760005260206000209182015b828111156142f15782548255916001019190600101906142d6565b5b5090506142ff9190614425565b5090565b82805461430f906157ea565b90600052602060002090601f016020900481019282614331576000855561437f565b82601f10614342578054855561437f565b8280016001018555821561437f57600052602060002091601f016020900482015b8281111561437e578254825591600101919060010190614363565b5b50905061438c9190614425565b5090565b6040518060e00160405280606081526020016060815260200160008152602001600081526020016000815260200160608152602001600073ffffffffffffffffffffffffffffffffffffffff1681525090565b50805460008255906000526020600020908101906144019190614442565b50565b50805460008255906000526020600020908101906144229190614425565b50565b5b8082111561443e576000816000905550600101614426565b5090565b5b8082111561446257600081816144599190613f62565b50600101614443565b5090565b5b8082111561457557600080820160006144809190613f62565b60018201600061449091906143e3565b6002820160006144a091906143e3565b6003820160006144b091906143e3565b6004820160006144c09190614404565b6005820160006144d09190613f62565b6006820160006144e09190613f62565b6007820160006144f09190613f62565b6008820160006145009190613f62565b6009820160006101000a81549060ff0219169055600a8201600061452491906143e3565b600b8201600061453491906143e3565b600c8201600061454491906143e3565b600d820160006145549190614404565b600e820160006145649190613f62565b600f82016000905550601001614467565b5090565b600061458c61458784615530565b61550b565b905080838252602082019050828560208602820111156145af576145ae615957565b5b60005b858110156145df57816145c588826146b9565b8452602084019350602083019250506001810190506145b2565b5050509392505050565b60006145fc6145f78461555c565b61550b565b9050808382526020820190508285602086028201111561461f5761461e615957565b5b60005b8581101561466d57813567ffffffffffffffff81111561464557614644615952565b5b808601614652898261472a565b85526020850194506020840193505050600181019050614622565b5050509392505050565b600061468a61468584615588565b61550b565b9050828152602081018484840111156146a6576146a561595c565b5b6146b18482856157a8565b509392505050565b6000813590506146c8816159fa565b92915050565b600082601f8301126146e3576146e2615952565b5b81356146f3848260208601614579565b91505092915050565b600082601f83011261471157614710615952565b5b81356147218482602086016145e9565b91505092915050565b600082601f83011261473f5761473e615952565b5b813561474f848260208601614677565b91505092915050565b60008135905061476781615a11565b92915050565b60006020828403121561478357614782615966565b5b600082013567ffffffffffffffff8111156147a1576147a0615961565b5b6147ad8482850161472a565b91505092915050565b600080600080600080600080610100898b0312156147d7576147d6615966565b5b600089013567ffffffffffffffff8111156147f5576147f4615961565b5b6148018b828c0161472a565b985050602089013567ffffffffffffffff81111561482257614821615961565b5b61482e8b828c016146fc565b975050604089013567ffffffffffffffff81111561484f5761484e615961565b5b61485b8b828c016146fc565b965050606089013567ffffffffffffffff81111561487c5761487b615961565b5b6148888b828c016146fc565b955050608089013567ffffffffffffffff8111156148a9576148a8615961565b5b6148b58b828c016146ce565b94505060a089013567ffffffffffffffff8111156148d6576148d5615961565b5b6148e28b828c0161472a565b93505060c089013567ffffffffffffffff81111561490357614902615961565b5b61490f8b828c0161472a565b92505060e089013567ffffffffffffffff8111156149305761492f615961565b5b61493c8b828c0161472a565b9150509295985092959890939650565b600080600080600080600060e0888a03121561496b5761496a615966565b5b600088013567ffffffffffffffff81111561498957614988615961565b5b6149958a828b0161472a565b975050602088013567ffffffffffffffff8111156149b6576149b5615961565b5b6149c28a828b016146fc565b965050604088013567ffffffffffffffff8111156149e3576149e2615961565b5b6149ef8a828b016146fc565b955050606088013567ffffffffffffffff811115614a1057614a0f615961565b5b614a1c8a828b016146fc565b945050608088013567ffffffffffffffff811115614a3d57614a3c615961565b5b614a498a828b016146ce565b93505060a088013567ffffffffffffffff811115614a6a57614a69615961565b5b614a768a828b0161472a565b92505060c0614a878a828b01614758565b91505092959891949750929550565b60008060408385031215614aad57614aac615966565b5b600083013567ffffffffffffffff811115614acb57614aca615961565b5b614ad78582860161472a565b925050602083013567ffffffffffffffff811115614af857614af7615961565b5b614b048582860161472a565b9150509250929050565b600080600080600080600060e0888a031215614b2d57614b2c615966565b5b600088013567ffffffffffffffff811115614b4b57614b4a615961565b5b614b578a828b0161472a565b975050602088013567ffffffffffffffff811115614b7857614b77615961565b5b614b848a828b0161472a565b9650506040614b958a828b01614758565b9550506060614ba68a828b01614758565b9450506080614bb78a828b01614758565b93505060a088013567ffffffffffffffff811115614bd857614bd7615961565b5b614be48a828b0161472a565b92505060c0614bf58a828b016146b9565b91505092959891949750929550565b60008060008060808587031215614c1e57614c1d615966565b5b600085013567ffffffffffffffff811115614c3c57614c3b615961565b5b614c488782880161472a565b9450506020614c5987828801614758565b9350506040614c6a87828801614758565b9250506060614c7b87828801614758565b91505092959194509250565b6000614c938383614cdb565b60208301905092915050565b6000614cab8383614f2b565b905092915050565b6000614cbf83836150a0565b905092915050565b6000614cd38383615253565b905092915050565b614ce481615760565b82525050565b6000614cf58261560e565b614cff8185615679565b9350614d0a836155b9565b8060005b83811015614d3b578151614d228882614c87565b9750614d2d83615645565b925050600181019050614d0e565b5085935050505092915050565b6000614d5382615619565b614d5d818561568a565b935083602082028501614d6f856155c9565b8060005b85811015614dab5784840389528151614d8c8582614c9f565b9450614d9783615652565b925060208a01995050600181019050614d73565b50829750879550505050505092915050565b6000614dc882615619565b614dd2818561569b565b935083602082028501614de4856155c9565b8060005b85811015614e205784840389528151614e018582614c9f565b9450614e0c83615652565b925060208a01995050600181019050614de8565b50829750879550505050505092915050565b6000614e3d82615624565b614e4781856156ac565b935083602082028501614e59856155d9565b8060005b85811015614e955784840389528151614e768582614cb3565b9450614e818361565f565b925060208a01995050600181019050614e5d565b50829750879550505050505092915050565b6000614eb28261562f565b614ebc81856156bd565b935083602082028501614ece856155e9565b8060005b85811015614f0a5784840389528151614eeb8582614cc7565b9450614ef68361566c565b925060208a01995050600181019050614ed2565b50829750879550505050505092915050565b614f2581615772565b82525050565b6000614f368261563a565b614f4081856156d9565b9350614f508185602086016157b7565b614f598161596b565b840191505092915050565b6000614f6f8261563a565b614f7981856156fb565b9350614f898185602086016157b7565b80840191505092915050565b60008154614fa2816157ea565b614fac81866156fb565b94506001821660008114614fc75760018114614fd85761500b565b60ff1983168652818601935061500b565b614fe1856155f9565b60005b8381101561500357815481890152600182019150602081019050614fe4565b838801955050505b50505092915050565b60006150216002836156ea565b915061502c8261597c565b602082019050919050565b60006150446003836156ea565b915061504f826159a5565b602082019050919050565b60006150676000836156ce565b9150615072826159ce565b600082019050919050565b600061508a6012836156ea565b9150615095826159d1565b602082019050919050565b60006102008301600083015184820360008601526150be8282614f2b565b915050602083015184820360208601526150d88282614d48565b915050604083015184820360408601526150f28282614d48565b9150506060830151848203606086015261510c8282614d48565b915050608083015184820360808601526151268282614cea565b91505060a083015184820360a08601526151408282614f2b565b91505060c083015184820360c086015261515a8282614f2b565b91505060e083015184820360e08601526151748282614f2b565b9150506101008301518482036101008601526151908282614f2b565b9150506101208301516151a7610120860182614f1c565b506101408301518482036101408601526151c18282614d48565b9150506101608301518482036101608601526151dd8282614d48565b9150506101808301518482036101808601526151f98282614d48565b9150506101a08301518482036101a08601526152158282614cea565b9150506101c08301518482036101c08601526152318282614f2b565b9150506101e08301516152486101e08601826153a7565b508091505092915050565b600060e08301600083015184820360008601526152708282614f2b565b9150506020830151848203602086015261528a8282614f2b565b915050604083015161529f60408601826153a7565b5060608301516152b260608601826153a7565b5060808301516152c560808601826153a7565b5060a083015184820360a08601526152dd8282614f2b565b91505060c08301516152f260c0860182614cdb565b508091505092915050565b600060e083016000830151848203600086015261531a8282614f2b565b915050602083015184820360208601526153348282614f2b565b915050604083015161534960408601826153a7565b50606083015161535c60608601826153a7565b50608083015161536f60808601826153a7565b5060a083015184820360a08601526153878282614f2b565b91505060c083015161539c60c0860182614cdb565b508091505092915050565b6153b08161579e565b82525050565b6153bf8161579e565b82525050565b60006153d18284614f64565b915081905092915050565b60006153e88284614f95565b915081905092915050565b60006153fe8261505a565b9150819050919050565b600060208201905081810360008301526154228184614dbd565b905092915050565b600060208201905081810360008301526154448184614e32565b905092915050565b600060208201905081810360008301526154668184614ea7565b905092915050565b6000602082019050818103600083015261548781615014565b9050919050565b600060208201905081810360008301526154a781615037565b9050919050565b600060208201905081810360008301526154c78161507d565b9050919050565b600060208201905081810360008301526154e881846152fd565b905092915050565b600060208201905061550560008301846153b6565b92915050565b6000615515615526565b9050615521828261581c565b919050565b6000604051905090565b600067ffffffffffffffff82111561554b5761554a615923565b5b602082029050602081019050919050565b600067ffffffffffffffff82111561557757615576615923565b5b602082029050602081019050919050565b600067ffffffffffffffff8211156155a3576155a2615923565b5b6155ac8261596b565b9050602081019050919050565b6000819050602082019050919050565b6000819050602082019050919050565b6000819050602082019050919050565b6000819050602082019050919050565b60008190508160005260206000209050919050565b600081519050919050565b600081519050919050565b600081519050919050565b600081519050919050565b600081519050919050565b6000602082019050919050565b6000602082019050919050565b6000602082019050919050565b6000602082019050919050565b600082825260208201905092915050565b600082825260208201905092915050565b600082825260208201905092915050565b600082825260208201905092915050565b600082825260208201905092915050565b600081905092915050565b600082825260208201905092915050565b600082825260208201905092915050565b600081905092915050565b60006157118261579e565b915061571c8361579e565b9250817fffffffffffffffffffffffffffffffffffffffffffffffffffffffffffffffff048311821515161561575557615754615896565b5b828202905092915050565b600061576b8261577e565b9050919050565b60008115159050919050565b600073ffffffffffffffffffffffffffffffffffffffff82169050919050565b6000819050919050565b82818337600083830152505050565b60005b838110156157d55780820151818401526020810190506157ba565b838111156157e4576000848401525b50505050565b6000600282049050600182168061580257607f821691505b60208210811415615816576158156158c5565b5b50919050565b6158258261596b565b810181811067ffffffffffffffff8211171561584457615843615923565b5b80604052505050565b60006158588261579e565b91507fffffffffffffffffffffffffffffffffffffffffffffffffffffffffffffffff82141561588b5761588a615896565b5b600182019050919050565b7f4e487b7100000000000000000000000000000000000000000000000000000000600052601160045260246000fd5b7f4e487b7100000000000000000000000000000000000000000000000000000000600052602260045260246000fd5b7f4e487b7100000000000000000000000000000000000000000000000000000000600052603260045260246000fd5b7f4e487b7100000000000000000000000000000000000000000000000000000000600052604160045260246000fd5b600080fd5b600080fd5b600080fd5b600080fd5b600080fd5b6000601f19601f8301169050919050565b7f4e4f000000000000000000000000000000000000000000000000000000000000600082015250565b7f5945530000000000000000000000000000000000000000000000000000000000600082015250565b50565b7f5472616e73616374696f6e204661696c65640000000000000000000000000000600082015250565b615a0381615760565b8114615a0e57600080fd5b50565b615a1a8161579e565b8114615a2557600080fd5b5056fea26469706673582212203f5c79dff48c860c6b76ee14832bd59a0fd3478d23875d5183467f9b88906f1264736f6c63430008050033",
  "immutableReferences": {},
  "source": "//SPDX-License-Identifier: UNLICENSED\r\n\r\npragma solidity ^0.8.0;\r\ncontract lands\r\n{\r\n    event registerevent(string success);\r\n    event transferevent(string success);\r\n    event registrarUpdated(string success);\r\n    struct Registrar\r\n    {\r\n        string name;\r\n        string userid;\r\n        uint sd;\r\n        uint td;\r\n        uint rf;\r\n        string coordinates;\r\n        address metamaskaddress;\r\n    }\r\n    struct Land\r\n    {\r\n        string RDN;\r\n        string[] userids;\r\n        string[] names;\r\n        string[] home;\r\n        address[] metamaskaddress;\r\n        string details;\r\n        string coordinates;\r\n        string saledeed;\r\n        string verified;\r\n        bool pendingTransfer;\r\n        string[] new_userids;\r\n        string[] new_names;\r\n        string[] new_home;\r\n        address[] new_metamaskaddress;\r\n        string new_saledeed;\r\n        uint fee;\r\n    }\r\n    Registrar[] private _registrars;\r\n    Registrar private new_registrar;\r\n    mapping(string => Land) private _lands;\r\n    mapping(string => string[]) private _owns;\r\n    string[] private _RDNs;\r\n    string[] private _coordinatesList;\r\n    Land[] private retrieve_lands;\r\n    Land[] private _unverifiedLands;\r\n    Land[] private _unverifiedLands2;\r\n    function getBalance() public view returns (uint256)\r\n    {\r\n        return address(this).balance;\r\n    }\r\n    receive() external payable {}\r\n    fallback() external payable {}\r\n    function _areEqual(string memory a, string memory b) internal pure returns (bool)\r\n    {\r\n        return (keccak256(abi.encodePacked(a)) == keccak256(abi.encodePacked(b)));\r\n    }\r\n    function addRegistrar(string memory name, string memory id, uint sd, uint td, uint rf, string memory coord, address metamask) public\r\n    {\r\n        new_registrar.name = name;\r\n        new_registrar.userid = id;\r\n        new_registrar.sd = sd;\r\n        new_registrar.td = td;\r\n        new_registrar.rf = rf;\r\n        new_registrar.coordinates = coord;\r\n        new_registrar.metamaskaddress = metamask;\r\n        _registrars.push(new_registrar);\r\n        delete new_registrar;\r\n        emit registrarUpdated(\"YES\");\r\n    }\r\n    function updateRegistrar(string memory id, uint sd, uint td, uint rf) public\r\n    {\r\n        for(uint i=0;i<_registrars.length;i++)\r\n        {\r\n            if(_areEqual(_registrars[i].userid,id))\r\n            {\r\n                _registrars[i].sd = sd;\r\n                _registrars[i].td = td;\r\n                _registrars[i].rf = rf;\r\n                emit registrarUpdated(\"YES\");\r\n                return;\r\n            }\r\n        }\r\n        emit registrarUpdated(\"NO\");\r\n    }\r\n    function getRegistrar(string memory id) public view returns(Registrar memory)\r\n    {\r\n        Registrar memory a;\r\n        for(uint i=0;i<_registrars.length;i++)\r\n        {\r\n            if(_areEqual(_registrars[i].userid,id))\r\n            {\r\n                return _registrars[i];\r\n            }\r\n        }\r\n        return a;\r\n    }\r\n    function retrieve() public view returns(Registrar[] memory)\r\n    {\r\n        return _registrars;\r\n    }\r\n    function registerLand(string memory rd, string[] memory ids, string[] memory fullnames, string[] memory addresses, address[] memory metamask, string memory det, string memory coord, string memory deed) public\r\n    {\r\n        Land memory new_land;\r\n        bool flag = true;\r\n        for(uint i=0;i<_RDNs.length;i++)\r\n        {\r\n            if(_areEqual(_RDNs[i], rd))\r\n            {\r\n                flag = false;\r\n                break;\r\n            }\r\n        }\r\n        if(_RDNs.length!=0)\r\n        {\r\n            flag = true;\r\n        }\r\n        if(!flag)\r\n        {\r\n            emit registerevent(\"NO\");\r\n            return;\r\n        }\r\n        new_land.RDN = rd;\r\n        new_land.userids = ids;\r\n        new_land.names = fullnames;\r\n        new_land.home = addresses;\r\n        new_land.metamaskaddress = metamask;\r\n        new_land.coordinates = coord;\r\n        _coordinatesList.push(coord);\r\n        new_land.details = det;\r\n        new_land.saledeed = deed;\r\n        new_land.verified = \"YET\";\r\n        _lands[rd] = new_land;\r\n        _RDNs.push(rd);\r\n        for(uint i=0;i<ids.length;i++)\r\n        {\r\n            if(_owns[ids[i]].length==0)\r\n            {\r\n                _owns[ids[i]] = [rd];\r\n                continue;\r\n            }\r\n            _owns[ids[i]].push(rd);\r\n        }\r\n        emit registerevent(\"YES\");\r\n    }\r\n    function getOwnedLands(string memory id) public returns(Land[] memory)\r\n    {\r\n        delete retrieve_lands;\r\n        for(uint i=0;i<_owns[id].length;i++)\r\n        {\r\n            if(_areEqual(_owns[id][i],\"\"))\r\n            {\r\n                continue;\r\n            }\r\n            retrieve_lands.push(_lands[_owns[id][i]]);\r\n        }\r\n        return retrieve_lands;\r\n    }\r\n    function transferLand(string memory rd, string[] memory ids, string[] memory fullnames, string[] memory addresses, address[] memory metamask, string memory deed, uint f) public payable\r\n    {\r\n        bool flag = false;\r\n        if(_RDNs.length==0 || _areEqual(_lands[rd].verified, \"YET\"))\r\n        {\r\n            emit transferevent(\"NO\");\r\n            return;\r\n        }\r\n        for(uint i=0;i<_lands[rd].metamaskaddress.length;i++)\r\n        {\r\n            if(_lands[rd].metamaskaddress[i]==msg.sender)\r\n            {\r\n                flag = true;\r\n                break;\r\n            }\r\n        }\r\n        if(!flag)\r\n        {\r\n            emit transferevent(\"NO\");\r\n            return;\r\n        }\r\n        _lands[rd].pendingTransfer = true;\r\n        _lands[rd].new_userids = ids;\r\n        _lands[rd].new_names = fullnames;\r\n        _lands[rd].new_home = addresses;\r\n        _lands[rd].new_metamaskaddress = metamask;\r\n        _lands[rd].new_saledeed = deed;\r\n        _lands[rd].fee = f;\r\n        emit transferevent(\"YES\");\r\n    }\r\n    function retrieveCoordinates() public view returns(string[] memory)\r\n    {\r\n        return _coordinatesList;\r\n    }\r\n    function unverifiedLands() public returns(Land[] memory)\r\n    {\r\n        delete _unverifiedLands;\r\n        for(uint i=0;i<_RDNs.length;i++)\r\n        {\r\n            if(_areEqual(_lands[_RDNs[i]].verified,\"YET\") || _lands[_RDNs[i]].pendingTransfer)\r\n            {\r\n                _unverifiedLands.push(_lands[_RDNs[i]]);\r\n            }\r\n        }\r\n        return _unverifiedLands;\r\n    }\r\n    function verifyRegistration(string memory rd, string memory status) public\r\n    {\r\n        _lands[rd].verified = status;\r\n        if(_areEqual(status,\"NOPE\"))\r\n        {\r\n            for(uint j=0;j<_lands[rd].userids.length;j++)\r\n            {\r\n                for(uint k=0;k<_owns[_lands[rd].userids[j]].length;k++)\r\n                {\r\n                    if(_areEqual(_owns[_lands[rd].userids[j]][k], rd))\r\n                    {\r\n                        _owns[_lands[rd].userids[j]][k]=\"\";\r\n                        break;\r\n                    }\r\n                }\r\n            }\r\n            delete _lands[rd];\r\n        }\r\n    }\r\n    function verifyTransfer(string memory rd, string memory status) public\r\n    {\r\n        _lands[rd].pendingTransfer = false;\r\n        if(_areEqual(status,\"YES\"))\r\n        {\r\n            (bool sent,) = address(msg.sender).call{value: (_lands[rd].fee)*1000000000000000000}(\"\");\r\n            require(sent, \"Transaction Failed\");\r\n            for(uint i=0;i<_lands[rd].new_userids.length;i++)\r\n            {\r\n                if(_owns[_lands[rd].new_userids[i]].length==0)\r\n                {\r\n                    _owns[_lands[rd].new_userids[i]] = [rd];\r\n                    continue;\r\n                }\r\n                _owns[_lands[rd].new_userids[i]].push(rd);\r\n            }\r\n            for(uint i=0;i<_lands[rd].userids.length;i++)\r\n            {\r\n                for(uint j=0;j<_owns[_lands[rd].userids[i]].length;j++)\r\n                {\r\n                    if(_areEqual(_owns[_lands[rd].userids[i]][j], rd))\r\n                    {\r\n                        _owns[_lands[rd].userids[i]][j] = \"\";\r\n                    }\r\n                }\r\n            }\r\n            _lands[rd].userids = _lands[rd].new_userids;\r\n            _lands[rd].names = _lands[rd].new_names;\r\n            _lands[rd].home = _lands[rd].new_home;\r\n            _lands[rd].metamaskaddress = _lands[rd].new_metamaskaddress;\r\n            _lands[rd].saledeed = _lands[rd].new_saledeed;\r\n        }\r\n    }\r\n}",
  "sourcePath": "C:\\Users\\krish\\Desktop\\Project\\contracts\\lands.sol",
  "compiler": {
    "name": "solc",
    "version": "0.8.5+commit.a4f2e591.Emscripten.clang"
  },
  "schemaVersion": "3.4.16",
  "updatedAt": "2024-11-10T12:44:59.228Z",
  "networkType": "ethereum",
  "devdoc": {
    "kind": "dev",
    "methods": {},
    "version": 1
  },
  "userdoc": {
    "kind": "user",
    "methods": {},
    "version": 1
  }
}