{
  "contractName": "messages",
  "abi": [
    {
      "anonymous": false,
      "inputs": [
        {
          "indexed": false,
          "internalType": "string",
          "name": "success",
          "type": "string"
        }
      ],
      "name": "messagesent",
      "type": "event"
    },
    {
      "inputs": [
        {
          "internalType": "string",
          "name": "id",
          "type": "string"
        },
        {
          "internalType": "string",
          "name": "userrole",
          "type": "string"
        }
      ],
      "name": "retrieve",
      "outputs": [
        {
          "components": [
            {
              "internalType": "string",
              "name": "viewedby",
              "type": "string"
            },
            {
              "internalType": "string",
              "name": "senderID",
              "type": "string"
            },
            {
              "internalType": "string",
              "name": "receiverID",
              "type": "string"
            },
            {
              "internalType": "string",
              "name": "message",
              "type": "string"
            },
            {
              "internalType": "uint256",
              "name": "timestamp",
              "type": "uint256"
            }
          ],
          "internalType": "struct messages.Message[]",
          "name": "",
          "type": "tuple[]"
        }
      ],
      "stateMutability": "nonpayable",
      "type": "function"
    },
    {
      "inputs": [
        {
          "internalType": "string",
          "name": "receiver",
          "type": "string"
        },
        {
          "internalType": "string",
          "name": "receivers",
          "type": "string"
        },
        {
          "internalType": "string",
          "name": "sender",
          "type": "string"
        },
        {
          "internalType": "string",
          "name": "message",
          "type": "string"
        }
      ],
      "name": "send",
      "outputs": [],
      "stateMutability": "nonpayable",
      "type": "function"
    }
  ],
  "bytecode": "0x60806040524260025534801561001457600080fd5b50611a6d806100246000396000f3fe608060405234801561001057600080fd5b50600436106100365760003560e01c80630e9f49511461003b578063d112a50e14610057575b600080fd5b6100556004803603810190610050919061145a565b610087565b005b610071600480360381019061006c91906113e2565b6109df565b60405161007e91906116f8565b60405180910390f35b62093a80600254426100999190611801565b11156100b4576000806100ac9190611150565b426002819055505b6100f3826040518060400160405280600581526020017f41444d494e0000000000000000000000000000000000000000000000000000008152506110f7565b156108c957610137836040518060400160405280600881526020017f65766572796f6e650000000000000000000000000000000000000000000000008152506110f7565b1561025057610144611174565b828160200181905250818160600181905250428160800181815250506040518060400160405280600881526020017f65766572796f6e650000000000000000000000000000000000000000000000008152508160000181905250600081908060018154018082558091505060019003906000526020600020906005020160009091909190915060008201518160000190805190602001906101e69291906111a3565b5060208201518160010190805190602001906102039291906111a3565b5060408201518160020190805190602001906102209291906111a3565b50606082015181600301908051906020019061023d9291906111a3565b506080820151816004015550505061088f565b61028f836040518060400160405280600981526020017f696e766573746f727300000000000000000000000000000000000000000000008152506110f7565b156103a85761029c611174565b828160200181905250818160600181905250428160800181815250506040518060400160405280600881526020017f696e766573746f7200000000000000000000000000000000000000000000000081525081600001819052506000819080600181540180825580915050600190039060005260206000209060050201600090919091909150600082015181600001908051906020019061033e9291906111a3565b50602082015181600101908051906020019061035b9291906111a3565b5060408201518160020190805190602001906103789291906111a3565b5060608201518160030190805190602001906103959291906111a3565b506080820151816004015550505061088e565b6103e7836040518060400160405280600881526020017f69646561746f72730000000000000000000000000000000000000000000000008152506110f7565b15610500576103f4611174565b828160200181905250818160600181905250428160800181815250506040518060400160405280600781526020017f69646561746f72000000000000000000000000000000000000000000000000008152508160000181905250600081908060018154018082558091505060019003906000526020600020906005020160009091909190915060008201518160000190805190602001906104969291906111a3565b5060208201518160010190805190602001906104b39291906111a3565b5060408201518160020190805190602001906104d09291906111a3565b5060608201518160030190805190602001906104ed9291906111a3565b506080820151816004015550505061088d565b61053f836040518060400160405280600781526020017f76656e646f7273000000000000000000000000000000000000000000000000008152506110f7565b156106585761054c611174565b828160200181905250818160600181905250428160800181815250506040518060400160405280600681526020017f76656e646f7200000000000000000000000000000000000000000000000000008152508160000181905250600081908060018154018082558091505060019003906000526020600020906005020160009091909190915060008201518160000190805190602001906105ee9291906111a3565b50602082015181600101908051906020019061060b9291906111a3565b5060408201518160020190805190602001906106289291906111a3565b5060608201518160030190805190602001906106459291906111a3565b506080820151816004015550505061088c565b610697836040518060400160405280600a81526020017f72656769737472617273000000000000000000000000000000000000000000008152506110f7565b156107b0576106a4611174565b828160200181905250818160600181905250428160800181815250506040518060400160405280600981526020017f72656769737472617200000000000000000000000000000000000000000000008152508160000181905250600081908060018154018082558091505060019003906000526020600020906005020160009091909190915060008201518160000190805190602001906107469291906111a3565b5060208201518160010190805190602001906107639291906111a3565b5060408201518160020190805190602001906107809291906111a3565b50606082015181600301908051906020019061079d9291906111a3565b506080820151816004015550505061088b565b6107b8611174565b82816020018190525084816040018190525081816060018190525042816080018181525050600081908060018154018082558091505060019003906000526020600020906005020160009091909190915060008201518160000190805190602001906108259291906111a3565b5060208201518160010190805190602001906108429291906111a3565b50604082015181600201908051906020019061085f9291906111a3565b50606082015181600301908051906020019061087c9291906111a3565b50608082015181600401555050505b5b5b5b5b7f852ac1d5b47206ab8bad828350e8c482158b0718ecd108b50866f81fb01b47a46040516108bc9061171a565b60405180910390a16109d9565b6108d1611174565b828160200181905250848160400181905250818160600181905250428160800181815250506000819080600181540180825580915050600190039060005260206000209060050201600090919091909150600082015181600001908051906020019061093e9291906111a3565b50602082015181600101908051906020019061095b9291906111a3565b5060408201518160020190805190602001906109789291906111a3565b5060608201518160030190805190602001906109959291906111a3565b506080820151816004015550507f852ac1d5b47206ab8bad828350e8c482158b0718ecd108b50866f81fb01b47a46040516109cf9061171a565b60405180910390a1505b50505050565b606062093a80600254426109f39190611801565b1115610a0e57600080610a069190611150565b426002819055505b60016000610a1c9190611150565b60005b600080549050811015610e4457610ae38460008381548110610a4457610a4361198b565b5b90600052602060002090600502016001018054610a6090611881565b80601f0160208091040260200160405190810160405280929190818152602001828054610a8c90611881565b8015610ad95780601f10610aae57610100808354040283529160200191610ad9565b820191906000526020600020905b815481529060010190602001808311610abc57829003601f168201915b50505050506110f7565b80610ba15750610ba08460008381548110610b0157610b0061198b565b5b90600052602060002090600502016002018054610b1d90611881565b80601f0160208091040260200160405190810160405280929190818152602001828054610b4990611881565b8015610b965780601f10610b6b57610100808354040283529160200191610b96565b820191906000526020600020905b815481529060010190602001808311610b7957829003601f168201915b50505050506110f7565b5b80610c5f5750610c5e60008281548110610bbe57610bbd61198b565b5b90600052602060002090600502016000018054610bda90611881565b80601f0160208091040260200160405190810160405280929190818152602001828054610c0690611881565b8015610c535780601f10610c2857610100808354040283529160200191610c53565b820191906000526020600020905b815481529060010190602001808311610c3657829003601f168201915b5050505050846110f7565b5b80610d525750610d5160008281548110610c7c57610c7b61198b565b5b90600052602060002090600502016000018054610c9890611881565b80601f0160208091040260200160405190810160405280929190818152602001828054610cc490611881565b8015610d115780601f10610ce657610100808354040283529160200191610d11565b820191906000526020600020905b815481529060010190602001808311610cf457829003601f168201915b50505050506040518060400160405280600881526020017f65766572796f6e650000000000000000000000000000000000000000000000008152506110f7565b5b15610e3157600160008281548110610d6d57610d6c61198b565b5b906000526020600020906005020190806001815401808255809150506001900390600052602060002090600502016000909190919091506000820181600001908054610db890611881565b610dc3929190611229565b506001820181600101908054610dd890611881565b610de3929190611229565b506002820181600201908054610df890611881565b610e03929190611229565b506003820181600301908054610e1890611881565b610e23929190611229565b506004820154816004015550505b8080610e3c906118e4565b915050610a1f565b506001805480602002602001604051908101604052809291908181526020016000905b828210156110eb57838290600052602060002090600502016040518060a0016040529081600082018054610e9a90611881565b80601f0160208091040260200160405190810160405280929190818152602001828054610ec690611881565b8015610f135780601f10610ee857610100808354040283529160200191610f13565b820191906000526020600020905b815481529060010190602001808311610ef657829003601f168201915b50505050508152602001600182018054610f2c90611881565b80601f0160208091040260200160405190810160405280929190818152602001828054610f5890611881565b8015610fa55780601f10610f7a57610100808354040283529160200191610fa5565b820191906000526020600020905b815481529060010190602001808311610f8857829003601f168201915b50505050508152602001600282018054610fbe90611881565b80601f0160208091040260200160405190810160405280929190818152602001828054610fea90611881565b80156110375780601f1061100c57610100808354040283529160200191611037565b820191906000526020600020905b81548152906001019060200180831161101a57829003601f168201915b5050505050815260200160038201805461105090611881565b80601f016020809104026020016040519081016040528092919081815260200182805461107c90611881565b80156110c95780601f1061109e576101008083540402835291602001916110c9565b820191906000526020600020905b8154815290600101906020018083116110ac57829003601f168201915b5050505050815260200160048201548152505081526020019060010190610e67565b50505050905092915050565b60008160405160200161110a91906116e1565b604051602081830303815290604052805190602001208360405160200161113191906116e1565b6040516020818303038152906040528051906020012014905092915050565b508054600082556005029060005260206000209081019061117191906112b6565b50565b6040518060a0016040528060608152602001606081526020016060815260200160608152602001600081525090565b8280546111af90611881565b90600052602060002090601f0160209004810192826111d15760008555611218565b82601f106111ea57805160ff1916838001178555611218565b82800160010185558215611218579182015b828111156112175782518255916020019190600101906111fc565b5b5090506112259190611315565b5090565b82805461123590611881565b90600052602060002090601f01602090048101928261125757600085556112a5565b82601f1061126857805485556112a5565b828001600101855582156112a557600052602060002091601f016020900482015b828111156112a4578254825591600101919060010190611289565b5b5090506112b29190611315565b5090565b5b8082111561131157600080820160006112d09190611332565b6001820160006112e09190611332565b6002820160006112f09190611332565b6003820160006113009190611332565b6004820160009055506005016112b7565b5090565b5b8082111561132e576000816000905550600101611316565b5090565b50805461133e90611881565b6000825580601f10611350575061136f565b601f01602090049060005260206000209081019061136e9190611315565b5b50565b60006113856113808461175f565b61173a565b9050828152602081018484840111156113a1576113a06119ee565b5b6113ac84828561183f565b509392505050565b600082601f8301126113c9576113c86119e9565b5b81356113d9848260208601611372565b91505092915050565b600080604083850312156113f9576113f86119f8565b5b600083013567ffffffffffffffff811115611417576114166119f3565b5b611423858286016113b4565b925050602083013567ffffffffffffffff811115611444576114436119f3565b5b611450858286016113b4565b9150509250929050565b60008060008060808587031215611474576114736119f8565b5b600085013567ffffffffffffffff811115611492576114916119f3565b5b61149e878288016113b4565b945050602085013567ffffffffffffffff8111156114bf576114be6119f3565b5b6114cb878288016113b4565b935050604085013567ffffffffffffffff8111156114ec576114eb6119f3565b5b6114f8878288016113b4565b925050606085013567ffffffffffffffff811115611519576115186119f3565b5b611525878288016113b4565b91505092959194509250565b600061153d8383611647565b905092915050565b6000611550826117a0565b61155a81856117c3565b93508360208202850161156c85611790565b8060005b858110156115a857848403895281516115898582611531565b9450611594836117b6565b925060208a01995050600181019050611570565b50829750879550505050505092915050565b60006115c5826117ab565b6115cf81856117d4565b93506115df81856020860161184e565b6115e8816119fd565b840191505092915050565b60006115fe826117ab565b61160881856117f6565b935061161881856020860161184e565b80840191505092915050565b60006116316003836117e5565b915061163c82611a0e565b602082019050919050565b600060a083016000830151848203600086015261166482826115ba565b9150506020830151848203602086015261167e82826115ba565b9150506040830151848203604086015261169882826115ba565b915050606083015184820360608601526116b282826115ba565b91505060808301516116c760808601826116d2565b508091505092915050565b6116db81611835565b82525050565b60006116ed82846115f3565b915081905092915050565b600060208201905081810360008301526117128184611545565b905092915050565b6000602082019050818103600083015261173381611624565b9050919050565b6000611744611755565b905061175082826118b3565b919050565b6000604051905090565b600067ffffffffffffffff82111561177a576117796119ba565b5b611783826119fd565b9050602081019050919050565b6000819050602082019050919050565b600081519050919050565b600081519050919050565b6000602082019050919050565b600082825260208201905092915050565b600082825260208201905092915050565b600082825260208201905092915050565b600081905092915050565b600061180c82611835565b915061181783611835565b92508282101561182a5761182961192d565b5b828203905092915050565b6000819050919050565b82818337600083830152505050565b60005b8381101561186c578082015181840152602081019050611851565b8381111561187b576000848401525b50505050565b6000600282049050600182168061189957607f821691505b602082108114156118ad576118ac61195c565b5b50919050565b6118bc826119fd565b810181811067ffffffffffffffff821117156118db576118da6119ba565b5b80604052505050565b60006118ef82611835565b91507fffffffffffffffffffffffffffffffffffffffffffffffffffffffffffffffff8214156119225761192161192d565b5b600182019050919050565b7f4e487b7100000000000000000000000000000000000000000000000000000000600052601160045260246000fd5b7f4e487b7100000000000000000000000000000000000000000000000000000000600052602260045260246000fd5b7f4e487b7100000000000000000000000000000000000000000000000000000000600052603260045260246000fd5b7f4e487b7100000000000000000000000000000000000000000000000000000000600052604160045260246000fd5b600080fd5b600080fd5b600080fd5b600080fd5b6000601f19601f8301169050919050565b7f594553000000000000000000000000000000000000000000000000000000000060008201525056fea26469706673582212208022327c3bbb67a49efaf468a92c2a44aac00362206ce9f9422915f5660f37c164736f6c63430008050033",
  "immutableReferences": {},
  "source": "//SPDX-License-Identifier: UNLICENSED\r\n\r\npragma solidity ^0.8.0;\r\ncontract messages\r\n{\r\n    event messagesent(string success);\r\n    struct Message\r\n    {\r\n        string viewedby;\r\n        string senderID;\r\n        string receiverID;\r\n        string message;\r\n        uint timestamp;\r\n    }\r\n    Message[] private _messages;\r\n    Message[] private _retrievedMessages;\r\n    uint private _lastDelete=block.timestamp;\r\n    function _areEqual(string memory a, string memory b) private pure returns (bool)\r\n    {\r\n        return (keccak256(abi.encodePacked(a)) == keccak256(abi.encodePacked(b)));\r\n    }\r\n    function retrieve(string memory id, string memory userrole) public returns(Message[] memory)\r\n    {\r\n        if(block.timestamp-(_lastDelete)>604800)\r\n        {\r\n            delete _messages;\r\n            _lastDelete=block.timestamp;\r\n        }\r\n        delete _retrievedMessages;\r\n        for(uint i=0; i<_messages.length;i++)\r\n        {\r\n            if(_areEqual(id,_messages[i].senderID) || _areEqual(id,_messages[i].receiverID) || _areEqual(_messages[i].viewedby,userrole) || _areEqual(_messages[i].viewedby,\"everyone\"))\r\n            {\r\n                _retrievedMessages.push(_messages[i]);\r\n            }\r\n        }\r\n        return _retrievedMessages;\r\n    }\r\n    function send(string memory receiver, string memory receivers, string memory sender, string memory message) public\r\n    {\r\n        if(block.timestamp-(_lastDelete)>604800)\r\n        {\r\n            delete _messages;\r\n            _lastDelete=block.timestamp;\r\n        }\r\n        if(_areEqual(sender, \"ADMIN\"))\r\n        {\r\n            if(_areEqual(receivers,\"everyone\"))\r\n            {\r\n                Message memory new_message;\r\n                new_message.senderID = sender;\r\n                new_message.message = message;\r\n                new_message.timestamp = block.timestamp;\r\n                new_message.viewedby = \"everyone\";\r\n                _messages.push(new_message);\r\n            }\r\n            else if(_areEqual(receivers,\"investors\"))\r\n            {\r\n                Message memory new_message;\r\n                new_message.senderID = sender;\r\n                new_message.message = message;\r\n                new_message.timestamp = block.timestamp;\r\n                new_message.viewedby = \"investor\";\r\n                _messages.push(new_message);\r\n            }\r\n            else if(_areEqual(receivers,\"ideators\"))\r\n            {\r\n                Message memory new_message;\r\n                new_message.senderID = sender;\r\n                new_message.message = message;\r\n                new_message.timestamp = block.timestamp;\r\n                new_message.viewedby = \"ideator\";\r\n                _messages.push(new_message);\r\n            }\r\n            else if(_areEqual(receivers,\"vendors\"))\r\n            {\r\n                Message memory new_message;\r\n                new_message.senderID = sender;\r\n                new_message.message = message;\r\n                new_message.timestamp = block.timestamp;\r\n                new_message.viewedby = \"vendor\";\r\n                _messages.push(new_message);\r\n            }\r\n            else if(_areEqual(receivers,\"registrars\"))\r\n            {\r\n                Message memory new_message;\r\n                new_message.senderID = sender;\r\n                new_message.message = message;\r\n                new_message.timestamp = block.timestamp;\r\n                new_message.viewedby = \"registrar\";\r\n                _messages.push(new_message);\r\n            }\r\n            else\r\n            {\r\n                Message memory new_message;\r\n                new_message.senderID = sender;\r\n                new_message.receiverID = receiver;\r\n                new_message.message = message;\r\n                new_message.timestamp = block.timestamp;\r\n                _messages.push(new_message);\r\n            }\r\n            emit messagesent(\"YES\");\r\n            return;\r\n        }\r\n        else\r\n        {\r\n            Message memory new_message;\r\n            new_message.senderID = sender;\r\n            new_message.receiverID = receiver;\r\n            new_message.message = message;\r\n            new_message.timestamp = block.timestamp;\r\n            _messages.push(new_message);\r\n            emit messagesent(\"YES\");\r\n            return;\r\n        }\r\n    }\r\n}",
  "sourcePath": "C:\\Users\\krish\\Desktop\\Project\\contracts\\Messages.sol",
  "compiler": {
    "name": "solc",
    "version": "0.8.5+commit.a4f2e591.Emscripten.clang"
  },
  "schemaVersion": "3.4.16",
  "updatedAt": "2024-11-10T12:44:59.173Z",
  "networkType": "ethereum",
  "devdoc": {
    "kind": "dev",
    "methods": {},
    "version": 1
  },
  "userdoc": {
    "kind": "user",
    "methods": {},
    "version": 1
  }
}