{
  "contractName": "nfts",
  "abi": [
    {
      "anonymous": false,
      "inputs": [
        {
          "indexed": false,
          "internalType": "string",
          "name": "success",
          "type": "string"
        }
      ],
      "name": "disinterestMarked",
      "type": "event"
    },
    {
      "anonymous": false,
      "inputs": [
        {
          "indexed": false,
          "internalType": "string",
          "name": "success",
          "type": "string"
        }
      ],
      "name": "interestMarked",
      "type": "event"
    },
    {
      "anonymous": false,
      "inputs": [
        {
          "indexed": false,
          "internalType": "string",
          "name": "success",
          "type": "string"
        }
      ],
      "name": "nftMinted",
      "type": "event"
    },
    {
      "anonymous": false,
      "inputs": [
        {
          "indexed": false,
          "internalType": "string",
          "name": "success",
          "type": "string"
        }
      ],
      "name": "nftTransferred",
      "type": "event"
    },
    {
      "stateMutability": "payable",
      "type": "fallback",
      "payable": true
    },
    {
      "stateMutability": "payable",
      "type": "receive",
      "payable": true
    },
    {
      "inputs": [],
      "name": "getBalance",
      "outputs": [
        {
          "internalType": "uint256",
          "name": "",
          "type": "uint256"
        }
      ],
      "stateMutability": "view",
      "type": "function",
      "constant": true
    },
    {
      "inputs": [
        {
          "internalType": "uint256",
          "name": "value",
          "type": "uint256"
        }
      ],
      "name": "uint256ToString",
      "outputs": [
        {
          "internalType": "string",
          "name": "",
          "type": "string"
        }
      ],
      "stateMutability": "pure",
      "type": "function",
      "constant": true
    },
    {
      "inputs": [
        {
          "internalType": "string",
          "name": "t",
          "type": "string"
        },
        {
          "internalType": "string",
          "name": "id",
          "type": "string"
        },
        {
          "internalType": "address",
          "name": "metamask",
          "type": "address"
        },
        {
          "internalType": "string",
          "name": "cd",
          "type": "string"
        }
      ],
      "name": "mint",
      "outputs": [],
      "stateMutability": "nonpayable",
      "type": "function"
    },
    {
      "inputs": [],
      "name": "getMintCount",
      "outputs": [
        {
          "internalType": "string[][]",
          "name": "",
          "type": "string[][]"
        }
      ],
      "stateMutability": "nonpayable",
      "type": "function"
    },
    {
      "inputs": [
        {
          "internalType": "string",
          "name": "id",
          "type": "string"
        }
      ],
      "name": "retrieve",
      "outputs": [
        {
          "components": [
            {
              "internalType": "uint256",
              "name": "nftID",
              "type": "uint256"
            },
            {
              "internalType": "string",
              "name": "userid",
              "type": "string"
            },
            {
              "internalType": "string",
              "name": "cid",
              "type": "string"
            },
            {
              "internalType": "string",
              "name": "title",
              "type": "string"
            },
            {
              "internalType": "string",
              "name": "sell",
              "type": "string"
            },
            {
              "internalType": "uint256",
              "name": "price",
              "type": "uint256"
            },
            {
              "internalType": "address",
              "name": "metamaskaddress",
              "type": "address"
            }
          ],
          "internalType": "struct nfts.NFT[]",
          "name": "",
          "type": "tuple[]"
        }
      ],
      "stateMutability": "nonpayable",
      "type": "function"
    },
    {
      "inputs": [
        {
          "internalType": "uint256",
          "name": "id",
          "type": "uint256"
        },
        {
          "internalType": "uint256",
          "name": "amount",
          "type": "uint256"
        }
      ],
      "name": "interest",
      "outputs": [],
      "stateMutability": "nonpayable",
      "type": "function"
    },
    {
      "inputs": [
        {
          "internalType": "uint256",
          "name": "id",
          "type": "uint256"
        }
      ],
      "name": "disinterest",
      "outputs": [],
      "stateMutability": "nonpayable",
      "type": "function"
    },
    {
      "inputs": [],
      "name": "retrieveInterests",
      "outputs": [
        {
          "components": [
            {
              "internalType": "uint256",
              "name": "nftID",
              "type": "uint256"
            },
            {
              "internalType": "string",
              "name": "userid",
              "type": "string"
            },
            {
              "internalType": "string",
              "name": "cid",
              "type": "string"
            },
            {
              "internalType": "string",
              "name": "title",
              "type": "string"
            },
            {
              "internalType": "string",
              "name": "sell",
              "type": "string"
            },
            {
              "internalType": "uint256",
              "name": "price",
              "type": "uint256"
            },
            {
              "internalType": "address",
              "name": "metamaskaddress",
              "type": "address"
            }
          ],
          "internalType": "struct nfts.NFT[]",
          "name": "",
          "type": "tuple[]"
        }
      ],
      "stateMutability": "nonpayable",
      "type": "function"
    },
    {
      "inputs": [
        {
          "internalType": "uint256",
          "name": "id",
          "type": "uint256"
        },
        {
          "internalType": "string",
          "name": "uid",
          "type": "string"
        },
        {
          "internalType": "address",
          "name": "metamask",
          "type": "address"
        }
      ],
      "name": "buy",
      "outputs": [],
      "stateMutability": "payable",
      "type": "function",
      "payable": true
    }
  ],
  "bytecode": "0x6080604052600060035534801561001557600080fd5b50612fab806100256000396000f3fe60806040526004361061008a5760003560e01c80637fcc89ab116100595780637fcc89ab1461014d578063827eff8b146101695780638fc3b54914610192578063c225f658146101bd578063ce7e51e3146101e857610091565b806312065fe01461009357806337279628146100be57806364cc7327146100e757806375c9012a1461012457610091565b3661009157005b005b34801561009f57600080fd5b506100a8610225565b6040516100b591906129ac565b60405180910390f35b3480156100ca57600080fd5b506100e560048036038101906100e091906123f9565b61022d565b005b3480156100f357600080fd5b5061010e60048036038101906101099190612259565b610412565b60405161011b91906128e8565b60405180910390f35b34801561013057600080fd5b5061014b6004803603810190610146919061235d565b6109e4565b005b6101676004803603810190610162919061238a565b610b18565b005b34801561017557600080fd5b50610190600480360381019061018b91906122a2565b610f99565b005b34801561019e57600080fd5b506101a76114f4565b6040516101b491906128c6565b60405180910390f35b3480156101c957600080fd5b506101d261177a565b6040516101df91906128e8565b60405180910390f35b3480156101f457600080fd5b5061020f600480360381019061020a919061235d565b611cf9565b60405161021c919061290a565b60405180910390f35b600047905090565b600f60009054906101000a900460ff161561027d576040517f08c379a00000000000000000000000000000000000000000000000000000000081526004016102749061296c565b60405180910390fd5b6001600f60006101000a81548160ff02191690831515021790555060005b6004805490508110156103bc5782600482815481106102bd576102bc612e1d565b5b90600052602060002090600702016000015414156103a9576040518060400160405280600381526020017f59455300000000000000000000000000000000000000000000000000000000008152506004828154811061031f5761031e612e1d565b5b90600052602060002090600702016004019080519060200190610343929190611eb3565b50816004828154811061035957610358612e1d565b5b9060005260206000209060070201600501819055507f4d99552040f73b7ab6a7c673bf01ea7f5e960414c94378a32785aaa861e3a7a260405161039b9061294c565b60405180910390a1506103f3565b80806103b490612d16565b91505061029b565b507f4d99552040f73b7ab6a7c673bf01ea7f5e960414c94378a32785aaa861e3a7a26040516103ea9061292c565b60405180910390a15b6000600f60006101000a81548160ff0219169083151502179055505050565b6060600f60009054906101000a900460ff1615610464576040517f08c379a000000000000000000000000000000000000000000000000000000000815260040161045b9061296c565b60405180910390fd5b6001600f60006101000a81548160ff0219169083151502179055506005600061048d9190611f39565b60005b6004805490508110156106b757610554600482815481106104b4576104b3612e1d565b5b906000526020600020906007020160010180546104d090612cb3565b80601f01602080910402602001604051908101604052809291908181526020018280546104fc90612cb3565b80156105495780601f1061051e57610100808354040283529160200191610549565b820191906000526020600020905b81548152906001019060200180831161052c57829003601f168201915b505050505084611e5a565b156106a45760056004828154811061056f5761056e612e1d565b5b906000526020600020906007020190806001815401808255809150506001900390600052602060002090600702016000909190919091506000820154816000015560018201816001019080546105c490612cb3565b6105cf929190611f5d565b5060028201816002019080546105e490612cb3565b6105ef929190611f5d565b50600382018160030190805461060490612cb3565b61060f929190611f5d565b50600482018160040190805461062490612cb3565b61062f929190611f5d565b50600582015481600501556006820160009054906101000a900473ffffffffffffffffffffffffffffffffffffffff168160060160006101000a81548173ffffffffffffffffffffffffffffffffffffffff021916908373ffffffffffffffffffffffffffffffffffffffff16021790555050505b80806106af90612d16565b915050610490565b506005805480602002602001604051908101604052809291908181526020016000905b828210156109be57838290600052602060002090600702016040518060e00160405290816000820154815260200160018201805461071790612cb3565b80601f016020809104026020016040519081016040528092919081815260200182805461074390612cb3565b80156107905780601f1061076557610100808354040283529160200191610790565b820191906000526020600020905b81548152906001019060200180831161077357829003601f168201915b505050505081526020016002820180546107a990612cb3565b80601f01602080910402602001604051908101604052809291908181526020018280546107d590612cb3565b80156108225780601f106107f757610100808354040283529160200191610822565b820191906000526020600020905b81548152906001019060200180831161080557829003601f168201915b5050505050815260200160038201805461083b90612cb3565b80601f016020809104026020016040519081016040528092919081815260200182805461086790612cb3565b80156108b45780601f10610889576101008083540402835291602001916108b4565b820191906000526020600020905b81548152906001019060200180831161089757829003601f168201915b505050505081526020016004820180546108cd90612cb3565b80601f01602080910402602001604051908101604052809291908181526020018280546108f990612cb3565b80156109465780601f1061091b57610100808354040283529160200191610946565b820191906000526020600020905b81548152906001019060200180831161092957829003601f168201915b50505050508152602001600582015481526020016006820160009054906101000a900473ffffffffffffffffffffffffffffffffffffffff1673ffffffffffffffffffffffffffffffffffffffff1673ffffffffffffffffffffffffffffffffffffffff1681525050815260200190600101906106da565b5050505090506000600f60006101000a81548160ff021916908315150217905550919050565b60005b600480549050811015610ade578160048281548110610a0957610a08612e1d565b5b9060005260206000209060070201600001541415610acb576040518060400160405280600281526020017f4e4f00000000000000000000000000000000000000000000000000000000000081525060048281548110610a6b57610a6a612e1d565b5b90600052602060002090600702016004019080519060200190610a8f929190611eb3565b507f136b391beb1542f2e9c8a78ad88f8cabb673b2ca960e3f497b2fee1e2cc59ad5604051610abd9061294c565b60405180910390a150610b15565b8080610ad690612d16565b9150506109e7565b507f136b391beb1542f2e9c8a78ad88f8cabb673b2ca960e3f497b2fee1e2cc59ad5604051610b0c9061292c565b60405180910390a15b50565b600f60009054906101000a900460ff1615610b68576040517f08c379a0000000000000000000000000000000000000000000000000000000008152600401610b5f9061296c565b60405180910390fd5b6001600f60006101000a81548160ff0219169083151502179055506000670de0b6b3a7640000905060005b600480549050811015610f41578460048281548110610bb557610bb4612e1d565b5b9060005260206000209060070201600001541415610f2e57610cb960048281548110610be457610be3612e1d565b5b90600052602060002090600702016004018054610c0090612cb3565b80601f0160208091040260200160405190810160405280929190818152602001828054610c2c90612cb3565b8015610c795780601f10610c4e57610100808354040283529160200191610c79565b820191906000526020600020905b815481529060010190602001808311610c5c57829003601f168201915b50505050506040518060400160405280600381526020017f5945530000000000000000000000000000000000000000000000000000000000815250611e5a565b15610f2957600060048281548110610cd457610cd3612e1d565b5b906000526020600020906007020160060160009054906101000a900473ffffffffffffffffffffffffffffffffffffffff1673ffffffffffffffffffffffffffffffffffffffff168360048481548110610d3157610d30612e1d565b5b906000526020600020906007020160050154610d4d9190612ba7565b604051610d59906128b1565b60006040518083038185875af1925050503d8060008114610d96576040519150601f19603f3d011682016040523d82523d6000602084013e610d9b565b606091505b5050905080610ddf576040517f08c379a0000000000000000000000000000000000000000000000000000000008152600401610dd69061298c565b60405180910390fd5b8460048381548110610df457610df3612e1d565b5b90600052602060002090600702016001019080519060200190610e18929190611eb3565b508360048381548110610e2e57610e2d612e1d565b5b906000526020600020906007020160060160006101000a81548173ffffffffffffffffffffffffffffffffffffffff021916908373ffffffffffffffffffffffffffffffffffffffff1602179055506040518060400160405280600281526020017f4e4f00000000000000000000000000000000000000000000000000000000000081525060048381548110610ec757610ec6612e1d565b5b90600052602060002090600702016004019080519060200190610eeb929190611eb3565b507fa8c7c77332a6db2b5e825b55796b31cec7f5eb4ad89a7a5c29ebe47afceb8225604051610f199061294c565b60405180910390a1505050610f79565b610f41565b8080610f3990612d16565b915050610b93565b507fa8c7c77332a6db2b5e825b55796b31cec7f5eb4ad89a7a5c29ebe47afceb8225604051610f6f9061292c565b60405180910390a1505b6000600f60006101000a81548160ff021916908315150217905550505050565b600f60009054906101000a900460ff1615610fe9576040517f08c379a0000000000000000000000000000000000000000000000000000000008152600401610fe09061296c565b60405180910390fd5b6001600f60006101000a81548160ff021916908315150217905550600073ffffffffffffffffffffffffffffffffffffffff1660068260405161102c9190612883565b908152602001604051809103902060009054906101000a900473ffffffffffffffffffffffffffffffffffffffff1673ffffffffffffffffffffffffffffffffffffffff1614611122578173ffffffffffffffffffffffffffffffffffffffff1660068260405161109d9190612883565b908152602001604051809103902060009054906101000a900473ffffffffffffffffffffffffffffffffffffffff1673ffffffffffffffffffffffffffffffffffffffff1614611121577fb8859a44a6a59b36c8371bfddb07864fe953621fbb89d35ddf1d3a355149703c6040516111149061292c565b60405180910390a16114d3565b5b6001600360008282546111359190612b20565b925050819055506003546008600001819055508260086001019080519060200190611161929190611eb3565b50806008600201908051906020019061117b929190611eb3565b508360086003019080519060200190611195929190611eb3565b506040518060400160405280600281526020017f4e4f000000000000000000000000000000000000000000000000000000000000815250600860040190805190602001906111e4929190611eb3565b5081600860060160006101000a81548173ffffffffffffffffffffffffffffffffffffffff021916908373ffffffffffffffffffffffffffffffffffffffff1602179055508160068260405161123a9190612883565b908152602001604051809103902060006101000a81548173ffffffffffffffffffffffffffffffffffffffff021916908373ffffffffffffffffffffffffffffffffffffffff1602179055506004600890806001815401808255809150506001900390600052602060002090600702016000909190919091506000820154816000015560018201816001019080546112d190612cb3565b6112dc929190611f5d565b5060028201816002019080546112f190612cb3565b6112fc929190611f5d565b50600382018160030190805461131190612cb3565b61131c929190611f5d565b50600482018160040190805461133190612cb3565b61133c929190611f5d565b50600582015481600501556006820160009054906101000a900473ffffffffffffffffffffffffffffffffffffffff168160060160006101000a81548173ffffffffffffffffffffffffffffffffffffffff021916908373ffffffffffffffffffffffffffffffffffffffff16021790555050506000839080600181540180825580915050600190039060005260206000200160009091909190915090805190602001906113eb929190611eb3565b50600180846040516113fd9190612883565b9081526020016040518091039020600082825461141a9190612b20565b92505081905550600860008082016000905560018201600061143c9190611fea565b60028201600061144c9190611fea565b60038201600061145c9190611fea565b60048201600061146c9190611fea565b60058201600090556006820160006101000a81549073ffffffffffffffffffffffffffffffffffffffff021916905550507fb8859a44a6a59b36c8371bfddb07864fe953621fbb89d35ddf1d3a355149703c6040516114ca9061294c565b60405180910390a15b6000600f60006101000a81548160ff02191690831515021790555050505050565b606060026000611504919061202a565b60005b60008054905081101561165b57600260405180604001604052806000848154811061153557611534612e1d565b5b90600052602060002001805461154a90612cb3565b80601f016020809104026020016040519081016040528092919081815260200182805461157690612cb3565b80156115c35780601f10611598576101008083540402835291602001916115c3565b820191906000526020600020905b8154815290600101906020018083116115a657829003601f168201915b505050505081526020016116116001600086815481106115e6576115e5612e1d565b5b906000526020600020016040516115fd919061289a565b908152602001604051809103902054611cf9565b8152509080600181540180825580915050600190039060005260206000200160009091909190915090600261164792919061204b565b50808061165390612d16565b915050611507565b506002805480602002602001604051908101604052809291908181526020016000905b8282101561177157838290600052602060002001805480602002602001604051908101604052809291908181526020016000905b8282101561175e5783829060005260206000200180546116d190612cb3565b80601f01602080910402602001604051908101604052809291908181526020018280546116fd90612cb3565b801561174a5780601f1061171f5761010080835404028352916020019161174a565b820191906000526020600020905b81548152906001019060200180831161172d57829003601f168201915b5050505050815260200190600101906116b2565b505050508152602001906001019061167e565b50505050905090565b60606007600061178a9190611f39565b60005b6004805490508110156119e957611886600482815481106117b1576117b0612e1d565b5b906000526020600020906007020160040180546117cd90612cb3565b80601f01602080910402602001604051908101604052809291908181526020018280546117f990612cb3565b80156118465780601f1061181b57610100808354040283529160200191611846565b820191906000526020600020905b81548152906001019060200180831161182957829003601f168201915b50505050506040518060400160405280600381526020017f5945530000000000000000000000000000000000000000000000000000000000815250611e5a565b156119d6576007600482815481106118a1576118a0612e1d565b5b906000526020600020906007020190806001815401808255809150506001900390600052602060002090600702016000909190919091506000820154816000015560018201816001019080546118f690612cb3565b611901929190611f5d565b50600282018160020190805461191690612cb3565b611921929190611f5d565b50600382018160030190805461193690612cb3565b611941929190611f5d565b50600482018160040190805461195690612cb3565b611961929190611f5d565b50600582015481600501556006820160009054906101000a900473ffffffffffffffffffffffffffffffffffffffff168160060160006101000a81548173ffffffffffffffffffffffffffffffffffffffff021916908373ffffffffffffffffffffffffffffffffffffffff16021790555050505b80806119e190612d16565b91505061178d565b506007805480602002602001604051908101604052809291908181526020016000905b82821015611cf057838290600052602060002090600702016040518060e001604052908160008201548152602001600182018054611a4990612cb3565b80601f0160208091040260200160405190810160405280929190818152602001828054611a7590612cb3565b8015611ac25780601f10611a9757610100808354040283529160200191611ac2565b820191906000526020600020905b815481529060010190602001808311611aa557829003601f168201915b50505050508152602001600282018054611adb90612cb3565b80601f0160208091040260200160405190810160405280929190818152602001828054611b0790612cb3565b8015611b545780601f10611b2957610100808354040283529160200191611b54565b820191906000526020600020905b815481529060010190602001808311611b3757829003601f168201915b50505050508152602001600382018054611b6d90612cb3565b80601f0160208091040260200160405190810160405280929190818152602001828054611b9990612cb3565b8015611be65780601f10611bbb57610100808354040283529160200191611be6565b820191906000526020600020905b815481529060010190602001808311611bc957829003601f168201915b50505050508152602001600482018054611bff90612cb3565b80601f0160208091040260200160405190810160405280929190818152602001828054611c2b90612cb3565b8015611c785780601f10611c4d57610100808354040283529160200191611c78565b820191906000526020600020905b815481529060010190602001808311611c5b57829003601f168201915b50505050508152602001600582015481526020016006820160009054906101000a900473ffffffffffffffffffffffffffffffffffffffff1673ffffffffffffffffffffffffffffffffffffffff1673ffffffffffffffffffffffffffffffffffffffff168152505081526020019060010190611a0c565b50505050905090565b60606000821415611d41576040518060400160405280600181526020017f30000000000000000000000000000000000000000000000000000000000000008152509050611e55565b600082905060005b60008214611d73578080611d5c90612d16565b915050600a82611d6c9190612b76565b9150611d49565b60008167ffffffffffffffff811115611d8f57611d8e612e4c565b5b6040519080825280601f01601f191660200182016040528015611dc15781602001600182028036833780820191505090505b5090505b60008514611e4e57600182611dda9190612c01565b9150600a85611de99190612d5f565b6030611df59190612b20565b60f81b818381518110611e0b57611e0a612e1d565b5b60200101907effffffffffffffffffffffffffffffffffffffffffffffffffffffffffffff1916908160001a905350600a85611e479190612b76565b9450611dc5565b8093505050505b919050565b600081604051602001611e6d9190612883565b6040516020818303038152906040528051906020012083604051602001611e949190612883565b6040516020818303038152906040528051906020012014905092915050565b828054611ebf90612cb3565b90600052602060002090601f016020900481019282611ee15760008555611f28565b82601f10611efa57805160ff1916838001178555611f28565b82800160010185558215611f28579182015b82811115611f27578251825591602001919060010190611f0c565b5b509050611f3591906120ab565b5090565b5080546000825560070290600052602060002090810190611f5a91906120c8565b50565b828054611f6990612cb3565b90600052602060002090601f016020900481019282611f8b5760008555611fd9565b82601f10611f9c5780548555611fd9565b82800160010185558215611fd957600052602060002091601f016020900482015b82811115611fd8578254825591600101919060010190611fbd565b5b509050611fe691906120ab565b5090565b508054611ff690612cb3565b6000825580601f106120085750612027565b601f01602090049060005260206000209081019061202691906120ab565b5b50565b50805460008255906000526020600020908101906120489190612156565b50565b82805482825590600052602060002090810192821561209a579160200282015b82811115612099578251829080519060200190612089929190611eb3565b509160200191906001019061206b565b5b5090506120a7919061217a565b5090565b5b808211156120c45760008160009055506001016120ac565b5090565b5b80821115612152576000808201600090556001820160006120ea9190611fea565b6002820160006120fa9190611fea565b60038201600061210a9190611fea565b60048201600061211a9190611fea565b60058201600090556006820160006101000a81549073ffffffffffffffffffffffffffffffffffffffff0219169055506007016120c9565b5090565b5b80821115612176576000818161216d919061219e565b50600101612157565b5090565b5b8082111561219a57600081816121919190611fea565b5060010161217b565b5090565b50805460008255906000526020600020908101906121bc919061217a565b50565b60006121d26121cd846129ec565b6129c7565b9050828152602081018484840111156121ee576121ed612e80565b5b6121f9848285612c71565b509392505050565b60008135905061221081612f47565b92915050565b600082601f83011261222b5761222a612e7b565b5b813561223b8482602086016121bf565b91505092915050565b60008135905061225381612f5e565b92915050565b60006020828403121561226f5761226e612e8a565b5b600082013567ffffffffffffffff81111561228d5761228c612e85565b5b61229984828501612216565b91505092915050565b600080600080608085870312156122bc576122bb612e8a565b5b600085013567ffffffffffffffff8111156122da576122d9612e85565b5b6122e687828801612216565b945050602085013567ffffffffffffffff81111561230757612306612e85565b5b61231387828801612216565b935050604061232487828801612201565b925050606085013567ffffffffffffffff81111561234557612344612e85565b5b61235187828801612216565b91505092959194509250565b60006020828403121561237357612372612e8a565b5b600061238184828501612244565b91505092915050565b6000806000606084860312156123a3576123a2612e8a565b5b60006123b186828701612244565b935050602084013567ffffffffffffffff8111156123d2576123d1612e85565b5b6123de86828701612216565b92505060406123ef86828701612201565b9150509250925092565b600080604083850312156124105761240f612e8a565b5b600061241e85828601612244565b925050602061242f85828601612244565b9150509250929050565b600061244583836124f9565b905092915050565b600061245983836125e3565b905092915050565b600061246d83836127b4565b905092915050565b61247e81612c35565b82525050565b600061248f82612a62565b6124998185612ab5565b9350836020820285016124ab85612a1d565b8060005b858110156124e757848403895281516124c88582612439565b94506124d383612a8e565b925060208a019950506001810190506124af565b50829750879550505050505092915050565b600061250482612a6d565b61250e8185612ac6565b93508360208202850161252085612a2d565b8060005b8581101561255c578484038952815161253d858261244d565b945061254883612a9b565b925060208a01995050600181019050612524565b50829750879550505050505092915050565b600061257982612a78565b6125838185612ad7565b93508360208202850161259585612a3d565b8060005b858110156125d157848403895281516125b28582612461565b94506125bd83612aa8565b925060208a01995050600181019050612599565b50829750879550505050505092915050565b60006125ee82612a83565b6125f88185612af3565b9350612608818560208601612c80565b61261181612e8f565b840191505092915050565b600061262782612a83565b6126318185612b04565b9350612641818560208601612c80565b61264a81612e8f565b840191505092915050565b600061266082612a83565b61266a8185612b15565b935061267a818560208601612c80565b80840191505092915050565b6000815461269381612cb3565b61269d8186612b15565b945060018216600081146126b857600181146126c9576126fc565b60ff198316865281860193506126fc565b6126d285612a4d565b60005b838110156126f4578154818901526001820191506020810190506126d5565b838801955050505b50505092915050565b6000612712600283612b04565b915061271d82612ea0565b602082019050919050565b6000612735600383612b04565b915061274082612ec9565b602082019050919050565b6000612758601283612b04565b915061276382612ef2565b602082019050919050565b600061277b600083612ae8565b915061278682612f1b565b600082019050919050565b600061279e601283612b04565b91506127a982612f1e565b602082019050919050565b600060e0830160008301516127cc6000860182612865565b50602083015184820360208601526127e482826125e3565b915050604083015184820360408601526127fe82826125e3565b9150506060830151848203606086015261281882826125e3565b9150506080830151848203608086015261283282826125e3565b91505060a083015161284760a0860182612865565b5060c083015161285a60c0860182612475565b508091505092915050565b61286e81612c67565b82525050565b61287d81612c67565b82525050565b600061288f8284612655565b915081905092915050565b60006128a68284612686565b915081905092915050565b60006128bc8261276e565b9150819050919050565b600060208201905081810360008301526128e08184612484565b905092915050565b60006020820190508181036000830152612902818461256e565b905092915050565b60006020820190508181036000830152612924818461261c565b905092915050565b6000602082019050818103600083015261294581612705565b9050919050565b6000602082019050818103600083015261296581612728565b9050919050565b600060208201905081810360008301526129858161274b565b9050919050565b600060208201905081810360008301526129a581612791565b9050919050565b60006020820190506129c16000830184612874565b92915050565b60006129d16129e2565b90506129dd8282612ce5565b919050565b6000604051905090565b600067ffffffffffffffff821115612a0757612a06612e4c565b5b612a1082612e8f565b9050602081019050919050565b6000819050602082019050919050565b6000819050602082019050919050565b6000819050602082019050919050565b60008190508160005260206000209050919050565b600081519050919050565b600081519050919050565b600081519050919050565b600081519050919050565b6000602082019050919050565b6000602082019050919050565b6000602082019050919050565b600082825260208201905092915050565b600082825260208201905092915050565b600082825260208201905092915050565b600081905092915050565b600082825260208201905092915050565b600082825260208201905092915050565b600081905092915050565b6000612b2b82612c67565b9150612b3683612c67565b9250827fffffffffffffffffffffffffffffffffffffffffffffffffffffffffffffffff03821115612b6b57612b6a612d90565b5b828201905092915050565b6000612b8182612c67565b9150612b8c83612c67565b925082612b9c57612b9b612dbf565b5b828204905092915050565b6000612bb282612c67565b9150612bbd83612c67565b9250817fffffffffffffffffffffffffffffffffffffffffffffffffffffffffffffffff0483118215151615612bf657612bf5612d90565b5b828202905092915050565b6000612c0c82612c67565b9150612c1783612c67565b925082821015612c2a57612c29612d90565b5b828203905092915050565b6000612c4082612c47565b9050919050565b600073ffffffffffffffffffffffffffffffffffffffff82169050919050565b6000819050919050565b82818337600083830152505050565b60005b83811015612c9e578082015181840152602081019050612c83565b83811115612cad576000848401525b50505050565b60006002820490506001821680612ccb57607f821691505b60208210811415612cdf57612cde612dee565b5b50919050565b612cee82612e8f565b810181811067ffffffffffffffff82111715612d0d57612d0c612e4c565b5b80604052505050565b6000612d2182612c67565b91507fffffffffffffffffffffffffffffffffffffffffffffffffffffffffffffffff821415612d5457612d53612d90565b5b600182019050919050565b6000612d6a82612c67565b9150612d7583612c67565b925082612d8557612d84612dbf565b5b828206905092915050565b7f4e487b7100000000000000000000000000000000000000000000000000000000600052601160045260246000fd5b7f4e487b7100000000000000000000000000000000000000000000000000000000600052601260045260246000fd5b7f4e487b7100000000000000000000000000000000000000000000000000000000600052602260045260246000fd5b7f4e487b7100000000000000000000000000000000000000000000000000000000600052603260045260246000fd5b7f4e487b7100000000000000000000000000000000000000000000000000000000600052604160045260246000fd5b600080fd5b600080fd5b600080fd5b600080fd5b6000601f19601f8301169050919050565b7f4e4f000000000000000000000000000000000000000000000000000000000000600082015250565b7f5945530000000000000000000000000000000000000000000000000000000000600082015250565b7f46756e6374696f6e206973206c6f636b65640000000000000000000000000000600082015250565b50565b7f5472616e73616374696f6e204661696c65640000000000000000000000000000600082015250565b612f5081612c35565b8114612f5b57600080fd5b50565b612f6781612c67565b8114612f7257600080fd5b5056fea2646970667358221220f9099a4075f5de4b4e55f847272ac9a0b8eb5d0edd6922cc07cf54e1f17d5e8464736f6c63430008050033",
  "immutableReferences": {},
  "source": "//SPDX-License-Identifier: UNLICENSED\r\n\r\npragma solidity ^0.8.0;\r\ncontract nfts\r\n{\r\n    event nftMinted(string success);\r\n    event nftTransferred(string success);\r\n    event interestMarked(string success);\r\n    event disinterestMarked(string success);\r\n    struct NFT\r\n    {\r\n        uint256 nftID;\r\n        string userid;\r\n        string cid;\r\n        string title;\r\n        string sell;\r\n        uint256 price;\r\n        address metamaskaddress;\r\n    }\r\n    string[] private _minters;\r\n    mapping (string => uint) private _mintCount;\r\n    string[][] private _mintArr;\r\n    uint256 private nftCount = 0;\r\n    NFT[] private _nft;\r\n    NFT[] private _retrieveNFT;\r\n    mapping (string => address) private _alreadyMinted;\r\n    NFT[] private _interestedNFT;\r\n    NFT private new_nft;\r\n    bool private locked;\r\n    modifier lock\r\n    {\r\n        require(!locked, \"Function is locked\");\r\n        locked = true;\r\n        _;\r\n        locked = false;\r\n    }\r\n    function getBalance() public view returns (uint256)\r\n    {\r\n        return address(this).balance;\r\n    }\r\n    receive() external payable {}\r\n    fallback() external payable {}\r\n    function _areEqual(string memory a, string memory b) internal pure returns (bool)\r\n    {\r\n        return (keccak256(abi.encodePacked(a)) == keccak256(abi.encodePacked(b)));\r\n    }\r\n    function uint256ToString(uint256 value) public pure returns (string memory)\r\n    {\r\n        if(value==0)\r\n        {\r\n            return \"0\";\r\n        }\r\n        uint256 temp = value;\r\n        uint256 digits;\r\n        while (temp != 0)\r\n        {\r\n            digits++;\r\n            temp /= 10;\r\n        }\r\n        bytes memory buffer = new bytes(digits);\r\n        while (value != 0)\r\n        {\r\n            digits -= 1;\r\n            buffer[digits] = bytes1(uint8(48 + uint256(value % 10)));\r\n            value /= 10;\r\n        }\r\n        return string(buffer);\r\n    }\r\n    function mint(string memory t, string memory id, address metamask, string memory cd) public lock\r\n    {\r\n        if(_alreadyMinted[cd] != address(0))\r\n        {\r\n            if(_alreadyMinted[cd]!=metamask)\r\n            {\r\n                emit nftMinted(\"NO\");\r\n                return;\r\n            }\r\n        }\r\n        nftCount +=1 ;\r\n        new_nft.nftID = nftCount;\r\n        new_nft.userid = id;\r\n        new_nft.cid = cd;\r\n        new_nft.title = t;\r\n        new_nft.sell = \"NO\";\r\n        new_nft.metamaskaddress = metamask;\r\n        _alreadyMinted[cd]=metamask;\r\n        _nft.push(new_nft);\r\n        _minters.push(id);\r\n        _mintCount[id]+=1;\r\n        delete new_nft;\r\n        emit nftMinted(\"YES\");\r\n    }\r\n    function getMintCount() public returns (string[][] memory)\r\n    {\r\n        delete _mintArr;\r\n        for(uint i=0;i<_minters.length;i++)\r\n        {\r\n            _mintArr.push([_minters[i],uint256ToString(_mintCount[_minters[i]])]);\r\n        }\r\n        return _mintArr;\r\n    }\r\n    function retrieve(string memory id) public lock returns(NFT[] memory)\r\n    {\r\n        delete _retrieveNFT;\r\n        for(uint256 i=0; i<_nft.length; i++)\r\n        {\r\n            if(_areEqual(_nft[i].userid, id))\r\n            {\r\n                _retrieveNFT.push(_nft[i]);\r\n            }\r\n        }\r\n        return _retrieveNFT;\r\n    }\r\n    function interest(uint256 id, uint256 amount) public lock\r\n    {\r\n        for(uint256 i=0; i<_nft.length; i++)\r\n        {\r\n            if(_nft[i].nftID==id)\r\n            {\r\n                _nft[i].sell = \"YES\";\r\n                _nft[i].price = amount;\r\n                emit interestMarked(\"YES\");\r\n                return;\r\n            }\r\n        }\r\n        emit interestMarked(\"NO\");\r\n    }\r\n    function disinterest(uint256 id) public\r\n    {\r\n        for(uint256 i=0; i<_nft.length; i++)\r\n        {\r\n            if(_nft[i].nftID==id)\r\n            {\r\n                _nft[i].sell = \"NO\";\r\n                emit disinterestMarked(\"YES\");\r\n                return;\r\n            }\r\n        }\r\n        emit disinterestMarked(\"NO\");\r\n    }\r\n    function retrieveInterests() public returns(NFT[] memory)\r\n    {\r\n        delete _interestedNFT;\r\n        for(uint256 i=0; i<_nft.length; i++)\r\n        {\r\n            if(_areEqual(_nft[i].sell, \"YES\"))\r\n            {\r\n                _interestedNFT.push(_nft[i]);\r\n            }\r\n        }\r\n        return _interestedNFT;\r\n    }\r\n    function buy(uint256 id, string memory uid, address metamask) public lock payable\r\n    {\r\n        uint256 mul = 1000000000000000000;\r\n        for(uint256 i=0; i<_nft.length; i++)\r\n        {\r\n            if(_nft[i].nftID==id)\r\n            {\r\n                if(_areEqual(_nft[i].sell, \"YES\"))\r\n                {\r\n                    (bool sent,) = address(_nft[i].metamaskaddress).call{value: _nft[i].price*mul}(\"\");\r\n                    require(sent, \"Transaction Failed\");\r\n                    _nft[i].userid = uid;\r\n                    _nft[i].metamaskaddress = metamask;\r\n                    _nft[i].sell = \"NO\";\r\n                    emit nftTransferred(\"YES\");\r\n                    return;\r\n                }\r\n                break;\r\n            }\r\n        }\r\n        emit nftTransferred(\"NO\");\r\n        return;\r\n    }\r\n}",
  "sourcePath": "C:\\Users\\krish\\Desktop\\Project\\contracts\\NFTs.sol",
  "compiler": {
    "name": "solc",
    "version": "0.8.5+commit.a4f2e591.Emscripten.clang"
  },
  "schemaVersion": "3.4.16",
  "updatedAt": "2024-11-10T12:44:59.247Z",
  "networkType": "ethereum",
  "devdoc": {
    "kind": "dev",
    "methods": {},
    "version": 1
  },
  "userdoc": {
    "kind": "user",
    "methods": {},
    "version": 1
  }
}