{
  "contractName": "shares",
  "abi": [
    {
      "anonymous": false,
      "inputs": [
        {
          "indexed": false,
          "internalType": "string",
          "name": "success",
          "type": "string"
        }
      ],
      "name": "disinterestMarked",
      "type": "event"
    },
    {
      "anonymous": false,
      "inputs": [
        {
          "indexed": false,
          "internalType": "string",
          "name": "success",
          "type": "string"
        }
      ],
      "name": "infoupdated",
      "type": "event"
    },
    {
      "anonymous": false,
      "inputs": [
        {
          "indexed": false,
          "internalType": "string",
          "name": "success",
          "type": "string"
        }
      ],
      "name": "interestMarked",
      "type": "event"
    },
    {
      "anonymous": false,
      "inputs": [
        {
          "indexed": false,
          "internalType": "string",
          "name": "success",
          "type": "string"
        },
        {
          "indexed": false,
          "internalType": "bytes32",
          "name": "verificationStr",
          "type": "bytes32"
        }
      ],
      "name": "sharesBoughtEvent",
      "type": "event"
    },
    {
      "anonymous": false,
      "inputs": [
        {
          "indexed": false,
          "internalType": "string",
          "name": "success",
          "type": "string"
        },
        {
          "indexed": false,
          "internalType": "bytes32",
          "name": "verificationStr",
          "type": "bytes32"
        }
      ],
      "name": "sharesShared",
      "type": "event"
    },
    {
      "stateMutability": "payable",
      "type": "fallback",
      "payable": true
    },
    {
      "stateMutability": "payable",
      "type": "receive",
      "payable": true
    },
    {
      "inputs": [],
      "name": "getBalance",
      "outputs": [
        {
          "internalType": "uint256",
          "name": "",
          "type": "uint256"
        }
      ],
      "stateMutability": "view",
      "type": "function",
      "constant": true
    },
    {
      "inputs": [
        {
          "internalType": "uint256",
          "name": "value",
          "type": "uint256"
        }
      ],
      "name": "uint256ToString",
      "outputs": [
        {
          "internalType": "string",
          "name": "",
          "type": "string"
        }
      ],
      "stateMutability": "pure",
      "type": "function",
      "constant": true
    },
    {
      "inputs": [
        {
          "internalType": "string",
          "name": "title",
          "type": "string"
        },
        {
          "internalType": "string",
          "name": "id",
          "type": "string"
        },
        {
          "internalType": "string",
          "name": "desc",
          "type": "string"
        },
        {
          "internalType": "uint256",
          "name": "a",
          "type": "uint256"
        },
        {
          "internalType": "uint256",
          "name": "l",
          "type": "uint256"
        },
        {
          "internalType": "uint256",
          "name": "value",
          "type": "uint256"
        },
        {
          "internalType": "uint256",
          "name": "count",
          "type": "uint256"
        },
        {
          "internalType": "address",
          "name": "metamask",
          "type": "address"
        }
      ],
      "name": "addIdeator",
      "outputs": [],
      "stateMutability": "nonpayable",
      "type": "function"
    },
    {
      "inputs": [
        {
          "internalType": "string",
          "name": "id",
          "type": "string"
        },
        {
          "internalType": "string",
          "name": "desc",
          "type": "string"
        },
        {
          "internalType": "uint256",
          "name": "a",
          "type": "uint256"
        },
        {
          "internalType": "uint256",
          "name": "l",
          "type": "uint256"
        }
      ],
      "name": "updateIdeator",
      "outputs": [],
      "stateMutability": "nonpayable",
      "type": "function"
    },
    {
      "inputs": [
        {
          "internalType": "string",
          "name": "id",
          "type": "string"
        }
      ],
      "name": "getIdeator",
      "outputs": [
        {
          "components": [
            {
              "internalType": "string",
              "name": "name",
              "type": "string"
            },
            {
              "internalType": "string",
              "name": "userid",
              "type": "string"
            },
            {
              "internalType": "string",
              "name": "about",
              "type": "string"
            },
            {
              "internalType": "string[]",
              "name": "investors",
              "type": "string[]"
            },
            {
              "internalType": "uint256[][]",
              "name": "sharesbought",
              "type": "uint256[][]"
            },
            {
              "internalType": "uint256[][]",
              "name": "boughtFor",
              "type": "uint256[][]"
            },
            {
              "internalType": "bytes32[][]",
              "name": "verifyStrings",
              "type": "bytes32[][]"
            },
            {
              "internalType": "uint256[]",
              "name": "assets",
              "type": "uint256[]"
            },
            {
              "internalType": "uint256[]",
              "name": "liabilities",
              "type": "uint256[]"
            },
            {
              "internalType": "uint256",
              "name": "pv",
              "type": "uint256"
            },
            {
              "internalType": "uint256",
              "name": "shares",
              "type": "uint256"
            },
            {
              "internalType": "uint256",
              "name": "sharesLeft",
              "type": "uint256"
            },
            {
              "internalType": "uint256[]",
              "name": "timestamp",
              "type": "uint256[]"
            },
            {
              "internalType": "address",
              "name": "metamaskaddress",
              "type": "address"
            }
          ],
          "internalType": "struct shares.Profile",
          "name": "",
          "type": "tuple"
        }
      ],
      "stateMutability": "view",
      "type": "function",
      "constant": true
    },
    {
      "inputs": [],
      "name": "retrieve",
      "outputs": [
        {
          "components": [
            {
              "internalType": "string",
              "name": "name",
              "type": "string"
            },
            {
              "internalType": "string",
              "name": "userid",
              "type": "string"
            },
            {
              "internalType": "string",
              "name": "about",
              "type": "string"
            },
            {
              "internalType": "string[]",
              "name": "investors",
              "type": "string[]"
            },
            {
              "internalType": "uint256[][]",
              "name": "sharesbought",
              "type": "uint256[][]"
            },
            {
              "internalType": "uint256[][]",
              "name": "boughtFor",
              "type": "uint256[][]"
            },
            {
              "internalType": "bytes32[][]",
              "name": "verifyStrings",
              "type": "bytes32[][]"
            },
            {
              "internalType": "uint256[]",
              "name": "assets",
              "type": "uint256[]"
            },
            {
              "internalType": "uint256[]",
              "name": "liabilities",
              "type": "uint256[]"
            },
            {
              "internalType": "uint256",
              "name": "pv",
              "type": "uint256"
            },
            {
              "internalType": "uint256",
              "name": "shares",
              "type": "uint256"
            },
            {
              "internalType": "uint256",
              "name": "sharesLeft",
              "type": "uint256"
            },
            {
              "internalType": "uint256[]",
              "name": "timestamp",
              "type": "uint256[]"
            },
            {
              "internalType": "address",
              "name": "metamaskaddress",
              "type": "address"
            }
          ],
          "internalType": "struct shares.Profile[]",
          "name": "",
          "type": "tuple[]"
        }
      ],
      "stateMutability": "view",
      "type": "function",
      "constant": true
    },
    {
      "inputs": [
        {
          "internalType": "string",
          "name": "id",
          "type": "string"
        },
        {
          "internalType": "string",
          "name": "investorid",
          "type": "string"
        },
        {
          "internalType": "uint256",
          "name": "boughtCount",
          "type": "uint256"
        },
        {
          "internalType": "uint256",
          "name": "bVal",
          "type": "uint256"
        },
        {
          "internalType": "uint256",
          "name": "dec",
          "type": "uint256"
        },
        {
          "internalType": "address",
          "name": "metamask",
          "type": "address"
        },
        {
          "internalType": "string",
          "name": "combin",
          "type": "string"
        }
      ],
      "name": "invest",
      "outputs": [],
      "stateMutability": "payable",
      "type": "function",
      "payable": true
    },
    {
      "inputs": [
        {
          "internalType": "bytes32",
          "name": "str",
          "type": "bytes32"
        }
      ],
      "name": "verifydocument",
      "outputs": [
        {
          "internalType": "string[5]",
          "name": "",
          "type": "string[5]"
        }
      ],
      "stateMutability": "view",
      "type": "function",
      "constant": true
    },
    {
      "inputs": [
        {
          "internalType": "string",
          "name": "id",
          "type": "string"
        },
        {
          "internalType": "string",
          "name": "investorID",
          "type": "string"
        },
        {
          "internalType": "uint256",
          "name": "shareCount",
          "type": "uint256"
        }
      ],
      "name": "interest",
      "outputs": [],
      "stateMutability": "nonpayable",
      "type": "function"
    },
    {
      "inputs": [
        {
          "internalType": "string",
          "name": "id",
          "type": "string"
        },
        {
          "internalType": "string",
          "name": "investorID",
          "type": "string"
        },
        {
          "internalType": "uint256",
          "name": "shareCount",
          "type": "uint256"
        }
      ],
      "name": "disinterest",
      "outputs": [],
      "stateMutability": "nonpayable",
      "type": "function"
    },
    {
      "inputs": [
        {
          "internalType": "string",
          "name": "id",
          "type": "string"
        }
      ],
      "name": "retrieveInterests",
      "outputs": [
        {
          "internalType": "string[][]",
          "name": "",
          "type": "string[][]"
        }
      ],
      "stateMutability": "view",
      "type": "function",
      "constant": true
    },
    {
      "inputs": [
        {
          "internalType": "string",
          "name": "ideatorID",
          "type": "string"
        },
        {
          "internalType": "string",
          "name": "toID",
          "type": "string"
        },
        {
          "internalType": "string",
          "name": "fromID",
          "type": "string"
        },
        {
          "internalType": "uint256",
          "name": "shareCount",
          "type": "uint256"
        },
        {
          "internalType": "uint256",
          "name": "bVal",
          "type": "uint256"
        },
        {
          "internalType": "uint256",
          "name": "dec",
          "type": "uint256"
        },
        {
          "internalType": "address",
          "name": "metamask",
          "type": "address"
        },
        {
          "internalType": "string",
          "name": "combin",
          "type": "string"
        }
      ],
      "name": "transfer",
      "outputs": [],
      "stateMutability": "payable",
      "type": "function",
      "payable": true
    }
  ],
  "bytecode": "0x608060405234801561001057600080fd5b50615aa480620000216000396000f3fe6080604052600436106100ab5760003560e01c806361cc5b701161006457806361cc5b70146101b5578063864d04d2146101d1578063cbc7208d1461020e578063ce7e51e314610237578063d73ae4c814610274578063e17cdce7146102b1576100b2565b80630a39120b146100b457806312065fe0146100d05780632e64cec1146100fb5780632f4a73651461012657806331e27676146101635780634b7cb2da1461018c576100b2565b366100b257005b005b6100ce60048036038101906100c99190614829565b6102da565b005b3480156100dc57600080fd5b506100e5610c78565b6040516100f29190615388565b60405180910390f35b34801561010757600080fd5b50610110610c80565b60405161011d9190615248565b60405180910390f35b34801561013257600080fd5b5061014d60048036038101906101489190614486565b6112c8565b60405161015a9190615366565b60405180910390f35b34801561016f57600080fd5b5061018a600480360381019061018591906145f5565b6119e1565b005b34801561019857600080fd5b506101b360048036038101906101ae919061478a565b611ded565b005b6101cf60048036038101906101ca91906144cf565b612062565b005b3480156101dd57600080fd5b506101f860048036038101906101f39190614486565b61326b565b6040516102059190615204565b60405180910390f35b34801561021a57600080fd5b50610235600480360381019061023091906146ff565b6133a9565b005b34801561024357600080fd5b5061025e6004803603810190610259919061491f565b6136e7565b60405161026b919061526a565b60405180910390f35b34801561028057600080fd5b5061029b60048036038101906102969190614459565b613848565b6040516102a89190615226565b60405180910390f35b3480156102bd57600080fd5b506102d860048036038101906102d391906146ff565b613928565b005b601260009054906101000a900460ff161561032a576040517f08c379a000000000000000000000000000000000000000000000000000000000815260040161032190615326565b60405180910390fd5b6001601260006101000a81548160ff0219169083151502179055506000818051906020012090506000670de0b6b3a7640000905060005b600080549050811015610c505761042560008281548110610385576103846158ff565b5b90600052602060002090600e020160010180546103a190615795565b80601f01602080910402602001604051908101604052809291908181526020018280546103cd90615795565b801561041a5780601f106103ef5761010080835404028352916020019161041a565b820191906000526020600020905b8154815290600101906020018083116103fd57829003601f168201915b50505050508b613cf0565b15610c3d57876000828154811061043f5761043e6158ff565b5b90600052602060002090600e0201600b01541015610494577f039fb56d8b294de9f3be7ccac7785101639e57d1992a5264742b1dd1da9aa115604051610484906152ac565b60405180910390a1505050610c54565b60005b868110156104c157600a836104ac919061564e565b925080806104b9906157f8565b915050610497565b5060008082815481106104d7576104d66158ff565b5b90600052602060002090600e0201600d0160009054906101000a900473ffffffffffffffffffffffffffffffffffffffff1673ffffffffffffffffffffffffffffffffffffffff1683898b61052c919061567f565b610536919061567f565b604051610542906151ef565b60006040518083038185875af1925050503d806000811461057f576040519150601f19603f3d011682016040523d82523d6000602084013e610584565b606091505b50509050806105c8576040517f08c379a00000000000000000000000000000000000000000000000000000000081526004016105bf90615346565b60405180910390fd5b600073c4190a00e34c4c7c2b46c0a2309f8d0d7db3a7b773ffffffffffffffffffffffffffffffffffffffff1647604051610602906151ef565b60006040518083038185875af1925050503d806000811461063f576040519150601f19603f3d011682016040523d82523d6000602084013e610644565b606091505b5050905080610688576040517f08c379a000000000000000000000000000000000000000000000000000000000815260040161067f90615346565b60405180910390fd5b8389610694919061567f565b98508660038c6040516106a791906151d8565b908152602001604051809103902060006101000a81548173ffffffffffffffffffffffffffffffffffffffff021916908373ffffffffffffffffffffffffffffffffffffffff1602179055506040518060a001604052808d81526020018c81526020016107138c6136e7565b8152602001610721426136e7565b815260200161072f8c6136e7565b81525060026000878152602001908152602001600020906005610753929190613d49565b5060005b6000848154811061076b5761076a6158ff565b5b90600052602060002090600e020160030180549050811015610a285761085a6000858154811061079e5761079d6158ff565b5b90600052602060002090600e020160030182815481106107c1576107c06158ff565b5b9060005260206000200180546107d690615795565b80601f016020809104026020016040519081016040528092919081815260200182805461080290615795565b801561084f5780601f106108245761010080835404028352916020019161084f565b820191906000526020600020905b81548152906001019060200180831161083257829003601f168201915b50505050508d613cf0565b15610a155760008481548110610873576108726158ff565b5b90600052602060002090600e02016004018181548110610896576108956158ff565b5b906000526020600020018b90806001815401808255809150506001900390600052602060002001600090919091909150558a600085815481106108dc576108db6158ff565b5b90600052602060002090600e0201600b0160008282546108fc91906156d9565b9250508190555060008481548110610917576109166158ff565b5b90600052602060002090600e0201600501818154811061093a576109396158ff565b5b906000526020600020018a90806001815401808255809150506001900390600052602060002001600090919091909150556000848154811061097f5761097e6158ff565b5b90600052602060002090600e020160060181815481106109a2576109a16158ff565b5b906000526020600020018690806001815401808255809150506001900390600052602060002001600090919091909150557f039fb56d8b294de9f3be7ccac7785101639e57d1992a5264742b1dd1da9aa11586604051610a0291906152f8565b60405180910390a1505050505050610c54565b8080610a20906157f8565b915050610757565b5060008381548110610a3d57610a3c6158ff565b5b90600052602060002090600e02016003018b908060018154018082558091505060019003906000526020600020016000909190919091509080519060200190610a87929190613d9c565b5060008381548110610a9c57610a9b6158ff565b5b90600052602060002090600e020160040160405180602001604052808c81525090806001815401808255809150506001900390600052602060002001600090919091909150906001610aef929190613e22565b5060008381548110610b0457610b036158ff565b5b90600052602060002090600e020160050160405180602001604052808b81525090806001815401808255809150506001900390600052602060002001600090919091909150906001610b57929190613e22565b5060008381548110610b6c57610b6b6158ff565b5b90600052602060002090600e020160060160405180602001604052808781525090806001815401808255809150506001900390600052602060002001600090919091909150906001610bbf929190613e6f565b508960008481548110610bd557610bd46158ff565b5b90600052602060002090600e0201600b016000828254610bf591906156d9565b925050819055507f039fb56d8b294de9f3be7ccac7785101639e57d1992a5264742b1dd1da9aa11585604051610c2b91906152f8565b60405180910390a15050505050610c54565b8080610c48906157f8565b915050610361565b5050505b6000601260006101000a81548160ff02191690831515021790555050505050505050565b600047905090565b60606000805480602002602001604051908101604052809291908181526020016000905b828210156112bf57838290600052602060002090600e0201604051806101c0016040529081600082018054610cd890615795565b80601f0160208091040260200160405190810160405280929190818152602001828054610d0490615795565b8015610d515780601f10610d2657610100808354040283529160200191610d51565b820191906000526020600020905b815481529060010190602001808311610d3457829003601f168201915b50505050508152602001600182018054610d6a90615795565b80601f0160208091040260200160405190810160405280929190818152602001828054610d9690615795565b8015610de35780601f10610db857610100808354040283529160200191610de3565b820191906000526020600020905b815481529060010190602001808311610dc657829003601f168201915b50505050508152602001600282018054610dfc90615795565b80601f0160208091040260200160405190810160405280929190818152602001828054610e2890615795565b8015610e755780601f10610e4a57610100808354040283529160200191610e75565b820191906000526020600020905b815481529060010190602001808311610e5857829003601f168201915b5050505050815260200160038201805480602002602001604051908101604052809291908181526020016000905b82821015610f4f578382906000526020600020018054610ec290615795565b80601f0160208091040260200160405190810160405280929190818152602001828054610eee90615795565b8015610f3b5780601f10610f1057610100808354040283529160200191610f3b565b820191906000526020600020905b815481529060010190602001808311610f1e57829003601f168201915b505050505081526020019060010190610ea3565b50505050815260200160048201805480602002602001604051908101604052809291908181526020016000905b82821015610fee57838290600052602060002001805480602002602001604051908101604052809291908181526020018280548015610fda57602002820191906000526020600020905b815481526020019060010190808311610fc6575b505050505081526020019060010190610f7c565b50505050815260200160058201805480602002602001604051908101604052809291908181526020016000905b8282101561108d5783829060005260206000200180548060200260200160405190810160405280929190818152602001828054801561107957602002820191906000526020600020905b815481526020019060010190808311611065575b50505050508152602001906001019061101b565b50505050815260200160068201805480602002602001604051908101604052809291908181526020016000905b8282101561112c5783829060005260206000200180548060200260200160405190810160405280929190818152602001828054801561111857602002820191906000526020600020905b815481526020019060010190808311611104575b5050505050815260200190600101906110ba565b5050505081526020016007820180548060200260200160405190810160405280929190818152602001828054801561118357602002820191906000526020600020905b81548152602001906001019080831161116f575b50505050508152602001600882018054806020026020016040519081016040528092919081815260200182805480156111db57602002820191906000526020600020905b8154815260200190600101908083116111c7575b5050505050815260200160098201548152602001600a8201548152602001600b8201548152602001600c820180548060200260200160405190810160405280929190818152602001828054801561125157602002820191906000526020600020905b81548152602001906001019080831161123d575b50505050508152602001600d820160009054906101000a900473ffffffffffffffffffffffffffffffffffffffff1673ffffffffffffffffffffffffffffffffffffffff1673ffffffffffffffffffffffffffffffffffffffff168152505081526020019060010190610ca4565b50505050905090565b6112d0613ebc565b6112d8613ebc565b60005b6000805490508110156119d65761139f600082815481106112ff576112fe6158ff565b5b90600052602060002090600e0201600101805461131b90615795565b80601f016020809104026020016040519081016040528092919081815260200182805461134790615795565b80156113945780601f1061136957610100808354040283529160200191611394565b820191906000526020600020905b81548152906001019060200180831161137757829003601f168201915b505050505085613cf0565b156119c357600081815481106113b8576113b76158ff565b5b90600052602060002090600e0201604051806101c00160405290816000820180546113e290615795565b80601f016020809104026020016040519081016040528092919081815260200182805461140e90615795565b801561145b5780601f106114305761010080835404028352916020019161145b565b820191906000526020600020905b81548152906001019060200180831161143e57829003601f168201915b5050505050815260200160018201805461147490615795565b80601f01602080910402602001604051908101604052809291908181526020018280546114a090615795565b80156114ed5780601f106114c2576101008083540402835291602001916114ed565b820191906000526020600020905b8154815290600101906020018083116114d057829003601f168201915b5050505050815260200160028201805461150690615795565b80601f016020809104026020016040519081016040528092919081815260200182805461153290615795565b801561157f5780601f106115545761010080835404028352916020019161157f565b820191906000526020600020905b81548152906001019060200180831161156257829003601f168201915b5050505050815260200160038201805480602002602001604051908101604052809291908181526020016000905b828210156116595783829060005260206000200180546115cc90615795565b80601f01602080910402602001604051908101604052809291908181526020018280546115f890615795565b80156116455780601f1061161a57610100808354040283529160200191611645565b820191906000526020600020905b81548152906001019060200180831161162857829003601f168201915b5050505050815260200190600101906115ad565b50505050815260200160048201805480602002602001604051908101604052809291908181526020016000905b828210156116f8578382906000526020600020018054806020026020016040519081016040528092919081815260200182805480156116e457602002820191906000526020600020905b8154815260200190600101908083116116d0575b505050505081526020019060010190611686565b50505050815260200160058201805480602002602001604051908101604052809291908181526020016000905b828210156117975783829060005260206000200180548060200260200160405190810160405280929190818152602001828054801561178357602002820191906000526020600020905b81548152602001906001019080831161176f575b505050505081526020019060010190611725565b50505050815260200160068201805480602002602001604051908101604052809291908181526020016000905b828210156118365783829060005260206000200180548060200260200160405190810160405280929190818152602001828054801561182257602002820191906000526020600020905b81548152602001906001019080831161180e575b5050505050815260200190600101906117c4565b5050505081526020016007820180548060200260200160405190810160405280929190818152602001828054801561188d57602002820191906000526020600020905b815481526020019060010190808311611879575b50505050508152602001600882018054806020026020016040519081016040528092919081815260200182805480156118e557602002820191906000526020600020905b8154815260200190600101908083116118d1575b5050505050815260200160098201548152602001600a8201548152602001600b8201548152602001600c820180548060200260200160405190810160405280929190818152602001828054801561195b57602002820191906000526020600020905b815481526020019060010190808311611947575b50505050508152602001600d820160009054906101000a900473ffffffffffffffffffffffffffffffffffffffff1673ffffffffffffffffffffffffffffffffffffffff1673ffffffffffffffffffffffffffffffffffffffff1681525050925050506119dc565b80806119ce906157f8565b9150506112db565b50809150505b919050565b87600460000190805190602001906119fa929190613d9c565b508660046001019080519060200190611a14929190613d9c565b508560046002019080519060200190611a2e929190613d9c565b506004600701859080600181540180825580915050600190039060005260206000200160009091909190915055600460080184908060018154018082558091505060019003906000526020600020016000909190919091505582600460090181905550816004600a0181905550816004600b01819055506004600c01429080600181540180825580915050600190039060005260206000200160009091909190915055806004600d0160006101000a81548173ffffffffffffffffffffffffffffffffffffffff021916908373ffffffffffffffffffffffffffffffffffffffff1602179055506000600490806001815401808255809150506001900390600052602060002090600e02016000909190919091506000820181600001908054611b5690615795565b611b61929190613f41565b506001820181600101908054611b7690615795565b611b81929190613f41565b506002820181600201908054611b9690615795565b611ba1929190613f41565b506003820181600301908054611bb8929190613fce565b506004820181600401908054611bcf929190614036565b506005820181600501908054611be6929190614036565b506006820181600601908054611bfd929190614095565b506007820181600701908054611c149291906140f4565b506008820181600801908054611c2b9291906140f4565b5060098201548160090155600a82015481600a0155600b82015481600b0155600c820181600c01908054611c609291906140f4565b50600d820160009054906101000a900473ffffffffffffffffffffffffffffffffffffffff1681600d0160006101000a81548173ffffffffffffffffffffffffffffffffffffffff021916908373ffffffffffffffffffffffffffffffffffffffff1602179055505050600460008082016000611cdd9190614146565b600182016000611ced9190614146565b600282016000611cfd9190614146565b600382016000611d0d9190614186565b600482016000611d1d91906141a7565b600582016000611d2d91906141a7565b600682016000611d3d91906141c8565b600782016000611d4d91906141e9565b600882016000611d5d91906141e9565b6009820160009055600a820160009055600b820160009055600c82016000611d8591906141e9565b600d820160006101000a81549073ffffffffffffffffffffffffffffffffffffffff021916905550507f04641a808e005acdfd3473cf641c9e9438bf81b609c32563bc994d60a350d045604051611ddb906152d8565b60405180910390a15050505050505050565b60005b60008054905081101561202557611eb460008281548110611e1457611e136158ff565b5b90600052602060002090600e02016001018054611e3090615795565b80601f0160208091040260200160405190810160405280929190818152602001828054611e5c90615795565b8015611ea95780601f10611e7e57610100808354040283529160200191611ea9565b820191906000526020600020905b815481529060010190602001808311611e8c57829003601f168201915b505050505086613cf0565b15612012578360008281548110611ece57611ecd6158ff565b5b90600052602060002090600e02016002019080519060200190611ef2929190613d9c565b5060008181548110611f0757611f066158ff565b5b90600052602060002090600e020160070183908060018154018082558091505060019003906000526020600020016000909190919091505560008181548110611f5357611f526158ff565b5b90600052602060002090600e020160080182908060018154018082558091505060019003906000526020600020016000909190919091505560008181548110611f9f57611f9e6158ff565b5b90600052602060002090600e0201600c014290806001815401808255809150506001900390600052602060002001600090919091909150557f04641a808e005acdfd3473cf641c9e9438bf81b609c32563bc994d60a350d045604051612004906152d8565b60405180910390a15061205c565b808061201d906157f8565b915050611df0565b507f04641a808e005acdfd3473cf641c9e9438bf81b609c32563bc994d60a350d0456040516120539061528c565b60405180910390a15b50505050565b601260009054906101000a900460ff16156120b2576040517f08c379a00000000000000000000000000000000000000000000000000000000081526004016120a990615326565b60405180910390fd5b6001601260006101000a81548160ff0219169083151502179055506000818051906020012090506000670de0b6b3a764000090506000805b60018c6040516120fa91906151d8565b908152602001604051809103902080549050811015612312576121fc60018d60405161212691906151d8565b90815260200160405180910390208281548110612146576121456158ff565b5b90600052602060002001600081548110612163576121626158ff565b5b90600052602060002001805461217890615795565b80601f01602080910402602001604051908101604052809291908181526020018280546121a490615795565b80156121f15780601f106121c6576101008083540402835291602001916121f1565b820191906000526020600020905b8154815290600101906020018083116121d457829003601f168201915b50505050508b613cf0565b80156122f557506122f460018d60405161221691906151d8565b90815260200160405180910390208281548110612236576122356158ff565b5b90600052602060002001600181548110612253576122526158ff565b5b90600052602060002001805461226890615795565b80601f016020809104026020016040519081016040528092919081815260200182805461229490615795565b80156122e15780601f106122b6576101008083540402835291602001916122e1565b820191906000526020600020905b8154815290600101906020018083116122c457829003601f168201915b50505050506122ef8b6136e7565b613cf0565b5b156122ff57600191505b808061230a906157f8565b9150506120ea565b5080612355577f8a2a8962fd3e9ce7e36180c4f14d7455bff9d0395814fb286de8e0adb0ac0248604051612345906152ac565b60405180910390a1505050613246565b60005b6000805490508110156132415761241c6000828154811061237c5761237b6158ff565b5b90600052602060002090600e0201600101805461239890615795565b80601f01602080910402602001604051908101604052809291908181526020018280546123c490615795565b80156124115780601f106123e657610100808354040283529160200191612411565b820191906000526020600020905b8154815290600101906020018083116123f457829003601f168201915b50505050508d613cf0565b1561322e5760005b60008281548110612438576124376158ff565b5b90600052602060002090600e020160030180549050811015612cea576125276000838154811061246b5761246a6158ff565b5b90600052602060002090600e0201600301828154811061248e5761248d6158ff565b5b9060005260206000200180546124a390615795565b80601f01602080910402602001604051908101604052809291908181526020018280546124cf90615795565b801561251c5780601f106124f15761010080835404028352916020019161251c565b820191906000526020600020905b8154815290600101906020018083116124ff57829003601f168201915b50505050508c613cf0565b15612cd7576000805b60008481548110612544576125436158ff565b5b90600052602060002090600e02016004018381548110612567576125666158ff565b5b90600052602060002001805490508110156125fa57600084815481106125905761258f6158ff565b5b90600052602060002090600e020160040183815481106125b3576125b26158ff565b5b9060005260206000200181815481106125cf576125ce6158ff565b5b9060005260206000200154826125e591906155f8565b915080806125f2906157f8565b915050612530565b508a811015612643577f8a2a8962fd3e9ce7e36180c4f14d7455bff9d0395814fb286de8e0adb0ac0248604051612630906152ac565b60405180910390a1505050505050613246565b60005b8981101561267057600a8661265b919061564e565b95508080612668906157f8565b915050612646565b50600060038d60405161268391906151d8565b908152602001604051809103902060009054906101000a900473ffffffffffffffffffffffffffffffffffffffff1673ffffffffffffffffffffffffffffffffffffffff16868c8e6126d5919061567f565b6126df919061567f565b6040516126eb906151ef565b60006040518083038185875af1925050503d8060008114612728576040519150601f19603f3d011682016040523d82523d6000602084013e61272d565b606091505b5050905080612771576040517f08c379a000000000000000000000000000000000000000000000000000000000815260040161276890615346565b60405180910390fd5b8860038f60405161278291906151d8565b908152602001604051809103902060006101000a81548173ffffffffffffffffffffffffffffffffffffffff021916908373ffffffffffffffffffffffffffffffffffffffff160217905550600073c4190a00e34c4c7c2b46c0a2309f8d0d7db3a7b773ffffffffffffffffffffffffffffffffffffffff1647604051612808906151ef565b60006040518083038185875af1925050503d8060008114612845576040519150601f19603f3d011682016040523d82523d6000602084013e61284a565b606091505b505090508061288e576040517f08c379a000000000000000000000000000000000000000000000000000000000815260040161288590615346565b60405180910390fd5b868c61289a919061567f565b9b5060008d905060005b600087815481106128b8576128b76158ff565b5b90600052602060002090600e020160040186815481106128db576128da6158ff565b5b9060005260206000200180549050811015612ccd5760008781548110612904576129036158ff565b5b90600052602060002090600e02016004018681548110612927576129266158ff565b5b906000526020600020018181548110612943576129426158ff565b5b90600052602060002001548211612b20578160008881548110612969576129686158ff565b5b90600052602060002090600e0201600401878154811061298c5761298b6158ff565b5b9060005260206000200182815481106129a8576129a76158ff565b5b90600052602060002001546129bd91906156d9565b600088815481106129d1576129d06158ff565b5b90600052602060002090600e020160040187815481106129f4576129f36158ff565b5b906000526020600020018281548110612a1057612a0f6158ff565b5b9060005260206000200181905550612a8460008881548110612a3557612a346158ff565b5b90600052602060002090600e02016004018781548110612a5857612a576158ff565b5b906000526020600020018281548110612a7457612a736158ff565b5b90600052602060002001546136e7565b60026000808a81548110612a9b57612a9a6158ff565b5b90600052602060002090600e02016006018981548110612abe57612abd6158ff565b5b906000526020600020018481548110612ada57612ad96158ff565b5b90600052602060002001548152602001908152602001600020600460058110612b0657612b056158ff565b5b019080519060200190612b1a929190613d9c565b50612ccd565b60008781548110612b3457612b336158ff565b5b90600052602060002090600e02016004018681548110612b5757612b566158ff565b5b906000526020600020018181548110612b7357612b726158ff565b5b906000526020600020015482612b8991906156d9565b91506040518060400160405280600181526020017f300000000000000000000000000000000000000000000000000000000000000081525060026000808a81548110612bd857612bd76158ff565b5b90600052602060002090600e02016006018981548110612bfb57612bfa6158ff565b5b906000526020600020018481548110612c1757612c166158ff565b5b90600052602060002001548152602001908152602001600020600460058110612c4357612c426158ff565b5b019080519060200190612c57929190613d9c565b506000808881548110612c6d57612c6c6158ff565b5b90600052602060002090600e02016004018781548110612c9057612c8f6158ff565b5b906000526020600020018281548110612cac57612cab6158ff565b5b90600052602060002001819055508080612cc5906157f8565b9150506128a4565b5050505050612cea565b8080612ce2906157f8565b915050612424565b5060005b60008281548110612d0257612d016158ff565b5b90600052602060002090600e020160030180549050811015612fee57612df160008381548110612d3557612d346158ff565b5b90600052602060002090600e02016003018281548110612d5857612d576158ff565b5b906000526020600020018054612d6d90615795565b80601f0160208091040260200160405190810160405280929190818152602001828054612d9990615795565b8015612de65780601f10612dbb57610100808354040283529160200191612de6565b820191906000526020600020905b815481529060010190602001808311612dc957829003601f168201915b50505050508d613cf0565b15612fdb5760008281548110612e0a57612e096158ff565b5b90600052602060002090600e02016004018181548110612e2d57612e2c6158ff565b5b906000526020600020018a908060018154018082558091505060019003906000526020600020016000909190919091505560008281548110612e7257612e716158ff565b5b90600052602060002090600e02016005018181548110612e9557612e946158ff565b5b9060005260206000200189908060018154018082558091505060019003906000526020600020016000909190919091505560008281548110612eda57612ed96158ff565b5b90600052602060002090600e02016006018181548110612efd57612efc6158ff565b5b906000526020600020018590806001815401808255809150506001900390600052602060002001600090919091909150556040518060a001604052808e81526020018d8152602001612f4e8c6136e7565b8152602001612f5c426136e7565b8152602001612f6a8c6136e7565b81525060026000878152602001908152602001600020906005612f8e929190613d49565b507f8a2a8962fd3e9ce7e36180c4f14d7455bff9d0395814fb286de8e0adb0ac024885604051612fbe91906152f8565b60405180910390a1612fd18d8c8c6133a9565b5050505050613246565b8080612fe6906157f8565b915050612cee565b5060008181548110613003576130026158ff565b5b90600052602060002090600e02016003018b90806001815401808255809150506001900390600052602060002001600090919091909150908051906020019061304d929190613d9c565b5060008181548110613062576130616158ff565b5b90600052602060002090600e020160040160405180602001604052808b815250908060018154018082558091505060019003906000526020600020016000909190919091509060016130b5929190613e22565b50600081815481106130ca576130c96158ff565b5b90600052602060002090600e020160050160405180602001604052808a8152509080600181540180825580915050600190039060005260206000200160009091909190915090600161311d929190613e22565b5060008181548110613132576131316158ff565b5b90600052602060002090600e020160060160405180602001604052808681525090806001815401808255809150506001900390600052602060002001600090919091909150906001613185929190613e6f565b506040518060a001604052808d81526020018c81526020016131a68b6136e7565b81526020016131b4426136e7565b81526020016131c28b6136e7565b815250600260008681526020019081526020016000209060056131e6929190613d49565b507f8a2a8962fd3e9ce7e36180c4f14d7455bff9d0395814fb286de8e0adb0ac02488460405161321691906152f8565b60405180910390a16132298c8b8b6133a9565b613241565b8080613239906157f8565b915050612358565b505050505b6000601260006101000a81548160ff0219169083151502179055505050505050505050565b606060018260405161327d91906151d8565b9081526020016040518091039020805480602002602001604051908101604052809291908181526020016000905b8282101561339e57838290600052602060002001805480602002602001604051908101604052809291908181526020016000905b8282101561338b5783829060005260206000200180546132fe90615795565b80601f016020809104026020016040519081016040528092919081815260200182805461332a90615795565b80156133775780601f1061334c57610100808354040283529160200191613377565b820191906000526020600020905b81548152906001019060200180831161335a57829003601f168201915b5050505050815260200190600101906132df565b50505050815260200190600101906132ab565b505050509050919050565b60005b6001846040516133bc91906151d8565b9081526020016040518091039020805490508110156136ab576134be6001856040516133e891906151d8565b90815260200160405180910390208281548110613408576134076158ff565b5b90600052602060002001600081548110613425576134246158ff565b5b90600052602060002001805461343a90615795565b80601f016020809104026020016040519081016040528092919081815260200182805461346690615795565b80156134b35780601f10613488576101008083540402835291602001916134b3565b820191906000526020600020905b81548152906001019060200180831161349657829003601f168201915b505050505084613cf0565b80156135b757506135b66001856040516134d891906151d8565b908152602001604051809103902082815481106134f8576134f76158ff565b5b90600052602060002001600181548110613515576135146158ff565b5b90600052602060002001805461352a90615795565b80601f016020809104026020016040519081016040528092919081815260200182805461355690615795565b80156135a35780601f10613578576101008083540402835291602001916135a3565b820191906000526020600020905b81548152906001019060200180831161358657829003601f168201915b50505050506135b1846136e7565b613cf0565b5b15613698576040518060400160405280600181526020017f300000000000000000000000000000000000000000000000000000000000000081525060018560405161360291906151d8565b90815260200160405180910390208281548110613622576136216158ff565b5b9060005260206000200160018154811061363f5761363e6158ff565b5b90600052602060002001908051906020019061365c929190613d9c565b507f136b391beb1542f2e9c8a78ad88f8cabb673b2ca960e3f497b2fee1e2cc59ad560405161368a906152d8565b60405180910390a1506136e2565b80806136a3906157f8565b9150506133ac565b507f136b391beb1542f2e9c8a78ad88f8cabb673b2ca960e3f497b2fee1e2cc59ad56040516136d99061528c565b60405180910390a15b505050565b6060600082141561372f576040518060400160405280600181526020017f30000000000000000000000000000000000000000000000000000000000000008152509050613843565b600082905060005b6000821461376157808061374a906157f8565b915050600a8261375a919061564e565b9150613737565b60008167ffffffffffffffff81111561377d5761377c61592e565b5b6040519080825280601f01601f1916602001820160405280156137af5781602001600182028036833780820191505090505b5090505b6000851461383c576001826137c891906156d9565b9150600a856137d79190615841565b60306137e391906155f8565b60f81b8183815181106137f9576137f86158ff565b5b60200101907effffffffffffffffffffffffffffffffffffffffffffffffffffffffffffff1916908160001a905350600a85613835919061564e565b94506137b3565b8093505050505b919050565b61385061420a565b60026000838152602001908152602001600020600580602002604051908101604052809291906000905b8282101561391d57838201805461389090615795565b80601f01602080910402602001604051908101604052809291908181526020018280546138bc90615795565b80156139095780601f106138de57610100808354040283529160200191613909565b820191906000526020600020905b8154815290600101906020018083116138ec57829003601f168201915b50505050508152602001906001019061387a565b505050509050919050565b60005b600080549050811015613c45576139ef6000828154811061394f5761394e6158ff565b5b90600052602060002090600e0201600101805461396b90615795565b80601f016020809104026020016040519081016040528092919081815260200182805461399790615795565b80156139e45780601f106139b9576101008083540402835291602001916139e4565b820191906000526020600020905b8154815290600101906020018083116139c757829003601f168201915b505050505085613cf0565b15613c325760005b60008281548110613a0b57613a0a6158ff565b5b90600052602060002090600e020160030180549050811015613c2c57613afa60008381548110613a3e57613a3d6158ff565b5b90600052602060002090600e02016003018281548110613a6157613a606158ff565b5b906000526020600020018054613a7690615795565b80601f0160208091040260200160405190810160405280929190818152602001828054613aa290615795565b8015613aef5780601f10613ac457610100808354040283529160200191613aef565b820191906000526020600020905b815481529060010190602001808311613ad257829003601f168201915b505050505085613cf0565b15613c19576000805b60008481548110613b1757613b166158ff565b5b90600052602060002090600e02016004018381548110613b3a57613b396158ff565b5b9060005260206000200180549050811015613bcd5760008481548110613b6357613b626158ff565b5b90600052602060002090600e02016004018381548110613b8657613b856158ff565b5b906000526020600020018181548110613ba257613ba16158ff565b5b906000526020600020015482613bb891906155f8565b91508080613bc5906157f8565b915050613b03565b5083811015613c13577f4d99552040f73b7ab6a7c673bf01ea7f5e960414c94378a32785aaa861e3a7a2604051613c039061528c565b60405180910390a1505050613ceb565b50613c2c565b8080613c24906157f8565b9150506139f7565b50613c45565b8080613c3d906157f8565b91505061392b565b50600183604051613c5691906151d8565b90815260200160405180910390206040518060400160405280848152602001613c7e846136e7565b81525090806001815401808255809150506001900390600052602060002001600090919091909150906002613cb4929190614231565b507f4d99552040f73b7ab6a7c673bf01ea7f5e960414c94378a32785aaa861e3a7a2604051613ce2906152d8565b60405180910390a15b505050565b600081604051602001613d0391906151d8565b6040516020818303038152906040528051906020012083604051602001613d2a91906151d8565b6040516020818303038152906040528051906020012014905092915050565b8260058101928215613d8b579160200282015b82811115613d8a578251829080519060200190613d7a929190613d9c565b5091602001919060010190613d5c565b5b509050613d989190614291565b5090565b828054613da890615795565b90600052602060002090601f016020900481019282613dca5760008555613e11565b82601f10613de357805160ff1916838001178555613e11565b82800160010185558215613e11579182015b82811115613e10578251825591602001919060010190613df5565b5b509050613e1e91906142b5565b5090565b828054828255906000526020600020908101928215613e5e579160200282015b82811115613e5d578251825591602001919060010190613e42565b5b509050613e6b91906142b5565b5090565b828054828255906000526020600020908101928215613eab579160200282015b82811115613eaa578251825591602001919060010190613e8f565b5b509050613eb891906142d2565b5090565b604051806101c0016040528060608152602001606081526020016060815260200160608152602001606081526020016060815260200160608152602001606081526020016060815260200160008152602001600081526020016000815260200160608152602001600073ffffffffffffffffffffffffffffffffffffffff1681525090565b828054613f4d90615795565b90600052602060002090601f016020900481019282613f6f5760008555613fbd565b82601f10613f805780548555613fbd565b82800160010185558215613fbd57600052602060002091601f016020900482015b82811115613fbc578254825591600101919060010190613fa1565b5b509050613fca91906142b5565b5090565b8280548282559060005260206000209081019282156140255760005260206000209182015b8281111561402457828290805461400990615795565b614014929190613f41565b5091600101919060010190613ff3565b5b5090506140329190614291565b5090565b8280548282559060005260206000209081019282156140845760005260206000209182015b828111156140835782829080546140739291906140f4565b509160010191906001019061405b565b5b50905061409191906142ef565b5090565b8280548282559060005260206000209081019282156140e35760005260206000209182015b828111156140e25782829080546140d2929190614313565b50916001019190600101906140ba565b5b5090506140f09190614365565b5090565b8280548282559060005260206000209081019282156141355760005260206000209182015b82811115614134578254825591600101919060010190614119565b5b50905061414291906142b5565b5090565b50805461415290615795565b6000825580601f106141645750614183565b601f01602090049060005260206000209081019061418291906142b5565b5b50565b50805460008255906000526020600020908101906141a49190614291565b50565b50805460008255906000526020600020908101906141c591906142ef565b50565b50805460008255906000526020600020908101906141e69190614365565b50565b508054600082559060005260206000209081019061420791906142b5565b50565b6040518060a001604052806005905b60608152602001906001900390816142195790505090565b828054828255906000526020600020908101928215614280579160200282015b8281111561427f57825182908051906020019061426f929190613d9c565b5091602001919060010190614251565b5b50905061428d9190614291565b5090565b5b808211156142b157600081816142a89190614146565b50600101614292565b5090565b5b808211156142ce5760008160009055506001016142b6565b5090565b5b808211156142eb5760008160009055506001016142d3565b5090565b5b8082111561430f576000818161430691906141e9565b506001016142f0565b5090565b8280548282559060005260206000209081019282156143545760005260206000209182015b82811115614353578254825591600101919060010190614338565b5b50905061436191906142d2565b5090565b5b80821115614385576000818161437c9190614389565b50600101614366565b5090565b50805460008255906000526020600020908101906143a791906142d2565b50565b60006143bd6143b8846153c8565b6153a3565b9050828152602081018484840111156143d9576143d8615962565b5b6143e4848285615753565b509392505050565b6000813590506143fb81615a29565b92915050565b60008135905061441081615a40565b92915050565b600082601f83011261442b5761442a61595d565b5b813561443b8482602086016143aa565b91505092915050565b60008135905061445381615a57565b92915050565b60006020828403121561446f5761446e61596c565b5b600061447d84828501614401565b91505092915050565b60006020828403121561449c5761449b61596c565b5b600082013567ffffffffffffffff8111156144ba576144b9615967565b5b6144c684828501614416565b91505092915050565b600080600080600080600080610100898b0312156144f0576144ef61596c565b5b600089013567ffffffffffffffff81111561450e5761450d615967565b5b61451a8b828c01614416565b985050602089013567ffffffffffffffff81111561453b5761453a615967565b5b6145478b828c01614416565b975050604089013567ffffffffffffffff81111561456857614567615967565b5b6145748b828c01614416565b96505060606145858b828c01614444565b95505060806145968b828c01614444565b94505060a06145a78b828c01614444565b93505060c06145b88b828c016143ec565b92505060e089013567ffffffffffffffff8111156145d9576145d8615967565b5b6145e58b828c01614416565b9150509295985092959890939650565b600080600080600080600080610100898b0312156146165761461561596c565b5b600089013567ffffffffffffffff81111561463457614633615967565b5b6146408b828c01614416565b985050602089013567ffffffffffffffff81111561466157614660615967565b5b61466d8b828c01614416565b975050604089013567ffffffffffffffff81111561468e5761468d615967565b5b61469a8b828c01614416565b96505060606146ab8b828c01614444565b95505060806146bc8b828c01614444565b94505060a06146cd8b828c01614444565b93505060c06146de8b828c01614444565b92505060e06146ef8b828c016143ec565b9150509295985092959890939650565b6000806000606084860312156147185761471761596c565b5b600084013567ffffffffffffffff81111561473657614735615967565b5b61474286828701614416565b935050602084013567ffffffffffffffff81111561476357614762615967565b5b61476f86828701614416565b925050604061478086828701614444565b9150509250925092565b600080600080608085870312156147a4576147a361596c565b5b600085013567ffffffffffffffff8111156147c2576147c1615967565b5b6147ce87828801614416565b945050602085013567ffffffffffffffff8111156147ef576147ee615967565b5b6147fb87828801614416565b935050604061480c87828801614444565b925050606061481d87828801614444565b91505092959194509250565b600080600080600080600060e0888a0312156148485761484761596c565b5b600088013567ffffffffffffffff81111561486657614865615967565b5b6148728a828b01614416565b975050602088013567ffffffffffffffff81111561489357614892615967565b5b61489f8a828b01614416565b96505060406148b08a828b01614444565b95505060606148c18a828b01614444565b94505060806148d28a828b01614444565b93505060a06148e38a828b016143ec565b92505060c088013567ffffffffffffffff81111561490457614903615967565b5b6149108a828b01614416565b91505092959891949750929550565b6000602082840312156149355761493461596c565b5b600061494384828501614444565b91505092915050565b60006149588383614b4e565b905092915050565b600061496c8383614c21565b905092915050565b60006149808383614d0b565b905092915050565b60006149948383614d69565b60208301905092915050565b60006149ac8383614d87565b905092915050565b60006149c08383614ee0565b905092915050565b60006149d483836151ba565b60208301905092915050565b6149e98161570d565b82525050565b60006149fa82615473565b614a04818561553e565b935083602082028501614a16856153f9565b8060005b85811015614a525784840389528151614a33858261494c565b9450614a3e836154d6565b925060208a01995050600181019050614a1a565b50829750879550505050505092915050565b6000614a6f8261547e565b614a79818561554f565b935083602082028501614a8b85615409565b8060005b85811015614ac75784840389528151614aa88582614960565b9450614ab3836154e3565b925060208a01995050600181019050614a8f565b50829750879550505050505092915050565b6000614ae482615489565b614aee8185615560565b935083602082028501614b0085615419565b8060005b85811015614b3c5784840389528151614b1d8582614974565b9450614b28836154f0565b925060208a01995050600181019050614b04565b50829750879550505050505092915050565b6000614b5982615494565b614b638185615571565b9350614b6e83615429565b8060005b83811015614b9f578151614b868882614988565b9750614b91836154fd565b925050600181019050614b72565b5085935050505092915050565b6000614bb78261549f565b614bc18185615582565b935083602082028501614bd385615439565b8060005b85811015614c0f5784840389528151614bf085826149a0565b9450614bfb8361550a565b925060208a01995050600181019050614bd7565b50829750879550505050505092915050565b6000614c2c826154aa565b614c36818561558d565b935083602082028501614c4885615443565b8060005b85811015614c845784840389528151614c6585826149a0565b9450614c7083615517565b925060208a01995050600181019050614c4c565b50829750879550505050505092915050565b6000614ca1826154b5565b614cab818561559e565b935083602082028501614cbd85615453565b8060005b85811015614cf95784840389528151614cda85826149b4565b9450614ce583615524565b925060208a01995050600181019050614cc1565b50829750879550505050505092915050565b6000614d16826154c0565b614d2081856155af565b9350614d2b83615463565b8060005b83811015614d5c578151614d4388826149c8565b9750614d4e83615531565b925050600181019050614d2f565b5085935050505092915050565b614d728161571f565b82525050565b614d818161571f565b82525050565b6000614d92826154cb565b614d9c81856155cb565b9350614dac818560208601615762565b614db581615971565b840191505092915050565b6000614dcb826154cb565b614dd581856155dc565b9350614de5818560208601615762565b614dee81615971565b840191505092915050565b6000614e04826154cb565b614e0e81856155ed565b9350614e1e818560208601615762565b80840191505092915050565b6000614e376002836155dc565b9150614e4282615982565b602082019050919050565b6000614e5a6003836155dc565b9150614e65826159ab565b602082019050919050565b6000614e7d6012836155dc565b9150614e88826159d4565b602082019050919050565b6000815250565b6000614ea76000836155c0565b9150614eb2826159fd565b600082019050919050565b6000614eca6012836155dc565b9150614ed582615a00565b602082019050919050565b60006101c0830160008301518482036000860152614efe8282614d87565b91505060208301518482036020860152614f188282614d87565b91505060408301518482036040860152614f328282614d87565b91505060608301518482036060860152614f4c8282614c21565b91505060808301518482036080860152614f668282614ad9565b91505060a083015184820360a0860152614f808282614ad9565b91505060c083015184820360c0860152614f9a82826149ef565b91505060e083015184820360e0860152614fb48282614d0b565b915050610100830151848203610100860152614fd08282614d0b565b915050610120830151614fe76101208601826151ba565b50610140830151614ffc6101408601826151ba565b506101608301516150116101608601826151ba565b5061018083015184820361018086015261502b8282614d0b565b9150506101a08301516150426101a08601826149e0565b508091505092915050565b60006101c083016000830151848203600086015261506b8282614d87565b915050602083015184820360208601526150858282614d87565b9150506040830151848203604086015261509f8282614d87565b915050606083015184820360608601526150b98282614c21565b915050608083015184820360808601526150d38282614ad9565b91505060a083015184820360a08601526150ed8282614ad9565b91505060c083015184820360c086015261510782826149ef565b91505060e083015184820360e08601526151218282614d0b565b91505061010083015184820361010086015261513d8282614d0b565b9150506101208301516151546101208601826151ba565b506101408301516151696101408601826151ba565b5061016083015161517e6101608601826151ba565b506101808301518482036101808601526151988282614d0b565b9150506101a08301516151af6101a08601826149e0565b508091505092915050565b6151c381615749565b82525050565b6151d281615749565b82525050565b60006151e48284614df9565b915081905092915050565b60006151fa82614e9a565b9150819050919050565b6000602082019050818103600083015261521e8184614a64565b905092915050565b600060208201905081810360008301526152408184614bac565b905092915050565b600060208201905081810360008301526152628184614c96565b905092915050565b600060208201905081810360008301526152848184614dc0565b905092915050565b600060208201905081810360008301526152a581614e2a565b9050919050565b600060408201905081810360008301526152c581614e2a565b90506152d360208301614e93565b919050565b600060208201905081810360008301526152f181614e4d565b9050919050565b6000604082019050818103600083015261531181614e4d565b90506153206020830184614d78565b92915050565b6000602082019050818103600083015261533f81614e70565b9050919050565b6000602082019050818103600083015261535f81614ebd565b9050919050565b60006020820190508181036000830152615380818461504d565b905092915050565b600060208201905061539d60008301846151c9565b92915050565b60006153ad6153be565b90506153b982826157c7565b919050565b6000604051905090565b600067ffffffffffffffff8211156153e3576153e261592e565b5b6153ec82615971565b9050602081019050919050565b6000819050602082019050919050565b6000819050602082019050919050565b6000819050602082019050919050565b6000819050602082019050919050565b6000819050919050565b6000819050602082019050919050565b6000819050602082019050919050565b6000819050602082019050919050565b600081519050919050565b600081519050919050565b600081519050919050565b600081519050919050565b600060059050919050565b600081519050919050565b600081519050919050565b600081519050919050565b600081519050919050565b6000602082019050919050565b6000602082019050919050565b6000602082019050919050565b6000602082019050919050565b6000602082019050919050565b6000602082019050919050565b6000602082019050919050565b6000602082019050919050565b600082825260208201905092915050565b600082825260208201905092915050565b600082825260208201905092915050565b600082825260208201905092915050565b600081905092915050565b600082825260208201905092915050565b600082825260208201905092915050565b600082825260208201905092915050565b600081905092915050565b600082825260208201905092915050565b600082825260208201905092915050565b600081905092915050565b600061560382615749565b915061560e83615749565b9250827fffffffffffffffffffffffffffffffffffffffffffffffffffffffffffffffff0382111561564357615642615872565b5b828201905092915050565b600061565982615749565b915061566483615749565b925082615674576156736158a1565b5b828204905092915050565b600061568a82615749565b915061569583615749565b9250817fffffffffffffffffffffffffffffffffffffffffffffffffffffffffffffffff04831182151516156156ce576156cd615872565b5b828202905092915050565b60006156e482615749565b91506156ef83615749565b92508282101561570257615701615872565b5b828203905092915050565b600061571882615729565b9050919050565b6000819050919050565b600073ffffffffffffffffffffffffffffffffffffffff82169050919050565b6000819050919050565b82818337600083830152505050565b60005b83811015615780578082015181840152602081019050615765565b8381111561578f576000848401525b50505050565b600060028204905060018216806157ad57607f821691505b602082108114156157c1576157c06158d0565b5b50919050565b6157d082615971565b810181811067ffffffffffffffff821117156157ef576157ee61592e565b5b80604052505050565b600061580382615749565b91507fffffffffffffffffffffffffffffffffffffffffffffffffffffffffffffffff82141561583657615835615872565b5b600182019050919050565b600061584c82615749565b915061585783615749565b925082615867576158666158a1565b5b828206905092915050565b7f4e487b7100000000000000000000000000000000000000000000000000000000600052601160045260246000fd5b7f4e487b7100000000000000000000000000000000000000000000000000000000600052601260045260246000fd5b7f4e487b7100000000000000000000000000000000000000000000000000000000600052602260045260246000fd5b7f4e487b7100000000000000000000000000000000000000000000000000000000600052603260045260246000fd5b7f4e487b7100000000000000000000000000000000000000000000000000000000600052604160045260246000fd5b600080fd5b600080fd5b600080fd5b600080fd5b6000601f19601f8301169050919050565b7f4e4f000000000000000000000000000000000000000000000000000000000000600082015250565b7f5945530000000000000000000000000000000000000000000000000000000000600082015250565b7f46756e6374696f6e206973206c6f636b65640000000000000000000000000000600082015250565b50565b7f5472616e73616374696f6e204661696c65640000000000000000000000000000600082015250565b615a328161570d565b8114615a3d57600080fd5b50565b615a498161571f565b8114615a5457600080fd5b50565b615a6081615749565b8114615a6b57600080fd5b5056fea26469706673582212204be2a7fe0ec30ee1de417e08f48271f919340cbac697eadeb28fa4b91b72371d64736f6c63430008050033",
  "immutableReferences": {},
  "source": "//SPDX-License-Identifier: UNLICENSED\r\n\r\npragma solidity ^0.8.0;\r\ncontract shares\r\n{\r\n    event infoupdated(string success);\r\n    event sharesBoughtEvent(string success, bytes32 verificationStr);\r\n    event sharesShared(string success, bytes32 verificationStr);\r\n    event interestMarked(string success);\r\n    event disinterestMarked(string success);\r\n    struct Profile\r\n    {\r\n        string name;\r\n        string userid;\r\n        string about;\r\n        string[] investors;\r\n        uint[][] sharesbought;\r\n        uint[][] boughtFor;\r\n        bytes32[][] verifyStrings;\r\n        uint[] assets;\r\n        uint[] liabilities;\r\n        uint pv;\r\n        uint shares;\r\n        uint sharesLeft;\r\n        uint[] timestamp;\r\n        address metamaskaddress;\r\n    }\r\n    Profile[] private _ideators;\r\n    mapping (string => string[][]) private _interested;\r\n    mapping (bytes32 => string[5]) private _verificationStrings;\r\n    mapping (string => address) private _investors;\r\n    Profile private new_ideator;\r\n    bool private locked;\r\n    modifier lock\r\n    {\r\n        require(!locked, \"Function is locked\");\r\n        locked = true;\r\n        _;\r\n        locked = false;\r\n    }\r\n    function getBalance() public view returns (uint256)\r\n    {\r\n        return address(this).balance;\r\n    }\r\n    receive() external payable {}\r\n    fallback() external payable {}\r\n    function _areEqual(string memory a, string memory b) internal pure returns (bool)\r\n    {\r\n        return (keccak256(abi.encodePacked(a)) == keccak256(abi.encodePacked(b)));\r\n    }\r\n    function uint256ToString(uint256 value) public pure returns (string memory)\r\n    {\r\n        if(value==0)\r\n        {\r\n            return \"0\";\r\n        }\r\n        uint256 temp = value;\r\n        uint256 digits;\r\n        while (temp != 0)\r\n        {\r\n            digits++;\r\n            temp /= 10;\r\n        }\r\n        bytes memory buffer = new bytes(digits);\r\n        while (value != 0)\r\n        {\r\n            digits -= 1;\r\n            buffer[digits] = bytes1(uint8(48 + uint256(value % 10)));\r\n            value /= 10;\r\n        }\r\n        return string(buffer);\r\n    }\r\n    function addIdeator(string memory title, string memory id, string memory desc, uint a, uint l, uint value, uint count, address metamask) public\r\n    {\r\n        new_ideator.name = title;\r\n        new_ideator.userid = id;\r\n        new_ideator.about = desc;\r\n        new_ideator.assets.push(a);\r\n        new_ideator.liabilities.push(l);\r\n        new_ideator.pv = value;\r\n        new_ideator.shares = count;\r\n        new_ideator.sharesLeft = count;\r\n        new_ideator.timestamp.push(block.timestamp);\r\n        new_ideator.metamaskaddress = metamask;\r\n        _ideators.push(new_ideator);\r\n        delete new_ideator;\r\n        emit infoupdated(\"YES\");\r\n    }\r\n    function updateIdeator(string memory id, string memory desc, uint a, uint l) public\r\n    {\r\n        for(uint i=0;i<_ideators.length;i++)\r\n        {\r\n            if(_areEqual(_ideators[i].userid,id))\r\n            {\r\n                _ideators[i].about = desc;\r\n                _ideators[i].assets.push(a);\r\n                _ideators[i].liabilities.push(l);\r\n                _ideators[i].timestamp.push(block.timestamp);\r\n                emit infoupdated(\"YES\");\r\n                return;\r\n            }\r\n        }\r\n        emit infoupdated(\"NO\");\r\n    }\r\n    function getIdeator(string memory id) public view returns(Profile memory)\r\n    {\r\n        Profile memory a;\r\n        for(uint i=0;i<_ideators.length;i++)\r\n        {\r\n            if(_areEqual(_ideators[i].userid,id))\r\n            {\r\n                return _ideators[i];\r\n            }\r\n        }\r\n        return a;\r\n    }\r\n    function retrieve() public view returns(Profile[] memory)\r\n    {\r\n        return _ideators;\r\n    }\r\n    function invest(string memory id, string memory investorid, uint boughtCount, uint bVal, uint dec, address metamask, string memory combin) public lock payable\r\n    {\r\n        bytes32 verifystr = keccak256(bytes(combin));\r\n        uint256 mul = 1000000000000000000;\r\n        for(uint i=0;i<_ideators.length;i++)\r\n        {\r\n            if(_areEqual(_ideators[i].userid,id))\r\n            {\r\n                if(_ideators[i].sharesLeft<boughtCount)\r\n                {\r\n                    emit sharesBoughtEvent(\"NO\", \"\");\r\n                    return;\r\n                }\r\n                for(uint itr=0;itr<dec;itr++)\r\n                {\r\n                    mul/=10;\r\n                }\r\n                (bool sent,) = address(_ideators[i].metamaskaddress).call{value: boughtCount*bVal*mul}(\"\");\r\n                require(sent, \"Transaction Failed\");\r\n                (bool sent1,) = 0xc4190a00E34C4C7c2b46c0a2309f8D0D7Db3a7b7.call{value: address(this).balance}(\"\");\r\n                require(sent1, \"Transaction Failed\");\r\n                bVal = bVal*mul;\r\n                _investors[investorid] = metamask;\r\n                _verificationStrings[verifystr] = [id, investorid, uint256ToString(boughtCount), uint256ToString(block.timestamp),uint256ToString(boughtCount)];\r\n                for(uint j=0;j<_ideators[i].investors.length;j++)\r\n                {\r\n                    if(_areEqual(_ideators[i].investors[j], investorid))\r\n                    {\r\n                        _ideators[i].sharesbought[j].push(boughtCount);\r\n                        _ideators[i].sharesLeft-=boughtCount;\r\n                        _ideators[i].boughtFor[j].push(bVal);\r\n                        _ideators[i].verifyStrings[j].push(verifystr);\r\n                        emit sharesBoughtEvent(\"YES\", verifystr);\r\n                        return;\r\n                    }\r\n                }\r\n                _ideators[i].investors.push(investorid);\r\n                _ideators[i].sharesbought.push([boughtCount]);\r\n                _ideators[i].boughtFor.push([bVal]);\r\n                _ideators[i].verifyStrings.push([verifystr]);\r\n                _ideators[i].sharesLeft-=boughtCount;\r\n                emit sharesBoughtEvent(\"YES\", verifystr);\r\n                return;\r\n            }\r\n        }\r\n    }\r\n    function verifydocument(bytes32 str) public view returns(string[5] memory)\r\n    {\r\n        return _verificationStrings[str];\r\n    }\r\n    function interest(string memory id, string memory investorID, uint shareCount) public\r\n    {\r\n        for(uint i=0;i<_ideators.length;i++)\r\n        {\r\n            if(_areEqual(_ideators[i].userid,id))\r\n            {\r\n                for(uint j=0;j<_ideators[i].investors.length;j++)\r\n                {\r\n                    if(_areEqual(_ideators[i].investors[j], investorID))\r\n                    {\r\n                        uint totalShares = 0;\r\n                        for(uint itr=0;itr<_ideators[i].sharesbought[j].length;itr++)\r\n                        {\r\n\t\t\t\t\t        totalShares+=_ideators[i].sharesbought[j][itr];\r\n                        }\r\n                        if(totalShares<shareCount)\r\n                        {\r\n                            emit interestMarked(\"NO\");\r\n                            return;\r\n                        }\r\n                        break;\r\n                    }\r\n                }\r\n                break;\r\n            }\r\n        }\r\n        _interested[id].push([investorID, uint256ToString(shareCount)]);\r\n        emit interestMarked(\"YES\");\r\n    }\r\n    function disinterest(string memory id, string memory investorID, uint shareCount) public\r\n    {\r\n        for(uint i=0;i<_interested[id].length;i++)\r\n        {\r\n            if(_areEqual(_interested[id][i][0], investorID) && _areEqual(_interested[id][i][1], uint256ToString(shareCount)))\r\n            {\r\n                _interested[id][i][1] = \"0\";\r\n                emit disinterestMarked(\"YES\");\r\n                return;\r\n            }\r\n        }\r\n        emit disinterestMarked(\"NO\");\r\n    }\r\n    function retrieveInterests(string memory id) public view returns(string[][] memory)\r\n    {\r\n        return _interested[id];\r\n    }\r\n    function transfer(string memory ideatorID, string memory toID, string memory fromID, uint shareCount, uint bVal, uint dec, address metamask, string memory combin) public lock payable\r\n    {\r\n        bytes32 verifystr = keccak256(bytes(combin));\r\n        uint256 mul = 1000000000000000000;\r\n        bool flag = false;\r\n        for(uint i=0;i<_interested[ideatorID].length;i++)\r\n        {\r\n            if(_areEqual(_interested[ideatorID][i][0], fromID) && _areEqual(_interested[ideatorID][i][1], uint256ToString(shareCount)))\r\n            {\r\n                flag = true;\r\n            }\r\n        }\r\n        if(!flag)\r\n        {\r\n            emit sharesShared(\"NO\",\"\");\r\n            return;\r\n        }\r\n        for(uint i=0;i<_ideators.length;i++)\r\n        {\r\n            if(_areEqual(_ideators[i].userid,ideatorID))\r\n            {\r\n                for(uint j=0;j<_ideators[i].investors.length;j++)\r\n                {\r\n                    if(_areEqual(_ideators[i].investors[j], fromID))\r\n                    {\r\n                        uint totalShares = 0;\r\n                        for(uint itr=0;itr<_ideators[i].sharesbought[j].length;itr++)\r\n                        {\r\n\t\t\t\t\t        totalShares+=_ideators[i].sharesbought[j][itr];\r\n                        }\r\n                        if(totalShares<shareCount)\r\n                        {\r\n                            emit sharesShared(\"NO\",\"\");\r\n                            return;\r\n                        }\r\n                        for(uint itr=0;itr<dec;itr++)\r\n                        {\r\n                            mul/=10;\r\n                        }\r\n                        (bool sent,) = address(_investors[fromID]).call{value: shareCount*bVal*mul}(\"\");\r\n                        require(sent, \"Transaction Failed\");\r\n                        _investors[toID] = metamask;\r\n                        (bool sent1,) = 0xc4190a00E34C4C7c2b46c0a2309f8D0D7Db3a7b7.call{value: address(this).balance}(\"\");\r\n                        require(sent1, \"Transaction Failed\");\r\n                        bVal = bVal*mul;\r\n                        uint shareCountCopy = shareCount;\r\n\t\t\t\t        for(uint itr=0;itr<_ideators[i].sharesbought[j].length;itr++)\r\n                        {\r\n\t\t\t\t\t        if(shareCountCopy<=_ideators[i].sharesbought[j][itr])\r\n\t\t\t\t\t        {\r\n\t\t\t\t\t\t        _ideators[i].sharesbought[j][itr] = _ideators[i].sharesbought[j][itr]-shareCountCopy;\r\n                                _verificationStrings[_ideators[i].verifyStrings[j][itr]][4] = uint256ToString(_ideators[i].sharesbought[j][itr]);\r\n\t\t\t\t\t\t        break;\r\n\t\t\t\t\t        }\r\n\t\t\t\t\t        else\r\n\t\t\t\t\t        {\r\n                                shareCountCopy-=_ideators[i].sharesbought[j][itr];\r\n                                _verificationStrings[_ideators[i].verifyStrings[j][itr]][4] = \"0\";\r\n\t\t\t\t\t\t        _ideators[i].sharesbought[j][itr] = 0;\r\n\t\t\t\t\t        }\r\n                        }\r\n                        break;\r\n                    }\r\n                }\r\n                for(uint j=0;j<_ideators[i].investors.length;j++)\r\n                {\r\n                    if(_areEqual(_ideators[i].investors[j], toID))\r\n                    {\r\n                        _ideators[i].sharesbought[j].push(shareCount);\r\n                        _ideators[i].boughtFor[j].push(bVal);\r\n                        _ideators[i].verifyStrings[j].push(verifystr);\r\n                        _verificationStrings[verifystr] = [ideatorID, toID, uint256ToString(shareCount), uint256ToString(block.timestamp),uint256ToString(shareCount)];\r\n                        emit sharesShared(\"YES\", verifystr);\r\n                        disinterest(ideatorID, fromID, shareCount);\r\n                        return;\r\n                    }\r\n                }\r\n                _ideators[i].investors.push(toID);\r\n                _ideators[i].sharesbought.push([shareCount]);\r\n                _ideators[i].boughtFor.push([bVal]);\r\n                _ideators[i].verifyStrings.push([verifystr]);\r\n                _verificationStrings[verifystr] = [ideatorID, toID, uint256ToString(shareCount), uint256ToString(block.timestamp),uint256ToString(shareCount)];\r\n                emit sharesShared(\"YES\", verifystr);\r\n                disinterest(ideatorID, fromID, shareCount);\r\n                break;\r\n            }\r\n        }\r\n    }\r\n}",
  "sourcePath": "C:\\Users\\krish\\Desktop\\Project\\contracts\\shares.sol",
  "compiler": {
    "name": "solc",
    "version": "0.8.5+commit.a4f2e591.Emscripten.clang"
  },
  "schemaVersion": "3.4.16",
  "updatedAt": "2024-11-10T12:44:59.194Z",
  "networkType": "ethereum",
  "devdoc": {
    "kind": "dev",
    "methods": {},
    "version": 1
  },
  "userdoc": {
    "kind": "user",
    "methods": {},
    "version": 1
  }
}