{
  "contractName": "tokens",
  "abi": [
    {
      "anonymous": false,
      "inputs": [
        {
          "indexed": false,
          "internalType": "string",
          "name": "success",
          "type": "string"
        }
      ],
      "name": "tokenActivated",
      "type": "event"
    },
    {
      "anonymous": false,
      "inputs": [
        {
          "indexed": false,
          "internalType": "string",
          "name": "success",
          "type": "string"
        }
      ],
      "name": "tokenAdded",
      "type": "event"
    },
    {
      "anonymous": false,
      "inputs": [
        {
          "indexed": false,
          "internalType": "string",
          "name": "success",
          "type": "string"
        }
      ],
      "name": "tokensShared",
      "type": "event"
    },
    {
      "inputs": [
        {
          "internalType": "string",
          "name": "id",
          "type": "string"
        }
      ],
      "name": "getInvestor",
      "outputs": [
        {
          "components": [
            {
              "internalType": "uint256",
              "name": "investments",
              "type": "uint256"
            },
            {
              "internalType": "uint256",
              "name": "token1",
              "type": "uint256"
            },
            {
              "internalType": "uint256",
              "name": "token2",
              "type": "uint256"
            },
            {
              "internalType": "uint256",
              "name": "remaining1",
              "type": "uint256"
            },
            {
              "internalType": "uint256",
              "name": "remaining2",
              "type": "uint256"
            }
          ],
          "internalType": "struct tokens.Investor",
          "name": "",
          "type": "tuple"
        }
      ],
      "stateMutability": "view",
      "type": "function",
      "constant": true
    },
    {
      "inputs": [
        {
          "internalType": "string",
          "name": "id",
          "type": "string"
        },
        {
          "internalType": "uint256",
          "name": "mode",
          "type": "uint256"
        }
      ],
      "name": "invest",
      "outputs": [],
      "stateMutability": "nonpayable",
      "type": "function"
    },
    {
      "inputs": [
        {
          "internalType": "string",
          "name": "id",
          "type": "string"
        },
        {
          "internalType": "uint256",
          "name": "grade",
          "type": "uint256"
        }
      ],
      "name": "activateToken",
      "outputs": [],
      "stateMutability": "nonpayable",
      "type": "function"
    },
    {
      "inputs": [
        {
          "internalType": "string",
          "name": "fromID",
          "type": "string"
        },
        {
          "internalType": "string",
          "name": "toID",
          "type": "string"
        },
        {
          "internalType": "uint256",
          "name": "tokenCount",
          "type": "uint256"
        }
      ],
      "name": "transferTokens",
      "outputs": [],
      "stateMutability": "nonpayable",
      "type": "function"
    }
  ],
  "bytecode": "0x608060405234801561001057600080fd5b50611145806100206000396000f3fe608060405234801561001057600080fd5b506004361061004c5760003560e01c80639f7b064d14610051578063ba255df91461006d578063d22782af1461009d578063dd00656f146100b9575b600080fd5b61006b60048036038101906100669190610ce3565b6100d5565b005b61008760048036038101906100829190610c0f565b6107f1565b6040516100949190610e84565b60405180910390f35b6100b760048036038101906100b29190610ce3565b61085b565b005b6100d360048036038101906100ce9190610c58565b610a4d565b005b600060048211156100e75760026100ea565b60015b60ff169050600080846040516101009190610e2d565b908152602001604051809103902060010154141580156101205750600181145b806101585750600080846040516101379190610e2d565b908152602001604051809103902060020154141580156101575750600281145b5b15610198577f3a84b2f8bb52a076fa5193b84bb73a2bdc5dae3d43612aa1a3c1b17ee930950260405161018a90610e44565b60405180910390a1506107ed565b60018214156102625760646000846040516101b39190610e2d565b908152602001604051809103902060000160008282546101d39190610f72565b9250508190555060016000846040516101ec9190610e2d565b90815260200160405180910390206001018190555060146000846040516102139190610e2d565b9081526020016040518091039020600301819055507f3a84b2f8bb52a076fa5193b84bb73a2bdc5dae3d43612aa1a3c1b17ee930950260405161025590610e64565b60405180910390a16107eb565b600282141561032c57603260008460405161027d9190610e2d565b9081526020016040518091039020600001600082825461029d9190610f72565b9250508190555060026000846040516102b69190610e2d565b908152602001604051809103902060010181905550600a6000846040516102dd9190610e2d565b9081526020016040518091039020600301819055507f3a84b2f8bb52a076fa5193b84bb73a2bdc5dae3d43612aa1a3c1b17ee930950260405161031f90610e64565b60405180910390a16107ea565b60038214156103f65760146000846040516103479190610e2d565b908152602001604051809103902060000160008282546103679190610f72565b9250508190555060036000846040516103809190610e2d565b90815260200160405180910390206001018190555060056000846040516103a79190610e2d565b9081526020016040518091039020600301819055507f3a84b2f8bb52a076fa5193b84bb73a2bdc5dae3d43612aa1a3c1b17ee93095026040516103e990610e64565b60405180910390a16107e9565b60048214156104c057600a6000846040516104119190610e2d565b908152602001604051809103902060000160008282546104319190610f72565b92505081905550600460008460405161044a9190610e2d565b908152602001604051809103902060010181905550600a6000846040516104719190610e2d565b9081526020016040518091039020600301819055507f3a84b2f8bb52a076fa5193b84bb73a2bdc5dae3d43612aa1a3c1b17ee93095026040516104b390610e64565b60405180910390a16107e8565b600582141561058a5760106000846040516104db9190610e2d565b908152602001604051809103902060000160008282546104fb9190610f72565b9250508190555060056000846040516105149190610e2d565b908152602001604051809103902060020181905550601460008460405161053b9190610e2d565b9081526020016040518091039020600401819055507f3a84b2f8bb52a076fa5193b84bb73a2bdc5dae3d43612aa1a3c1b17ee930950260405161057d90610e64565b60405180910390a16107e7565b60068214156106545760086000846040516105a59190610e2d565b908152602001604051809103902060000160008282546105c59190610f72565b9250508190555060066000846040516105de9190610e2d565b908152602001604051809103902060020181905550600a6000846040516106059190610e2d565b9081526020016040518091039020600401819055507f3a84b2f8bb52a076fa5193b84bb73a2bdc5dae3d43612aa1a3c1b17ee930950260405161064790610e64565b60405180910390a16107e6565b600782141561071e57600460008460405161066f9190610e2d565b9081526020016040518091039020600001600082825461068f9190610f72565b9250508190555060076000846040516106a89190610e2d565b90815260200160405180910390206002018190555060056000846040516106cf9190610e2d565b9081526020016040518091039020600401819055507f3a84b2f8bb52a076fa5193b84bb73a2bdc5dae3d43612aa1a3c1b17ee930950260405161071190610e64565b60405180910390a16107e5565b60088214156107e45760026000846040516107399190610e2d565b908152602001604051809103902060000160008282546107599190610f72565b9250508190555060086000846040516107729190610e2d565b908152602001604051809103902060020181905550600a6000846040516107999190610e2d565b9081526020016040518091039020600401819055507f3a84b2f8bb52a076fa5193b84bb73a2bdc5dae3d43612aa1a3c1b17ee93095026040516107db90610e64565b60405180910390a15b5b5b5b5b5b5b5b505b5050565b6107f9610b5b565b6000826040516108099190610e2d565b90815260200160405180910390206040518060a0016040529081600082015481526020016001820154815260200160028201548152602001600382015481526020016004820154815250509050919050565b600160008360405161086d9190610e2d565b9081526020016040518091039020600001600082825461088d9190610f1c565b92505081905550600080836040516108a59190610e2d565b908152602001604051809103902060010154141580156108c55750600181145b156109545760016000836040516108dc9190610e2d565b908152602001604051809103902060030160008282546108fc9190610f72565b92505081905550600080836040516109149190610e2d565b9081526020016040518091039020600301541415610953576000808360405161093d9190610e2d565b9081526020016040518091039020600101819055505b5b600080836040516109659190610e2d565b908152602001604051809103902060020154141580156109855750600281145b15610a1457600160008360405161099c9190610e2d565b908152602001604051809103902060040160008282546109bc9190610f72565b92505081905550600080836040516109d49190610e2d565b9081526020016040518091039020600401541415610a1357600080836040516109fd9190610e2d565b9081526020016040518091039020600201819055505b5b7fcb339037f4164ae70060e4058be70830f53fd4eab41c462a8914edc24e3bb1d7604051610a4190610e64565b60405180910390a15050565b80600084604051610a5e9190610e2d565b9081526020016040518091039020600001541015610ab0577f8eff1735fa95a1a686b578ee99601d797d611a9699e79598fadfde840f465154604051610aa390610e44565b60405180910390a1610b56565b80600084604051610ac19190610e2d565b90815260200160405180910390206000016000828254610ae19190610f72565b9250508190555080600083604051610af99190610e2d565b90815260200160405180910390206000016000828254610b199190610f1c565b925050819055507f8eff1735fa95a1a686b578ee99601d797d611a9699e79598fadfde840f465154604051610b4d90610e64565b60405180910390a15b505050565b6040518060a0016040528060008152602001600081526020016000815260200160008152602001600081525090565b6000610b9d610b9884610ec4565b610e9f565b905082815260208101848484011115610bb957610bb8611086565b5b610bc4848285610fb0565b509392505050565b600082601f830112610be157610be0611081565b5b8135610bf1848260208601610b8a565b91505092915050565b600081359050610c09816110f8565b92915050565b600060208284031215610c2557610c24611090565b5b600082013567ffffffffffffffff811115610c4357610c4261108b565b5b610c4f84828501610bcc565b91505092915050565b600080600060608486031215610c7157610c70611090565b5b600084013567ffffffffffffffff811115610c8f57610c8e61108b565b5b610c9b86828701610bcc565b935050602084013567ffffffffffffffff811115610cbc57610cbb61108b565b5b610cc886828701610bcc565b9250506040610cd986828701610bfa565b9150509250925092565b60008060408385031215610cfa57610cf9611090565b5b600083013567ffffffffffffffff811115610d1857610d1761108b565b5b610d2485828601610bcc565b9250506020610d3585828601610bfa565b9150509250929050565b6000610d4a82610ef5565b610d548185610f11565b9350610d64818560208601610fbf565b80840191505092915050565b6000610d7d600283610f00565b9150610d88826110a6565b602082019050919050565b6000610da0600383610f00565b9150610dab826110cf565b602082019050919050565b60a082016000820151610dcc6000850182610e1e565b506020820151610ddf6020850182610e1e565b506040820151610df26040850182610e1e565b506060820151610e056060850182610e1e565b506080820151610e186080850182610e1e565b50505050565b610e2781610fa6565b82525050565b6000610e398284610d3f565b915081905092915050565b60006020820190508181036000830152610e5d81610d70565b9050919050565b60006020820190508181036000830152610e7d81610d93565b9050919050565b600060a082019050610e996000830184610db6565b92915050565b6000610ea9610eba565b9050610eb58282610ff2565b919050565b6000604051905090565b600067ffffffffffffffff821115610edf57610ede611052565b5b610ee882611095565b9050602081019050919050565b600081519050919050565b600082825260208201905092915050565b600081905092915050565b6000610f2782610fa6565b9150610f3283610fa6565b9250827fffffffffffffffffffffffffffffffffffffffffffffffffffffffffffffffff03821115610f6757610f66611023565b5b828201905092915050565b6000610f7d82610fa6565b9150610f8883610fa6565b925082821015610f9b57610f9a611023565b5b828203905092915050565b6000819050919050565b82818337600083830152505050565b60005b83811015610fdd578082015181840152602081019050610fc2565b83811115610fec576000848401525b50505050565b610ffb82611095565b810181811067ffffffffffffffff8211171561101a57611019611052565b5b80604052505050565b7f4e487b7100000000000000000000000000000000000000000000000000000000600052601160045260246000fd5b7f4e487b7100000000000000000000000000000000000000000000000000000000600052604160045260246000fd5b600080fd5b600080fd5b600080fd5b600080fd5b6000601f19601f8301169050919050565b7f4e4f000000000000000000000000000000000000000000000000000000000000600082015250565b7f5945530000000000000000000000000000000000000000000000000000000000600082015250565b61110181610fa6565b811461110c57600080fd5b5056fea2646970667358221220c5ef508693681ab33e38025f9cdaab03136c1dfd6c9d4f34c0e7039488f58fe464736f6c63430008050033",
  "immutableReferences": {},
  "source": "//SPDX-License-Identifier: UNLICENSED\r\n\r\npragma solidity ^0.8.0;\r\ncontract tokens\r\n{\r\n    event tokenAdded(string success);\r\n    event tokenActivated(string success);\r\n    event tokensShared(string success);\r\n    struct Investor\r\n    {\r\n        uint investments;\r\n        uint token1;\r\n        uint token2;\r\n        uint remaining1;\r\n        uint remaining2;\r\n    }\r\n    mapping (string => Investor) private _investors;\r\n    function getInvestor(string memory id) public view returns(Investor memory)\r\n    {\r\n        return _investors[id];\r\n    }\r\n    function invest(string memory id, uint mode) public\r\n    {\r\n        _investors[id].investments+=1;\r\n        if(_investors[id].token1!=0 && mode==1)\r\n        {\r\n            _investors[id].remaining1-=1;\r\n            if(_investors[id].remaining1==0)\r\n            {\r\n                _investors[id].token1 = 0;\r\n            }\r\n        }\r\n        if(_investors[id].token2!=0 && mode==2)\r\n        {\r\n            _investors[id].remaining2-=1;\r\n            if(_investors[id].remaining2==0)\r\n            {\r\n                _investors[id].token2 = 0;\r\n            }\r\n        }\r\n        emit tokenAdded(\"YES\");\r\n    }\r\n    function activateToken(string memory id, uint grade) public\r\n    {\r\n        uint mode = (grade<=4) ? 1 : 2;\r\n        if((_investors[id].token1!=0 && mode==1) || (_investors[id].token2!=0 && mode==2))\r\n        {\r\n            emit tokenActivated(\"NO\");\r\n            return;\r\n        }\r\n        else if(grade==1)\r\n        {\r\n            _investors[id].investments-=100;\r\n            _investors[id].token1=1;\r\n            _investors[id].remaining1=20;\r\n            emit tokenActivated(\"YES\");\r\n        }\r\n        else if(grade==2)\r\n        {\r\n            _investors[id].investments-=50;\r\n            _investors[id].token1=2;\r\n            _investors[id].remaining1=10;\r\n            emit tokenActivated(\"YES\");\r\n        }\r\n        else if(grade==3)\r\n        {\r\n            _investors[id].investments-=20;\r\n            _investors[id].token1=3;\r\n            _investors[id].remaining1=5;\r\n            emit tokenActivated(\"YES\");\r\n        }\r\n        else if(grade==4)\r\n        {\r\n            _investors[id].investments-=10;\r\n            _investors[id].token1=4;\r\n            _investors[id].remaining1=10;\r\n            emit tokenActivated(\"YES\");\r\n        }\r\n        else if(grade==5)\r\n        {\r\n            _investors[id].investments-=16;\r\n            _investors[id].token2=5;\r\n            _investors[id].remaining2=20;\r\n            emit tokenActivated(\"YES\");\r\n        }\r\n        else if(grade==6)\r\n        {\r\n            _investors[id].investments-=8;\r\n            _investors[id].token2=6;\r\n            _investors[id].remaining2=10;\r\n            emit tokenActivated(\"YES\");\r\n        }\r\n        else if(grade==7)\r\n        {\r\n            _investors[id].investments-=4;\r\n            _investors[id].token2=7;\r\n            _investors[id].remaining2=5;\r\n            emit tokenActivated(\"YES\");\r\n        }\r\n        else if(grade==8)\r\n        {\r\n            _investors[id].investments-=2;\r\n            _investors[id].token2=8;\r\n            _investors[id].remaining2=10;\r\n            emit tokenActivated(\"YES\");\r\n        }\r\n    }\r\n    function transferTokens(string memory fromID, string memory toID, uint tokenCount) public\r\n    {\r\n        if(_investors[fromID].investments<tokenCount)\r\n        {\r\n            emit tokensShared(\"NO\");\r\n            return;\r\n        }\r\n        _investors[fromID].investments -= tokenCount;\r\n        _investors[toID].investments+=tokenCount;\r\n        emit tokensShared(\"YES\");\r\n        return;\r\n    }\r\n}",
  "sourcePath": "C:\\Users\\krish\\Desktop\\Project\\contracts\\tokens.sol",
  "compiler": {
    "name": "solc",
    "version": "0.8.5+commit.a4f2e591.Emscripten.clang"
  },
  "schemaVersion": "3.4.16",
  "updatedAt": "2024-11-10T12:44:59.210Z",
  "networkType": "ethereum",
  "devdoc": {
    "kind": "dev",
    "methods": {},
    "version": 1
  },
  "userdoc": {
    "kind": "user",
    "methods": {},
    "version": 1
  }
}