{
  "contractName": "users",
  "abi": [
    {
      "anonymous": false,
      "inputs": [
        {
          "indexed": false,
          "internalType": "string",
          "name": "success",
          "type": "string"
        }
      ],
      "name": "adminEvent",
      "type": "event"
    },
    {
      "anonymous": false,
      "inputs": [
        {
          "indexed": false,
          "internalType": "string",
          "name": "success",
          "type": "string"
        }
      ],
      "name": "registerevent",
      "type": "event"
    },
    {
      "inputs": [
        {
          "internalType": "string",
          "name": "id",
          "type": "string"
        },
        {
          "internalType": "string",
          "name": "pwd2",
          "type": "string"
        },
        {
          "internalType": "address",
          "name": "currentUser",
          "type": "address"
        }
      ],
      "name": "login",
      "outputs": [
        {
          "internalType": "string",
          "name": "",
          "type": "string"
        }
      ],
      "stateMutability": "view",
      "type": "function",
      "constant": true
    },
    {
      "inputs": [
        {
          "internalType": "string",
          "name": "id",
          "type": "string"
        },
        {
          "internalType": "address",
          "name": "currentUser",
          "type": "address"
        }
      ],
      "name": "registerPossible",
      "outputs": [
        {
          "internalType": "string",
          "name": "",
          "type": "string"
        }
      ],
      "stateMutability": "view",
      "type": "function",
      "constant": true
    },
    {
      "inputs": [
        {
          "internalType": "string",
          "name": "id",
          "type": "string"
        },
        {
          "internalType": "string",
          "name": "pwd",
          "type": "string"
        },
        {
          "internalType": "address",
          "name": "currentUser",
          "type": "address"
        },
        {
          "internalType": "string",
          "name": "rl",
          "type": "string"
        },
        {
          "internalType": "string",
          "name": "idproof",
          "type": "string"
        }
      ],
      "name": "register",
      "outputs": [],
      "stateMutability": "nonpayable",
      "type": "function"
    },
    {
      "inputs": [
        {
          "internalType": "address",
          "name": "currentUser",
          "type": "address"
        }
      ],
      "name": "userid",
      "outputs": [
        {
          "internalType": "string",
          "name": "",
          "type": "string"
        }
      ],
      "stateMutability": "view",
      "type": "function",
      "constant": true
    },
    {
      "inputs": [
        {
          "internalType": "string",
          "name": "id",
          "type": "string"
        }
      ],
      "name": "metamask",
      "outputs": [
        {
          "internalType": "address",
          "name": "",
          "type": "address"
        }
      ],
      "stateMutability": "view",
      "type": "function",
      "constant": true
    },
    {
      "inputs": [
        {
          "internalType": "address",
          "name": "verifiedUser",
          "type": "address"
        },
        {
          "internalType": "string",
          "name": "status",
          "type": "string"
        },
        {
          "internalType": "string",
          "name": "aadhar",
          "type": "string"
        },
        {
          "internalType": "string",
          "name": "homeaddress",
          "type": "string"
        },
        {
          "internalType": "string",
          "name": "phone",
          "type": "string"
        }
      ],
      "name": "verify",
      "outputs": [],
      "stateMutability": "nonpayable",
      "type": "function"
    },
    {
      "inputs": [],
      "name": "unverified",
      "outputs": [
        {
          "components": [
            {
              "internalType": "string",
              "name": "userid",
              "type": "string"
            },
            {
              "internalType": "bytes32",
              "name": "password",
              "type": "bytes32"
            },
            {
              "internalType": "address",
              "name": "metamaskaddress",
              "type": "address"
            },
            {
              "internalType": "string",
              "name": "role",
              "type": "string"
            },
            {
              "internalType": "string",
              "name": "aadharNum",
              "type": "string"
            },
            {
              "internalType": "string",
              "name": "home",
              "type": "string"
            },
            {
              "internalType": "string",
              "name": "mobile",
              "type": "string"
            },
            {
              "internalType": "string",
              "name": "verified",
              "type": "string"
            },
            {
              "internalType": "string",
              "name": "idimage",
              "type": "string"
            }
          ],
          "internalType": "struct users.User[]",
          "name": "",
          "type": "tuple[]"
        }
      ],
      "stateMutability": "nonpayable",
      "type": "function"
    },
    {
      "inputs": [],
      "name": "usersdb",
      "outputs": [
        {
          "components": [
            {
              "internalType": "string",
              "name": "userid",
              "type": "string"
            },
            {
              "internalType": "bytes32",
              "name": "password",
              "type": "bytes32"
            },
            {
              "internalType": "address",
              "name": "metamaskaddress",
              "type": "address"
            },
            {
              "internalType": "string",
              "name": "role",
              "type": "string"
            },
            {
              "internalType": "string",
              "name": "aadharNum",
              "type": "string"
            },
            {
              "internalType": "string",
              "name": "home",
              "type": "string"
            },
            {
              "internalType": "string",
              "name": "mobile",
              "type": "string"
            },
            {
              "internalType": "string",
              "name": "verified",
              "type": "string"
            },
            {
              "internalType": "string",
              "name": "idimage",
              "type": "string"
            }
          ],
          "internalType": "struct users.User[]",
          "name": "",
          "type": "tuple[]"
        }
      ],
      "stateMutability": "nonpayable",
      "type": "function"
    },
    {
      "inputs": [
        {
          "internalType": "address",
          "name": "newAdmin",
          "type": "address"
        }
      ],
      "name": "addAdmin",
      "outputs": [],
      "stateMutability": "nonpayable",
      "type": "function"
    },
    {
      "inputs": [],
      "name": "removableFiles",
      "outputs": [
        {
          "internalType": "string[]",
          "name": "",
          "type": "string[]"
        }
      ],
      "stateMutability": "view",
      "type": "function",
      "constant": true
    },
    {
      "inputs": [
        {
          "internalType": "string",
          "name": "id",
          "type": "string"
        }
      ],
      "name": "getInfo",
      "outputs": [
        {
          "internalType": "string[2]",
          "name": "",
          "type": "string[2]"
        }
      ],
      "stateMutability": "view",
      "type": "function",
      "constant": true
    },
    {
      "inputs": [
        {
          "internalType": "address",
          "name": "currentUser",
          "type": "address"
        }
      ],
      "name": "userids",
      "outputs": [
        {
          "internalType": "string[]",
          "name": "",
          "type": "string[]"
        }
      ],
      "stateMutability": "nonpayable",
      "type": "function"
    }
  ],
  "bytecode": "0x6080604052604051806020016040528073c4190a00e34c4c7c2b46c0a2309f8d0d7db3a7b773ffffffffffffffffffffffffffffffffffffffff1673ffffffffffffffffffffffffffffffffffffffff168152506000906001620000659291906200007a565b503480156200007357600080fd5b5062000128565b828054828255906000526020600020908101928215620000f6579160200282015b82811115620000f55782518260006101000a81548173ffffffffffffffffffffffffffffffffffffffff021916908373ffffffffffffffffffffffffffffffffffffffff160217905550916020019190600101906200009b565b5b50905062000105919062000109565b5090565b5b80821115620001245760008160009055506001016200010a565b5090565b614c5080620001386000396000f3fe608060405234801561001057600080fd5b50600436106100b45760003560e01c8063b4385da911610071578063b4385da91461018b578063bdcb8650146101bb578063d0e93812146101d9578063d2a51fdd14610209578063dbe28eb114610239578063e1582eee14610257576100b4565b80630b29d68c146100b95780630d499d85146100d55780633da43398146100f15780634e2b162e14610121578063704802751461013f5780637ee005ab1461015b575b600080fd5b6100d360048036038101906100ce9190614077565b610287565b005b6100ef60048036038101906100ea9190614292565b61091c565b005b61010b600480360381019061010691906141ab565b610e5a565b60405161011891906147c4565b60405180910390f35b610129611106565b60405161013691906147a2565b60405180910390f35b6101596004803603810190610154919061404a565b611888565b005b61017560048036038101906101709190614162565b6119fc565b604051610182919061475e565b60405180910390f35b6101a560048036038101906101a0919061404a565b611dd6565b6040516101b291906147c4565b60405180910390f35b6101c3611f69565b6040516101d09190614780565b60405180910390f35b6101f360048036038101906101ee9190614207565b612042565b60405161020091906147c4565b60405180910390f35b610223600480360381019061021e919061404a565b612c3c565b6040516102309190614780565b60405180910390f35b61024161327d565b60405161024e91906147a2565b60405180910390f35b610271600480360381019061026c9190614162565b6139ff565b60405161027e9190614743565b60405180910390f35b60005b60018054905081101561039f5761034e600182815481106102ae576102ad614b05565b5b906000526020600020906009020160040180546102ca906149fb565b80601f01602080910402602001604051908101604052809291908181526020018280546102f6906149fb565b80156103435780601f1061031857610100808354040283529160200191610343565b820191906000526020600020905b81548152906001019060200180831161032657829003601f168201915b505050505085613b3c565b1561038c576040518060400160405280600481526020017f4e4f50450000000000000000000000000000000000000000000000000000000081525094505b808061039790614a5e565b91505061028a565b5060005b600180549050811015610914578573ffffffffffffffffffffffffffffffffffffffff16600182815481106103db576103da614b05565b5b906000526020600020906009020160020160009054906101000a900473ffffffffffffffffffffffffffffffffffffffff1673ffffffffffffffffffffffffffffffffffffffff1614801561051857506105176001828154811061044257610441614b05565b5b9060005260206000209060090201600701805461045e906149fb565b80601f016020809104026020016040519081016040528092919081815260200182805461048a906149fb565b80156104d75780601f106104ac576101008083540402835291602001916104d7565b820191906000526020600020905b8154815290600101906020018083116104ba57829003601f168201915b50505050506040518060400160405280600381526020017f5945540000000000000000000000000000000000000000000000000000000000815250613b3c565b5b1561090157846001828154811061053257610531614b05565b5b90600052602060002090600902016007019080519060200190610556929190613c1d565b506106436001828154811061056e5761056d614b05565b5b9060005260206000209060090201600701805461058a906149fb565b80601f01602080910402602001604051908101604052809291908181526020018280546105b6906149fb565b80156106035780601f106105d857610100808354040283529160200191610603565b820191906000526020600020905b8154815290600101906020018083116105e657829003601f168201915b50505050506040518060400160405280600381526020017f5945530000000000000000000000000000000000000000000000000000000000815250613b3c565b156106fb57836001828154811061065d5761065c614b05565b5b90600052602060002090600902016004019080519060200190610681929190613c1d565b50826001828154811061069757610696614b05565b5b906000526020600020906009020160050190805190602001906106bb929190613c1d565b5081600182815481106106d1576106d0614b05565b5b906000526020600020906009020160060190805190602001906106f5929190613c1d565b50610900565b6107e76001828154811061071257610711614b05565b5b9060005260206000209060090201600701805461072e906149fb565b80601f016020809104026020016040519081016040528092919081815260200182805461075a906149fb565b80156107a75780601f1061077c576101008083540402835291602001916107a7565b820191906000526020600020905b81548152906001019060200180831161078a57829003601f168201915b50505050506040518060400160405280600481526020017f4e4f504500000000000000000000000000000000000000000000000000000000815250613b3c565b156108ff5760405180602001604052806000815250600182815481106108105761080f614b05565b5b90600052602060002090600902016000019080519060200190610834929190613c1d565b5060006001828154811061084b5761084a614b05565b5b906000526020600020906009020160020160006101000a81548173ffffffffffffffffffffffffffffffffffffffff021916908373ffffffffffffffffffffffffffffffffffffffff1602179055506004600182815481106108b0576108af614b05565b5b9060005260206000209060090201600801908060018154018082558091505060019003906000526020600020016000909190919091509080546108f2906149fb565b6108fd929190613ca3565b505b5b5b808061090c90614a5e565b9150506103a3565b505050505050565b600660009054906101000a900460ff161561096c576040517f08c379a000000000000000000000000000000000000000000000000000000000815260040161096390614826565b60405180910390fd5b6001600660006101000a81548160ff021916908315150217905550610a176000805480602002602001604051908101604052809291908181526020018280548015610a0c57602002820191906000526020600020905b8160009054906101000a900473ffffffffffffffffffffffffffffffffffffffff1673ffffffffffffffffffffffffffffffffffffffff16815260200190600101908083116109c2575b505050505084613b95565b15610a56577f551aadabbd6f1d308f07f6b256f00bb0f05fc8d2c686cb21092bd1b25718fae2604051610a49906147e6565b60405180910390a1610e38565b60005b600180549050811015610beb578373ffffffffffffffffffffffffffffffffffffffff1660018281548110610a9157610a90614b05565b5b906000526020600020906009020160020160009054906101000a900473ffffffffffffffffffffffffffffffffffffffff1673ffffffffffffffffffffffffffffffffffffffff161480610b985750610b9760018281548110610af757610af6614b05565b5b90600052602060002090600902016000018054610b13906149fb565b80601f0160208091040260200160405190810160405280929190818152602001828054610b3f906149fb565b8015610b8c5780601f10610b6157610100808354040283529160200191610b8c565b820191906000526020600020905b815481529060010190602001808311610b6f57829003601f168201915b505050505087613b3c565b5b15610bd8577f551aadabbd6f1d308f07f6b256f00bb0f05fc8d2c686cb21092bd1b25718fae2604051610bca906147e6565b60405180910390a150610e38565b8080610be390614a5e565b915050610a59565b50610bf4613d30565b85816000018190525084604051602001610c0e919061472c565b6040516020818303038152906040528051906020012081602001818152505083816040019073ffffffffffffffffffffffffffffffffffffffff16908173ffffffffffffffffffffffffffffffffffffffff1681525050828160600181905250818161010001819052506040518060400160405280600381526020017f59455400000000000000000000000000000000000000000000000000000000008152508160e0018190525060018190806001815401808255809150506001900390600052602060002090600902016000909190919091506000820151816000019080519060200190610cfe929190613c1d565b506020820151816001015560408201518160020160006101000a81548173ffffffffffffffffffffffffffffffffffffffff021916908373ffffffffffffffffffffffffffffffffffffffff1602179055506060820151816003019080519060200190610d6c929190613c1d565b506080820151816004019080519060200190610d89929190613c1d565b5060a0820151816005019080519060200190610da6929190613c1d565b5060c0820151816006019080519060200190610dc3929190613c1d565b5060e0820151816007019080519060200190610de0929190613c1d565b50610100820151816008019080519060200190610dfe929190613c1d565b5050507f551aadabbd6f1d308f07f6b256f00bb0f05fc8d2c686cb21092bd1b25718fae2604051610e2e90614806565b60405180910390a1505b6000600660006101000a81548160ff0219169083151502179055505050505050565b6060610eec6000805480602002602001604051908101604052809291908181526020018280548015610ee157602002820191906000526020600020905b8160009054906101000a900473ffffffffffffffffffffffffffffffffffffffff1673ffffffffffffffffffffffffffffffffffffffff1681526020019060010190808311610e97575b505050505083613b95565b15610f2e576040518060400160405280600281526020017f4e4f0000000000000000000000000000000000000000000000000000000000008152509050611100565b60005b6001805490508110156110c6578273ffffffffffffffffffffffffffffffffffffffff1660018281548110610f6957610f68614b05565b5b906000526020600020906009020160020160009054906101000a900473ffffffffffffffffffffffffffffffffffffffff1673ffffffffffffffffffffffffffffffffffffffff161480611070575061106f60018281548110610fcf57610fce614b05565b5b90600052602060002090600902016000018054610feb906149fb565b80601f0160208091040260200160405190810160405280929190818152602001828054611017906149fb565b80156110645780601f1061103957610100808354040283529160200191611064565b820191906000526020600020905b81548152906001019060200180831161104757829003601f168201915b505050505085613b3c565b5b156110b3576040518060400160405280600281526020017f4e4f000000000000000000000000000000000000000000000000000000000000815250915050611100565b80806110be90614a5e565b915050610f31565b506040518060400160405280600381526020017f594553000000000000000000000000000000000000000000000000000000000081525090505b92915050565b6060600360006111169190613d95565b60005b6001805490508110156113cb576112126001828154811061113d5761113c614b05565b5b90600052602060002090600902016007018054611159906149fb565b80601f0160208091040260200160405190810160405280929190818152602001828054611185906149fb565b80156111d25780601f106111a7576101008083540402835291602001916111d2565b820191906000526020600020905b8154815290600101906020018083116111b557829003601f168201915b50505050506040518060400160405280600381526020017f5945540000000000000000000000000000000000000000000000000000000000815250613b3c565b156113b85760036001828154811061122d5761122c614b05565b5b906000526020600020906009020190806001815401808255809150506001900390600052602060002090600902016000909190919091506000820181600001908054611278906149fb565b611283929190613db9565b50600182015481600101556002820160009054906101000a900473ffffffffffffffffffffffffffffffffffffffff168160020160006101000a81548173ffffffffffffffffffffffffffffffffffffffff021916908373ffffffffffffffffffffffffffffffffffffffff1602179055506003820181600301908054611309906149fb565b611314929190613db9565b506004820181600401908054611329906149fb565b611334929190613db9565b506005820181600501908054611349906149fb565b611354929190613db9565b506006820181600601908054611369906149fb565b611374929190613db9565b506007820181600701908054611389906149fb565b611394929190613db9565b5060088201816008019080546113a9906149fb565b6113b4929190613db9565b5050505b80806113c390614a5e565b915050611119565b506003805480602002602001604051908101604052809291908181526020016000905b8282101561187f578382906000526020600020906009020160405180610120016040529081600082018054611422906149fb565b80601f016020809104026020016040519081016040528092919081815260200182805461144e906149fb565b801561149b5780601f106114705761010080835404028352916020019161149b565b820191906000526020600020905b81548152906001019060200180831161147e57829003601f168201915b50505050508152602001600182015481526020016002820160009054906101000a900473ffffffffffffffffffffffffffffffffffffffff1673ffffffffffffffffffffffffffffffffffffffff1673ffffffffffffffffffffffffffffffffffffffff168152602001600382018054611514906149fb565b80601f0160208091040260200160405190810160405280929190818152602001828054611540906149fb565b801561158d5780601f106115625761010080835404028352916020019161158d565b820191906000526020600020905b81548152906001019060200180831161157057829003601f168201915b505050505081526020016004820180546115a6906149fb565b80601f01602080910402602001604051908101604052809291908181526020018280546115d2906149fb565b801561161f5780601f106115f45761010080835404028352916020019161161f565b820191906000526020600020905b81548152906001019060200180831161160257829003601f168201915b50505050508152602001600582018054611638906149fb565b80601f0160208091040260200160405190810160405280929190818152602001828054611664906149fb565b80156116b15780601f10611686576101008083540402835291602001916116b1565b820191906000526020600020905b81548152906001019060200180831161169457829003601f168201915b505050505081526020016006820180546116ca906149fb565b80601f01602080910402602001604051908101604052809291908181526020018280546116f6906149fb565b80156117435780601f1061171857610100808354040283529160200191611743565b820191906000526020600020905b81548152906001019060200180831161172657829003601f168201915b5050505050815260200160078201805461175c906149fb565b80601f0160208091040260200160405190810160405280929190818152602001828054611788906149fb565b80156117d55780601f106117aa576101008083540402835291602001916117d5565b820191906000526020600020905b8154815290600101906020018083116117b857829003601f168201915b505050505081526020016008820180546117ee906149fb565b80601f016020809104026020016040519081016040528092919081815260200182805461181a906149fb565b80156118675780601f1061183c57610100808354040283529160200191611867565b820191906000526020600020905b81548152906001019060200180831161184a57829003601f168201915b505050505081525050815260200190600101906113ee565b50505050905090565b60005b60018054905081101561195f578173ffffffffffffffffffffffffffffffffffffffff16600182815481106118c3576118c2614b05565b5b906000526020600020906009020160020160009054906101000a900473ffffffffffffffffffffffffffffffffffffffff1673ffffffffffffffffffffffffffffffffffffffff16141561194c577f4cf22fe556b4820c42915a9694b6992a4571163949c9933ab28e4e24da9cb22f60405161193e906147e6565b60405180910390a1506119f9565b808061195790614a5e565b91505061188b565b506000819080600181540180825580915050600190039060005260206000200160009091909190916101000a81548173ffffffffffffffffffffffffffffffffffffffff021916908373ffffffffffffffffffffffffffffffffffffffff1602179055507f4cf22fe556b4820c42915a9694b6992a4571163949c9933ab28e4e24da9cb22f6040516119f090614806565b60405180910390a15b50565b611a04613e46565b60005b600180549050811015611d4e57611acb60018281548110611a2b57611a2a614b05565b5b90600052602060002090600902016000018054611a47906149fb565b80601f0160208091040260200160405190810160405280929190818152602001828054611a73906149fb565b8015611ac05780601f10611a9557610100808354040283529160200191611ac0565b820191906000526020600020905b815481529060010190602001808311611aa357829003601f168201915b505050505084613b3c565b8015611bbf5750611bbe60018281548110611ae957611ae8614b05565b5b90600052602060002090600902016003018054611b05906149fb565b80601f0160208091040260200160405190810160405280929190818152602001828054611b31906149fb565b8015611b7e5780601f10611b5357610100808354040283529160200191611b7e565b820191906000526020600020905b815481529060010190602001808311611b6157829003601f168201915b50505050506040518060400160405280600781526020017f69646561746f7200000000000000000000000000000000000000000000000000815250613b3c565b5b15611d3b57604051806040016040528060018381548110611be357611be2614b05565b5b90600052602060002090600902016005018054611bff906149fb565b80601f0160208091040260200160405190810160405280929190818152602001828054611c2b906149fb565b8015611c785780601f10611c4d57610100808354040283529160200191611c78565b820191906000526020600020905b815481529060010190602001808311611c5b57829003601f168201915b5050505050815260200160018381548110611c9657611c95614b05565b5b90600052602060002090600902016006018054611cb2906149fb565b80601f0160208091040260200160405190810160405280929190818152602001828054611cde906149fb565b8015611d2b5780601f10611d0057610100808354040283529160200191611d2b565b820191906000526020600020905b815481529060010190602001808311611d0e57829003601f168201915b5050505050815250915050611dd1565b8080611d4690614a5e565b915050611a07565b5060405180604001604052806040518060400160405280600281526020017f4e4100000000000000000000000000000000000000000000000000000000000081525081526020016040518060400160405280600281526020017f4e4100000000000000000000000000000000000000000000000000000000000081525081525090505b919050565b606060005b600180549050811015611f2a578273ffffffffffffffffffffffffffffffffffffffff1660018281548110611e1357611e12614b05565b5b906000526020600020906009020160020160009054906101000a900473ffffffffffffffffffffffffffffffffffffffff1673ffffffffffffffffffffffffffffffffffffffff161415611f175760018181548110611e7557611e74614b05565b5b90600052602060002090600902016000018054611e91906149fb565b80601f0160208091040260200160405190810160405280929190818152602001828054611ebd906149fb565b8015611f0a5780601f10611edf57610100808354040283529160200191611f0a565b820191906000526020600020905b815481529060010190602001808311611eed57829003601f168201915b5050505050915050611f64565b8080611f2290614a5e565b915050611ddb565b506040518060400160405280600281526020017f4e4100000000000000000000000000000000000000000000000000000000000081525090505b919050565b60606004805480602002602001604051908101604052809291908181526020016000905b82821015612039578382906000526020600020018054611fac906149fb565b80601f0160208091040260200160405190810160405280929190818152602001828054611fd8906149fb565b80156120255780601f10611ffa57610100808354040283529160200191612025565b820191906000526020600020905b81548152906001019060200180831161200857829003601f168201915b505050505081526020019060010190611f8d565b50505050905090565b6060600084905060008460405160200161205c919061472c565b604051602081830303815290604052805190602001209050600082511461263d5760005b60018054905081101561263757612144600182815481106120a4576120a3614b05565b5b906000526020600020906009020160000180546120c0906149fb565b80601f01602080910402602001604051908101604052809291908181526020018280546120ec906149fb565b80156121395780601f1061210e57610100808354040283529160200191612139565b820191906000526020600020905b81548152906001019060200180831161211c57829003601f168201915b505050505088613b3c565b1561262457816001828154811061215e5761215d614b05565b5b90600052602060002090600902016001015414801561226557506122646001828154811061218f5761218e614b05565b5b906000526020600020906009020160070180546121ab906149fb565b80601f01602080910402602001604051908101604052809291908181526020018280546121d7906149fb565b80156122245780601f106121f957610100808354040283529160200191612224565b820191906000526020600020905b81548152906001019060200180831161220757829003601f168201915b50505050506040518060400160405280600381526020017f5945530000000000000000000000000000000000000000000000000000000000815250613b3c565b5b15612322576001818154811061227e5761227d614b05565b5b9060005260206000209060090201600301805461229a906149fb565b80601f01602080910402602001604051908101604052809291908181526020018280546122c6906149fb565b80156123135780601f106122e857610100808354040283529160200191612313565b820191906000526020600020905b8154815290600101906020018083116122f657829003601f168201915b50505050509350505050612c35565b816001828154811061233757612336614b05565b5b90600052602060002090600902016001015414801561243e575061243d6001828154811061236857612367614b05565b5b90600052602060002090600902016007018054612384906149fb565b80601f01602080910402602001604051908101604052809291908181526020018280546123b0906149fb565b80156123fd5780601f106123d2576101008083540402835291602001916123fd565b820191906000526020600020905b8154815290600101906020018083116123e057829003601f168201915b50505050506040518060400160405280600381526020017f5945540000000000000000000000000000000000000000000000000000000000815250613b3c565b5b15612483576040518060400160405280600381526020017f59455400000000000000000000000000000000000000000000000000000000008152509350505050612c35565b816001828154811061249857612497614b05565b5b90600052602060002090600902016001015414801561259f575061259e600182815481106124c9576124c8614b05565b5b906000526020600020906009020160070180546124e5906149fb565b80601f0160208091040260200160405190810160405280929190818152602001828054612511906149fb565b801561255e5780601f106125335761010080835404028352916020019161255e565b820191906000526020600020905b81548152906001019060200180831161254157829003601f168201915b50505050506040518060400160405280600481526020017f4e4f504500000000000000000000000000000000000000000000000000000000815250613b3c565b5b156125e4576040518060400160405280600481526020017f4e4f5045000000000000000000000000000000000000000000000000000000008152509350505050612c35565b6040518060400160405280600281526020017f4e4f0000000000000000000000000000000000000000000000000000000000008152509350505050612c35565b808061262f90614a5e565b915050612080565b50612bfa565b6126cd60008054806020026020016040519081016040528092919081815260200182805480156126c257602002820191906000526020600020905b8160009054906101000a900473ffffffffffffffffffffffffffffffffffffffff1673ffffffffffffffffffffffffffffffffffffffff1681526020019060010190808311612678575b505050505085613b95565b15612711576040518060400160405280600581526020017f61646d696e00000000000000000000000000000000000000000000000000000081525092505050612c35565b60005b600180549050811015612bf8578473ffffffffffffffffffffffffffffffffffffffff166001828154811061274c5761274b614b05565b5b906000526020600020906009020160020160009054906101000a900473ffffffffffffffffffffffffffffffffffffffff1673ffffffffffffffffffffffffffffffffffffffff161415612be557612886600182815481106127b1576127b0614b05565b5b906000526020600020906009020160070180546127cd906149fb565b80601f01602080910402602001604051908101604052809291908181526020018280546127f9906149fb565b80156128465780601f1061281b57610100808354040283529160200191612846565b820191906000526020600020905b81548152906001019060200180831161282957829003601f168201915b50505050506040518060400160405280600381526020017f5945530000000000000000000000000000000000000000000000000000000000815250613b3c565b15612943576001818154811061289f5761289e614b05565b5b906000526020600020906009020160030180546128bb906149fb565b80601f01602080910402602001604051908101604052809291908181526020018280546128e7906149fb565b80156129345780601f1061290957610100808354040283529160200191612934565b820191906000526020600020905b81548152906001019060200180831161291757829003601f168201915b50505050509350505050612c35565b612a2f6001828154811061295a57612959614b05565b5b90600052602060002090600902016007018054612976906149fb565b80601f01602080910402602001604051908101604052809291908181526020018280546129a2906149fb565b80156129ef5780601f106129c4576101008083540402835291602001916129ef565b820191906000526020600020905b8154815290600101906020018083116129d257829003601f168201915b50505050506040518060400160405280600381526020017f5945540000000000000000000000000000000000000000000000000000000000815250613b3c565b15612a74576040518060400160405280600381526020017f59455400000000000000000000000000000000000000000000000000000000008152509350505050612c35565b612b6060018281548110612a8b57612a8a614b05565b5b90600052602060002090600902016007018054612aa7906149fb565b80601f0160208091040260200160405190810160405280929190818152602001828054612ad3906149fb565b8015612b205780601f10612af557610100808354040283529160200191612b20565b820191906000526020600020905b815481529060010190602001808311612b0357829003601f168201915b50505050506040518060400160405280600481526020017f4e4f504500000000000000000000000000000000000000000000000000000000815250613b3c565b15612ba5576040518060400160405280600481526020017f4e4f5045000000000000000000000000000000000000000000000000000000008152509350505050612c35565b6040518060400160405280600281526020017f4e4f0000000000000000000000000000000000000000000000000000000000008152509350505050612c35565b8080612bf090614a5e565b915050612714565b505b6040518060400160405280600281526020017f4e4f000000000000000000000000000000000000000000000000000000000000815250925050505b9392505050565b606060056000612c4c9190613e6d565b612cdc6000805480602002602001604051908101604052809291908181526020018280548015612cd157602002820191906000526020600020905b8160009054906101000a900473ffffffffffffffffffffffffffffffffffffffff1673ffffffffffffffffffffffffffffffffffffffff1681526020019060010190808311612c87575b505050505083613b95565b15612f345760005b600180549050811015612e5a57612ddd60018281548110612d0857612d07614b05565b5b90600052602060002090600902016007018054612d24906149fb565b80601f0160208091040260200160405190810160405280929190818152602001828054612d50906149fb565b8015612d9d5780601f10612d7257610100808354040283529160200191612d9d565b820191906000526020600020905b815481529060010190602001808311612d8057829003601f168201915b50505050506040518060400160405280600381526020017f5945530000000000000000000000000000000000000000000000000000000000815250613b3c565b15612e4757600560018281548110612df857612df7614b05565b5b906000526020600020906009020160000190806001815401808255809150506001900390600052602060002001600090919091909150908054612e3a906149fb565b612e45929190613ca3565b505b8080612e5290614a5e565b915050612ce4565b506005805480602002602001604051908101604052809291908181526020016000905b82821015612f29578382906000526020600020018054612e9c906149fb565b80601f0160208091040260200160405190810160405280929190818152602001828054612ec8906149fb565b8015612f155780601f10612eea57610100808354040283529160200191612f15565b820191906000526020600020905b815481529060010190602001808311612ef857829003601f168201915b505050505081526020019060010190612e7d565b505050509050613278565b60005b6001805490508110156131a25761303060018281548110612f5b57612f5a614b05565b5b90600052602060002090600902016007018054612f77906149fb565b80601f0160208091040260200160405190810160405280929190818152602001828054612fa3906149fb565b8015612ff05780601f10612fc557610100808354040283529160200191612ff0565b820191906000526020600020905b815481529060010190602001808311612fd357829003601f168201915b50505050506040518060400160405280600381526020017f5945530000000000000000000000000000000000000000000000000000000000815250613b3c565b801561312557506131236001828154811061304e5761304d614b05565b5b9060005260206000209060090201600301805461306a906149fb565b80601f0160208091040260200160405190810160405280929190818152602001828054613096906149fb565b80156130e35780601f106130b8576101008083540402835291602001916130e3565b820191906000526020600020905b8154815290600101906020018083116130c657829003601f168201915b50505050506040518060400160405280600981526020017f7265676973747261720000000000000000000000000000000000000000000000815250613b3c565b155b1561318f576005600182815481106131405761313f614b05565b5b906000526020600020906009020160000190806001815401808255809150506001900390600052602060002001600090919091909150908054613182906149fb565b61318d929190613ca3565b505b808061319a90614a5e565b915050612f37565b506005805480602002602001604051908101604052809291908181526020016000905b828210156132715783829060005260206000200180546131e4906149fb565b80601f0160208091040260200160405190810160405280929190818152602001828054613210906149fb565b801561325d5780601f106132325761010080835404028352916020019161325d565b820191906000526020600020905b81548152906001019060200180831161324057829003601f168201915b5050505050815260200190600101906131c5565b5050505090505b919050565b60606002600061328d9190613d95565b60005b60018054905081101561354257613389600182815481106132b4576132b3614b05565b5b906000526020600020906009020160070180546132d0906149fb565b80601f01602080910402602001604051908101604052809291908181526020018280546132fc906149fb565b80156133495780601f1061331e57610100808354040283529160200191613349565b820191906000526020600020905b81548152906001019060200180831161332c57829003601f168201915b50505050506040518060400160405280600381526020017f5945530000000000000000000000000000000000000000000000000000000000815250613b3c565b1561352f576002600182815481106133a4576133a3614b05565b5b9060005260206000209060090201908060018154018082558091505060019003906000526020600020906009020160009091909190915060008201816000019080546133ef906149fb565b6133fa929190613db9565b50600182015481600101556002820160009054906101000a900473ffffffffffffffffffffffffffffffffffffffff168160020160006101000a81548173ffffffffffffffffffffffffffffffffffffffff021916908373ffffffffffffffffffffffffffffffffffffffff1602179055506003820181600301908054613480906149fb565b61348b929190613db9565b5060048201816004019080546134a0906149fb565b6134ab929190613db9565b5060058201816005019080546134c0906149fb565b6134cb929190613db9565b5060068201816006019080546134e0906149fb565b6134eb929190613db9565b506007820181600701908054613500906149fb565b61350b929190613db9565b506008820181600801908054613520906149fb565b61352b929190613db9565b5050505b808061353a90614a5e565b915050613290565b506002805480602002602001604051908101604052809291908181526020016000905b828210156139f6578382906000526020600020906009020160405180610120016040529081600082018054613599906149fb565b80601f01602080910402602001604051908101604052809291908181526020018280546135c5906149fb565b80156136125780601f106135e757610100808354040283529160200191613612565b820191906000526020600020905b8154815290600101906020018083116135f557829003601f168201915b50505050508152602001600182015481526020016002820160009054906101000a900473ffffffffffffffffffffffffffffffffffffffff1673ffffffffffffffffffffffffffffffffffffffff1673ffffffffffffffffffffffffffffffffffffffff16815260200160038201805461368b906149fb565b80601f01602080910402602001604051908101604052809291908181526020018280546136b7906149fb565b80156137045780601f106136d957610100808354040283529160200191613704565b820191906000526020600020905b8154815290600101906020018083116136e757829003601f168201915b5050505050815260200160048201805461371d906149fb565b80601f0160208091040260200160405190810160405280929190818152602001828054613749906149fb565b80156137965780601f1061376b57610100808354040283529160200191613796565b820191906000526020600020905b81548152906001019060200180831161377957829003601f168201915b505050505081526020016005820180546137af906149fb565b80601f01602080910402602001604051908101604052809291908181526020018280546137db906149fb565b80156138285780601f106137fd57610100808354040283529160200191613828565b820191906000526020600020905b81548152906001019060200180831161380b57829003601f168201915b50505050508152602001600682018054613841906149fb565b80601f016020809104026020016040519081016040528092919081815260200182805461386d906149fb565b80156138ba5780601f1061388f576101008083540402835291602001916138ba565b820191906000526020600020905b81548152906001019060200180831161389d57829003601f168201915b505050505081526020016007820180546138d3906149fb565b80601f01602080910402602001604051908101604052809291908181526020018280546138ff906149fb565b801561394c5780601f106139215761010080835404028352916020019161394c565b820191906000526020600020905b81548152906001019060200180831161392f57829003601f168201915b50505050508152602001600882018054613965906149fb565b80601f0160208091040260200160405190810160405280929190818152602001828054613991906149fb565b80156139de5780601f106139b3576101008083540402835291602001916139de565b820191906000526020600020905b8154815290600101906020018083116139c157829003601f168201915b50505050508152505081526020019060010190613565565b50505050905090565b600080600090505b600180549050811015613b3157613acb60018281548110613a2b57613a2a614b05565b5b90600052602060002090600902016000018054613a47906149fb565b80601f0160208091040260200160405190810160405280929190818152602001828054613a73906149fb565b8015613ac05780601f10613a9557610100808354040283529160200191613ac0565b820191906000526020600020905b815481529060010190602001808311613aa357829003601f168201915b505050505084613b3c565b15613b1e5760018181548110613ae457613ae3614b05565b5b906000526020600020906009020160020160009054906101000a900473ffffffffffffffffffffffffffffffffffffffff16915050613b37565b8080613b2990614a5e565b915050613a07565b50600090505b919050565b600081604051602001613b4f919061472c565b6040516020818303038152906040528051906020012083604051602001613b76919061472c565b6040516020818303038152906040528051906020012014905092915050565b600080600090505b8351811015613c11578273ffffffffffffffffffffffffffffffffffffffff16848281518110613bd057613bcf614b05565b5b602002602001015173ffffffffffffffffffffffffffffffffffffffff161415613bfe576001915050613c17565b8080613c0990614a5e565b915050613b9d565b50600090505b92915050565b828054613c29906149fb565b90600052602060002090601f016020900481019282613c4b5760008555613c92565b82601f10613c6457805160ff1916838001178555613c92565b82800160010185558215613c92579182015b82811115613c91578251825591602001919060010190613c76565b5b509050613c9f9190613e8e565b5090565b828054613caf906149fb565b90600052602060002090601f016020900481019282613cd15760008555613d1f565b82601f10613ce25780548555613d1f565b82800160010185558215613d1f57600052602060002091601f016020900482015b82811115613d1e578254825591600101919060010190613d03565b5b509050613d2c9190613e8e565b5090565b6040518061012001604052806060815260200160008019168152602001600073ffffffffffffffffffffffffffffffffffffffff1681526020016060815260200160608152602001606081526020016060815260200160608152602001606081525090565b5080546000825560090290600052602060002090810190613db69190613eab565b50565b828054613dc5906149fb565b90600052602060002090601f016020900481019282613de75760008555613e35565b82601f10613df85780548555613e35565b82800160010185558215613e3557600052602060002091601f016020900482015b82811115613e34578254825591600101919060010190613e19565b5b509050613e429190613e8e565b5090565b60405180604001604052806002905b6060815260200190600190039081613e555790505090565b5080546000825590600052602060002090810190613e8b9190613f61565b50565b5b80821115613ea7576000816000905550600101613e8f565b5090565b5b80821115613f5d5760008082016000613ec59190613f85565b60018201600090556002820160006101000a81549073ffffffffffffffffffffffffffffffffffffffff0219169055600382016000613f049190613f85565b600482016000613f149190613f85565b600582016000613f249190613f85565b600682016000613f349190613f85565b600782016000613f449190613f85565b600882016000613f549190613f85565b50600901613eac565b5090565b5b80821115613f815760008181613f789190613f85565b50600101613f62565b5090565b508054613f91906149fb565b6000825580601f10613fa35750613fc2565b601f016020900490600052602060002090810190613fc19190613e8e565b5b50565b6000613fd8613fd38461486b565b614846565b905082815260208101848484011115613ff457613ff3614b68565b5b613fff8482856149b9565b509392505050565b60008135905061401681614c03565b92915050565b600082601f83011261403157614030614b63565b5b8135614041848260208601613fc5565b91505092915050565b6000602082840312156140605761405f614b72565b5b600061406e84828501614007565b91505092915050565b600080600080600060a0868803121561409357614092614b72565b5b60006140a188828901614007565b955050602086013567ffffffffffffffff8111156140c2576140c1614b6d565b5b6140ce8882890161401c565b945050604086013567ffffffffffffffff8111156140ef576140ee614b6d565b5b6140fb8882890161401c565b935050606086013567ffffffffffffffff81111561411c5761411b614b6d565b5b6141288882890161401c565b925050608086013567ffffffffffffffff81111561414957614148614b6d565b5b6141558882890161401c565b9150509295509295909350565b60006020828403121561417857614177614b72565b5b600082013567ffffffffffffffff81111561419657614195614b6d565b5b6141a28482850161401c565b91505092915050565b600080604083850312156141c2576141c1614b72565b5b600083013567ffffffffffffffff8111156141e0576141df614b6d565b5b6141ec8582860161401c565b92505060206141fd85828601614007565b9150509250929050565b6000806000606084860312156142205761421f614b72565b5b600084013567ffffffffffffffff81111561423e5761423d614b6d565b5b61424a8682870161401c565b935050602084013567ffffffffffffffff81111561426b5761426a614b6d565b5b6142778682870161401c565b925050604061428886828701614007565b9150509250925092565b600080600080600060a086880312156142ae576142ad614b72565b5b600086013567ffffffffffffffff8111156142cc576142cb614b6d565b5b6142d88882890161401c565b955050602086013567ffffffffffffffff8111156142f9576142f8614b6d565b5b6143058882890161401c565b945050604061431688828901614007565b935050606086013567ffffffffffffffff81111561433757614336614b6d565b5b6143438882890161401c565b925050608086013567ffffffffffffffff81111561436457614363614b6d565b5b6143708882890161401c565b9150509295509295909350565b60006143898383614531565b905092915050565b600061439d838361463d565b905092915050565b6143ae81614973565b82525050565b6143bd81614973565b82525050565b60006143ce826148c6565b6143d88185614919565b9350836020820285016143ea8561489c565b8060005b858110156144265784840389528151614407858261437d565b9450614412836148f2565b925060208a019950506001810190506143ee565b50829750879550505050505092915050565b6000614443826148d1565b61444d8185614924565b93508360208202850161445f856148a6565b8060005b8581101561449b578484038952815161447c858261437d565b9450614487836148ff565b925060208a01995050600181019050614463565b50829750879550505050505092915050565b60006144b8826148dc565b6144c28185614935565b9350836020820285016144d4856148b6565b8060005b8581101561451057848403895281516144f18582614391565b94506144fc8361490c565b925060208a019950506001810190506144d8565b50829750879550505050505092915050565b61452b81614985565b82525050565b600061453c826148e7565b6145468185614946565b93506145568185602086016149c8565b61455f81614b77565b840191505092915050565b6000614575826148e7565b61457f8185614957565b935061458f8185602086016149c8565b61459881614b77565b840191505092915050565b60006145ae826148e7565b6145b88185614968565b93506145c88185602086016149c8565b80840191505092915050565b60006145e1600283614957565b91506145ec82614b88565b602082019050919050565b6000614604600383614957565b915061460f82614bb1565b602082019050919050565b6000614627601283614957565b915061463282614bda565b602082019050919050565b600061012083016000830151848203600086015261465b8282614531565b91505060208301516146706020860182614522565b50604083015161468360408601826143a5565b506060830151848203606086015261469b8282614531565b915050608083015184820360808601526146b58282614531565b91505060a083015184820360a08601526146cf8282614531565b91505060c083015184820360c08601526146e98282614531565b91505060e083015184820360e08601526147038282614531565b91505061010083015184820361010086015261471f8282614531565b9150508091505092915050565b600061473882846145a3565b915081905092915050565b600060208201905061475860008301846143b4565b92915050565b6000602082019050818103600083015261477881846143c3565b905092915050565b6000602082019050818103600083015261479a8184614438565b905092915050565b600060208201905081810360008301526147bc81846144ad565b905092915050565b600060208201905081810360008301526147de818461456a565b905092915050565b600060208201905081810360008301526147ff816145d4565b9050919050565b6000602082019050818103600083015261481f816145f7565b9050919050565b6000602082019050818103600083015261483f8161461a565b9050919050565b6000614850614861565b905061485c8282614a2d565b919050565b6000604051905090565b600067ffffffffffffffff82111561488657614885614b34565b5b61488f82614b77565b9050602081019050919050565b6000819050919050565b6000819050602082019050919050565b6000819050602082019050919050565b600060029050919050565b600081519050919050565b600081519050919050565b600081519050919050565b6000602082019050919050565b6000602082019050919050565b6000602082019050919050565b600081905092915050565b600082825260208201905092915050565b600082825260208201905092915050565b600082825260208201905092915050565b600082825260208201905092915050565b600081905092915050565b600061497e8261498f565b9050919050565b6000819050919050565b600073ffffffffffffffffffffffffffffffffffffffff82169050919050565b6000819050919050565b82818337600083830152505050565b60005b838110156149e65780820151818401526020810190506149cb565b838111156149f5576000848401525b50505050565b60006002820490506001821680614a1357607f821691505b60208210811415614a2757614a26614ad6565b5b50919050565b614a3682614b77565b810181811067ffffffffffffffff82111715614a5557614a54614b34565b5b80604052505050565b6000614a69826149af565b91507fffffffffffffffffffffffffffffffffffffffffffffffffffffffffffffffff821415614a9c57614a9b614aa7565b5b600182019050919050565b7f4e487b7100000000000000000000000000000000000000000000000000000000600052601160045260246000fd5b7f4e487b7100000000000000000000000000000000000000000000000000000000600052602260045260246000fd5b7f4e487b7100000000000000000000000000000000000000000000000000000000600052603260045260246000fd5b7f4e487b7100000000000000000000000000000000000000000000000000000000600052604160045260246000fd5b600080fd5b600080fd5b600080fd5b600080fd5b6000601f19601f8301169050919050565b7f4e4f000000000000000000000000000000000000000000000000000000000000600082015250565b7f5945530000000000000000000000000000000000000000000000000000000000600082015250565b7f46756e6374696f6e206973206c6f636b65640000000000000000000000000000600082015250565b614c0c81614973565b8114614c1757600080fd5b5056fea26469706673582212206e7efb0087a5c5cf9d032e740de217cfe48186214dfda43dbad1e409df80418864736f6c63430008050033",
  "immutableReferences": {},
  "source": "//SPDX-License-Identifier: UNLICENSED\r\n\r\npragma solidity ^0.8.0;\r\ncontract users\r\n{\r\n    event registerevent(string success);\r\n    event adminEvent(string success);\r\n    address[] private _admins=[0xc4190a00E34C4C7c2b46c0a2309f8D0D7Db3a7b7];\r\n    struct User\r\n    {\r\n        string userid;\r\n        bytes32 password;\r\n        address metamaskaddress;\r\n        string role;\r\n        string aadharNum;\r\n        string home;\r\n        string mobile;\r\n        string verified;\r\n        string idimage;\r\n    }\r\n    User[] private _totalusers;\r\n    User[] private _verifiedUsers;\r\n    User[] private _unverifiedUsers;\r\n    string[] private _discardedProofs;\r\n    string[] private _userids;\r\n    bool private locked;\r\n    modifier lock\r\n    {\r\n        require(!locked, \"Function is locked\");\r\n        locked = true;\r\n        _;\r\n        locked = false;\r\n    }\r\n    function _areEqual(string memory a, string memory b) private pure returns (bool)\r\n    {\r\n        return (keccak256(abi.encodePacked(a)) == keccak256(abi.encodePacked(b)));\r\n    }\r\n    function _isadmin(address[] memory admin, address currentUser) private pure returns (bool)\r\n    {\r\n        for(uint i=0;i<admin.length;i++)\r\n        {\r\n            if(admin[i]==currentUser)\r\n            return true;\r\n        }\r\n        return false;\r\n    }\r\n    function login(string memory id, string memory pwd2, address currentUser) public view returns (string memory)\r\n    {\r\n        bytes memory tempEmptyStringTest = bytes(id);\r\n        bytes32 pwd = keccak256(abi.encodePacked(pwd2));\r\n        if (tempEmptyStringTest.length!=0)\r\n        {\r\n            for(uint i=0; i<_totalusers.length;i++)\r\n            {\r\n                if(_areEqual(_totalusers[i].userid,id))\r\n                {\r\n                    if(_totalusers[i].password==pwd && _areEqual(_totalusers[i].verified,\"YES\"))\r\n                    {\r\n                        return _totalusers[i].role;\r\n                    }\r\n                    else if(_totalusers[i].password==pwd && _areEqual(_totalusers[i].verified,\"YET\"))\r\n                    {\r\n                        return \"YET\";\r\n                    }\r\n                    else if(_totalusers[i].password==pwd && _areEqual(_totalusers[i].verified,\"NOPE\"))\r\n                    {\r\n                        return \"NOPE\";\r\n                    }\r\n                    else\r\n                    {\r\n                        return \"NO\";\r\n                    }\r\n                }\r\n            }\r\n        }\r\n        else\r\n        {\r\n            if(_isadmin(_admins, currentUser))\r\n            {\r\n                return \"admin\";\r\n            }\r\n            for(uint i=0; i<_totalusers.length;i++)\r\n            {\r\n                if(_totalusers[i].metamaskaddress==currentUser)\r\n                {\r\n                    if(_areEqual(_totalusers[i].verified,\"YES\"))\r\n                    {\r\n                        return _totalusers[i].role;\r\n                    }\r\n                    else if(_areEqual(_totalusers[i].verified,\"YET\"))\r\n                    {\r\n                        return \"YET\";\r\n                    }\r\n                    else if(_areEqual(_totalusers[i].verified,\"NOPE\"))\r\n                    {\r\n                        return \"NOPE\";\r\n                    }\r\n                    else\r\n                    {\r\n                        return \"NO\";\r\n                    }\r\n                }\r\n            }\r\n        }\r\n        return \"NO\";\r\n    }\r\n    function registerPossible(string memory id, address currentUser) public view returns (string memory)\r\n    {\r\n        if(_isadmin(_admins, currentUser))\r\n        {\r\n            return \"NO\";\r\n        }\r\n        for(uint i=0; i<_totalusers.length;i++)\r\n        {\r\n            if(_totalusers[i].metamaskaddress==currentUser || _areEqual(_totalusers[i].userid,id))\r\n            {\r\n                return \"NO\";\r\n            }\r\n        }\r\n        return \"YES\";\r\n    }\r\n    function register(string memory id, string memory pwd, address currentUser, string memory rl, string memory idproof) public lock\r\n    {\r\n        if(_isadmin(_admins, currentUser))\r\n        {\r\n            emit registerevent(\"NO\");\r\n            return;\r\n        }\r\n        for(uint i=0;i<_totalusers.length;i++)\r\n        {\r\n            if(_totalusers[i].metamaskaddress==currentUser || _areEqual(_totalusers[i].userid,id))\r\n            {\r\n                emit registerevent(\"NO\");\r\n                return;\r\n            }\r\n        }\r\n        User memory new_user;\r\n        new_user.userid = id;\r\n        new_user.password = keccak256(abi.encodePacked(pwd));\r\n        new_user.metamaskaddress = currentUser;\r\n        new_user.role = rl;\r\n        new_user.idimage = idproof;\r\n        new_user.verified=\"YET\";\r\n        _totalusers.push(new_user);\r\n        emit registerevent(\"YES\");\r\n    }\r\n    function userid(address currentUser) public view returns (string memory)\r\n    {\r\n        for(uint i=0;i<_totalusers.length;i++)\r\n        {\r\n            if(_totalusers[i].metamaskaddress==currentUser)\r\n            {\r\n                return _totalusers[i].userid;\r\n            }\r\n        }\r\n        return \"NA\";\r\n    }\r\n    function metamask(string memory id) public view returns (address)\r\n    {\r\n        for(uint i=0; i<_totalusers.length;i++)\r\n        {\r\n            if(_areEqual(_totalusers[i].userid, id))\r\n            {\r\n                return _totalusers[i].metamaskaddress;\r\n            }\r\n        }\r\n        return 0x0000000000000000000000000000000000000000;\r\n    }\r\n    function verify(address verifiedUser, string memory status, string memory aadhar, string memory homeaddress, string memory phone) public\r\n    {\r\n        for(uint i=0; i<_totalusers.length;i++)\r\n        {\r\n            if(_areEqual(_totalusers[i].aadharNum,aadhar))\r\n            {\r\n                status = \"NOPE\";\r\n            }\r\n        }\r\n        for(uint i=0; i<_totalusers.length;i++)\r\n        {\r\n            if(_totalusers[i].metamaskaddress==verifiedUser && _areEqual(_totalusers[i].verified,\"YET\"))\r\n            {\r\n                _totalusers[i].verified = status;\r\n                if(_areEqual(_totalusers[i].verified,\"YES\"))\r\n                {\r\n                    _totalusers[i].aadharNum = aadhar;\r\n                    _totalusers[i].home = homeaddress;\r\n                    _totalusers[i].mobile = phone;\r\n                }\r\n                else if(_areEqual(_totalusers[i].verified,\"NOPE\"))\r\n                {\r\n                    _totalusers[i].userid=\"\";\r\n                    _totalusers[i].metamaskaddress=0x0000000000000000000000000000000000000000;\r\n                    _discardedProofs.push(_totalusers[i].idimage);\r\n                }\r\n            }\r\n        }\r\n    }\r\n    function unverified() public returns(User[] memory)\r\n    {\r\n        delete _unverifiedUsers;\r\n        for(uint i=0;i<_totalusers.length;i++)\r\n        {\r\n            if(_areEqual(_totalusers[i].verified,\"YET\"))\r\n            {\r\n                _unverifiedUsers.push(_totalusers[i]);\r\n            }\r\n        }\r\n        return _unverifiedUsers;\r\n    }\r\n    function usersdb() public returns(User[] memory)\r\n    {\r\n        delete _verifiedUsers;\r\n        for(uint i=0;i<_totalusers.length;i++)\r\n        {\r\n            if(_areEqual(_totalusers[i].verified,\"YES\"))\r\n            {\r\n                _verifiedUsers.push(_totalusers[i]);\r\n            }\r\n        }\r\n        return _verifiedUsers;\r\n    }\r\n    function addAdmin(address newAdmin) public\r\n    {\r\n        for(uint i=0; i<_totalusers.length;i++)\r\n        {\r\n            if(_totalusers[i].metamaskaddress==newAdmin)\r\n            {\r\n                emit adminEvent(\"NO\");\r\n                return;\r\n            }\r\n        }\r\n        _admins.push(newAdmin);\r\n        emit adminEvent(\"YES\");\r\n    }\r\n    function removableFiles() public view returns(string[] memory)\r\n    {\r\n        return _discardedProofs;\r\n    }\r\n    function getInfo(string memory id) public view returns(string[2] memory)\r\n    {\r\n        for(uint i=0; i<_totalusers.length;i++)\r\n        {\r\n            if(_areEqual(_totalusers[i].userid,id) && _areEqual(_totalusers[i].role, \"ideator\"))\r\n            {\r\n                return [_totalusers[i].home, _totalusers[i].mobile];\r\n            }\r\n        }\r\n        return [\"NA\", \"NA\"];\r\n    }\r\n    function userids(address currentUser) public returns(string[] memory)\r\n    {\r\n        delete _userids;\r\n        if(_isadmin(_admins, currentUser))\r\n        {\r\n            for(uint i=0;i<_totalusers.length;i++)\r\n            {\r\n                if(_areEqual(_totalusers[i].verified,\"YES\"))\r\n                {\r\n                    _userids.push(_totalusers[i].userid);\r\n                }\r\n            }\r\n            return _userids;\r\n        }\r\n        else\r\n        {\r\n            for(uint i=0;i<_totalusers.length;i++)\r\n            {\r\n                if(_areEqual(_totalusers[i].verified,\"YES\") && !_areEqual(_totalusers[i].role,\"registrar\"))\r\n                {\r\n                    _userids.push(_totalusers[i].userid);\r\n                }\r\n            }\r\n            return _userids;\r\n        }\r\n    }\r\n}",
  "sourcePath": "C:\\Users\\krish\\Desktop\\Project\\contracts\\users.sol",
  "compiler": {
    "name": "solc",
    "version": "0.8.5+commit.a4f2e591.Emscripten.clang"
  },
  "schemaVersion": "3.4.16",
  "updatedAt": "2024-11-10T12:44:59.156Z",
  "networkType": "ethereum",
  "devdoc": {
    "kind": "dev",
    "methods": {},
    "version": 1
  },
  "userdoc": {
    "kind": "user",
    "methods": {},
    "version": 1
  }
}